:020000040800F2
:10000000681100209D8A0008D1800008D380000874
:10001000D5800008D7800008D980000800000000C3
:10002000000000000000000000000000DB8000086D
:10003000DD80000800000000DF8000081982000851
:10004000DD8A0008E18A0008E58A0008E98A0008DC
:10005000ED8A0008F18A0008F58A0008F98A00088C
:10006000FD8A0008018B0008058B0008098B000839
:100070000D8B0008118B0008158B0008198B0008E8
:100080001D8B0008218B0008258B0008298B000898
:100090002D8B0008318B0008358B0008398B000848
:1000A0003D8B0008418B0008458B0008498B0008F8
:1000B0004D8B0008518B0008558B0008598B0008A8
:1000C0005D8B0008618B0008658B0008698B000858
:1000D0006D8B0008E1800008758B0008798B0008A3
:1000E0007D8B0008818B0008858B0008898B0008B8
:1000F0008D8B0008DFF8C00B007C10F00F0F04D1CF
:100100000120DFF8B81B487003E00020DFF8AC1BCB
:100110004870DFF8A40B007C10F00F00032813D107
:100120000020DFF89C1BC8700020DFF8DC1D487041
:100130000020DFF8D41DC8700020DFF8881B48704D
:100140000020DFF8801BC870DFF86C0B006910F42A
:100150004240002800F0AE80B0F5007F00F09980AA
:10016000B0F5804F27D0B0F5844F0ED0B0F5004FDA
:1001700065D0B0F5024F34D0B0F5404F04D0B0F5A3
:10018000424F40F0978095E094E00120DFF82C1B6F
:1001900088700120DFF8241B88723120DFF8281BCB
:1001A00008703220DFF8241B0870DFF8240BDFF81A
:1001B000181B48607EE00120DFF8001B88723320A6
:1001C000DFF8041B08703220DFF8001B0870DFF82E
:1001D000000BDFF8F41A48600020DFF82C1D0872CD
:1001E00068E00120DFF8D41A88700120DFF8CC1A0B
:1001F000C8720120DFF8C41A88723020DFF8C81AEC
:1002000008703120DFF8C41A08700020DFF8F81CED
:100210004870DFF8F00BDFF8B01A4860DFF8980A92
:10022000007CC00605D5DFF8E00BDFF8A01A4860B7
:1002300004E0DFF8D80BDFF8941A48603AE00120B8
:10024000DFF8781AC8720120DFF8701A887231203E
:10025000DFF8741A08703320DFF8701A0870002075
:10026000DFF8A41C4870DFF8680ADFF8601A4860FD
:10027000DFF8440A007CC00605D5DFF88C0BDFF8F8
:10028000481A486004E0DFF8840BDFF83C1A486045
:1002900010E00120DFF8241A88700020DFF8681CC5
:1002A00048703020DFF8201A08703120DFF81C1A5F
:1002B0000870FFE70120DFF8041A0872DFF8F80978
:1002C000006910F4405F04D00120DFF8F019C87114
:1002D00003E00020DFF8E419C871DFF8DC090069E9
:1002E000000504D50120DFF8D419887103E000204F
:1002F000DFF8C8198871DFF8C0090069400504D526
:100300000120DFF8B819487203E00020DFF8AC19CB
:100310004872DFF8A409007C800604D5FF20DFF8CE
:10032000E81B487203E00020DFF8DC1B4872DFF8AE
:1003300088090069800304D5FF20DFF8CC1B087210
:1003400003E00020DFF8C01B0872DFF86C09007CB6
:10035000C00604D50120DFF8C81B487003E0002068
:10036000DFF8BC1B4870DFF85009007C10F0070074
:10037000022806D0DFF84009007C10F007000328AF
:1003800007D10020DFF8801BC8710020DFF8781B40
:100390004870DFF82409007C400607D40020DFF80D
:1003A000681B88720020DFF8601BC872704710213C
:1003B000DFF808291170DFF804194870704780B51C
:1003C0000020DFF8601B08801520DFF85C1B087038
:1003D0000120DFF8541B48700120DFF84C1B8870A7
:1003E0000020DFF8441B888041F25040DFF8381BC2
:1003F000C880DFF8300B0088DFF82C1B4881012013
:10040000DFF8241B0872DFF8240BDFF8181B0988BB
:100410000C2251430844DFF8101B0C2201F0CCFDE4
:10042000DFF8000B0088401CDFF8F81A088016205F
:10043000DFF8FC1A08700420DFF8F41A4870042072
:10044000DFF8EC1A88700020DFF8E41A888041F2A7
:10045000B440DFF8DC1AC880DFF8C80A0088DFF88B
:10046000D01A48810120DFF8C81A0872DFF8BC0AE8
:10047000DFF8B01A09880C2251430844DFF8B01A9B
:100480000C2201F099FDDFF89C0A0088401CDFF87F
:10049000941A08800020DFF82418487041F2504078
:1004A000DFF8881ADFF8802A52890C235A43114456
:1004B000888001BD80B50020DFF8681A0880002020
:1004C000DFF8701A08800020DFF86C1A8870DFF8F7
:1004D000EC078078002868D0DFF8DC070069C005E9
:1004E00031D50120DFF8541A08700420DFF84C1AC7
:1004F00048700120DFF8441A88700020DFF83C1AA9
:1005000088806420DFF8341AC8800020DFF82C1AB5
:100510000872DFF8100A0088DFF8201A4881DFF837
:100520000C0ADFF8001A09880C2251430844DFF84E
:100530000C1A0C2201F040FDDFF8E8090088401C8D
:10054000DFF8E01908801220DFF8F41908700420A1
:10055000DFF8EC1948700220DFF8E41988700020F9
:10056000DFF8DC1988809620DFF8D419C8800120D4
:10057000DFF8CC190872DFF8AC090088DFF8C01981
:100580004881DFF8A809DFF89C1909880C2251433B
:100590000844DFF8AC190C2201F00EFDDFF88409E5
:1005A0000088401CDFF87C190880DFF81007807A8B
:1005B00000282DD01320DFF88C190870DFF8080709
:1005C0000078DFF8801948700120DFF8781988700A
:1005D0003220DFF8701988806420DFF86819C8803D
:1005E0000020DFF860190872DFF84009DFF83419DD
:1005F00009880C2251430844DFF848190C2201F005
:10060000DBFCDFF820090088401CDFF8181908809F
:10061000DFF8A806C07A00282DD01420DFF82819AA
:100620000870DFF8A8060078DFF81C194870012070
:10063000DFF8141988700020DFF80C198880642016
:10064000DFF80419C8800020DFF8FC180872DFF812
:10065000DC08DFF8D01809880C2251430844DFF881
:10066000E8180C2201F0A8FCDFF8B8080088401C4C
:10067000DFF8B0180880DFF84406807900282CD015
:100680000220DFF8C81808706020DFF8C018487032
:100690000220DFF8B81888700020DFF8B0188880D2
:1006A0004FF47A70DFF8A418C8800020DFF89C1897
:1006B0000872DFF87808DFF86C1809880C225143BB
:1006C0000844DFF888180C2201F076FCDFF85408A3
:1006D0000088401CDFF84C180880DFF8E005C0797E
:1006E000002800F089810820DFF8641808700020D5
:1006F000DFF85C1848700920DFF854188870002073
:10070000DFF84C1888804FF4FA70DFF84418C8807E
:10071000DFF8A405006910F44050B0F5005F04D084
:100720000020DFF82C18087203E00120DFF8201801
:100730000872DFF8F0070088DFF814184881DFF846
:10074000EC07DFF8E01709880C2251430844DFF872
:1007500000180C2201F030FCDFF8C8070088401CAC
:10076000DFF8C01708800920DFF8E81708700020BC
:10077000DFF8E01748700E20DFF8D81788700020E7
:10078000DFF8D017888041F2B440DFF8C817C8807E
:100790000120DFF8C0170872DFF888070088DFF84B
:1007A000B4174881DFF88407DFF8781709880C222E
:1007B00051430844DFF89C170C2201F0FDFBDFF8E1
:1007C00064070088401CDFF85C1708800A20DFF807
:1007D000881708700020DFF8801748700F20DFF8B6
:1007E000781788700020DFF8701788804FF4FA704F
:1007F000DFF86417C8800120DFF85C170872DFF8A3
:1008000024070088DFF850174881DFF82007DFF859
:10081000141709880C2251430844DFF83C170C22B6
:1008200001F0CAFBDFF8FC060088401CDFF8F41674
:1008300008800320DFF8241708700020DFF81C1759
:1008400048700420DFF8141788700020DFF80C17B8
:1008500088804FF47A70DFF80417C8800020DFF832
:10086000FC160872DFF8BC060088DFF8F016488135
:10087000DFF8B806DFF8AC1609880C2251430844AB
:10088000DFF8D8160C2201F097FBDFF898060088F5
:10089000401CDFF8901608800420DFF8C4160870AA
:1008A0000020DFF8BC1648700520DFF8B416887009
:1008B0004FF4FA70DFF8A81688804FF47A70DFF8EA
:1008C000A016C8800020DFF898160872DFF85406DA
:1008D0000088DFF88C164881DFF85006DFF84416F0
:1008E00009880C2251430844DFF874160C2201F0E9
:1008F00063FBDFF830060088401CDFF8281608800C
:100900000520DFF8601608700020DFF858164870E0
:100910000C20DFF8501688700020DFF84816888019
:100920006420DFF84016C880E348006910F44050A6
:10093000B0F5805F04D10020DFF82816087203E0CC
:100940000120DFF820160872DFF8D8050088DFF8EC
:1009500014164881DFF8D405DFF8C81509880C2281
:1009600051430844DFF8FC150C2201F025FBDFF8A9
:10097000B4050088401CDFF8AC1508800620DFF8BD
:10098000E81508700020DFF8E01548700D20DFF84A
:10099000D81588703220DFF8D01588806420DFF801
:1009A000C815C880C448006910F44050B0F5805F95
:1009B00004D10020DFF8B015087203E00120DFF851
:1009C000A8150872DFF85C050088DFF89C154881DF
:1009D000DFF85805DFF84C1509880C22514308440C
:1009E000DFF884150C2201F0E7FADFF838050088FB
:1009F000401CDFF830150880B048007A002800F06D
:100A000099800B20DFF8641508700820DFF85C156A
:100A100048700520DFF8541588700020DFF84C1569
:100A2000888041F27C50DFF84415C8800120DFF84F
:100A30003C150872DFF8EC040088DFF830154881B7
:100A4000DFF8E804DFF8DC1409880C22514308447D
:100A5000DFF818150C2201F0AFFADFF8C80400889F
:100A6000401CDFF8C01408800C20DFF80415087063
:100A70000820DFF8FC1448700120DFF8F4148870B7
:100A80000020DFF8EC1488804FF4FA70DFF8E014EF
:100A9000C8800120DFF8D8140872DFF888040088C5
:100AA000DFF8CC144881DFF88404DFF87814098873
:100AB0000C2251430844DFF8B8140C2201F07CFAF0
:100AC000DFF860040088401CDFF8581408800E200E
:100AD000DFF8A01408700820DFF89814487004208C
:100AE000DFF8901488700020DFF8881488804FF4B5
:100AF000AF50DFF88014C8800120DFF87814087246
:100B0000DFF820040088DFF86C144881DFF81C044B
:100B1000DFF8101409880C2251430844DFF85414FC
:100B20000C2201F049FADFF8FC030088401CDFF8D2
:100B3000F413088001BD002108000100DFF8E42360
:100B4000128889B291421CD2DFF8E01380B20C22E5
:100B500002FB00F21144097A012910D0DFF8CC130E
:100B600080B20C2202FB00F211448988491CDFF894
:100B7000BC2380B20C2303FB00F31A449180401C79
:100B8000DBE770473EB5DFF8F0030078002859D165
:100B9000002005002800DFF88C13098880B2884205
:100BA00022D2DFF88803ADB20C2101FB05F1084425
:100BB0008088DFF87813ADB20C2202FB05F21144F5
:100BC000C98888420ED32900C9B2DFF8B00301F00A
:100BD00062FA0020DFF85413ADB20C2202FB05F2DA
:100BE000114488806D1CD5E7DFF8900301F02AFAE4
:100BF000002827D1DFF8840301F065FA0400684675
:100C0000DFF82813E4B20C2202FB04F211440C2298
:100C100001F0D2F9684607C800F015F8C348E4B2FD
:100C20000C2101FB04F1405CC34988700020BF49DE
:100C3000E4B20C2202FB04F2114488800120DFF8A8
:100C40003813087037BD07B59DF80110DFF8300381
:100C500001F021FA9DF80210DFF8240301F01BFADD
:100C6000C74801F004FBC64801F04CFA012240F2EB
:100C70002661C44801F0F2FB07BD80B5AE4880781C
:100C8000152802D0162806D00CE00020FFF78FFBB5
:100C9000FFF710FC09E0FFF70DFC4FF4FA70BA49BA
:100CA000088002E06420B8490880B44801F0ECF9FB
:100CB0000020B649087001BD3C150020481A0020EC
:100CC00008010020140100207C1B0020881B00204C
:100CD000197F0008F8B5AE48008801F02DFC01F03E
:100CE0003BFC5FF06632AB4B01F05EFC0022AA4B8E
:100CF00001F02CFD01F056FE0400A548408801F0EB
:100D00001BFC0700A248808801F016FC06002000AA
:100D1000A24901F08FFE01D200200400280000212A
:100D200001F088FE01D2002005009D4800689D4921
:100D30009D4A127851F8221001F08EFE310001F028
:100D4000FFFE9749086097489749097840F8216065
:100D5000964800689649944A127851F8221001F09A
:100D60007BFE390001F0ECFE9049086090488E4906
:100D7000097840F821708F4800780A2804DA8D48F5
:100D80000078401C8B49087087480078401C8649D1
:100D90000870854800780A2802DB00208249087024
:100DA0008448007801F0C8FB01007D48006801F02C
:100DB00009FF814948607F48007801F0BDFB0100D0
:100DC0007A48006801F0FEFE7B4908607B48456177
:100DD000794840687849886077488068784901F0A8
:100DE0006FFF07D87748007800280AD1032075499B
:100DF000087006E073480078012802D1022071498A
:100E00000870F1BD0D880008F97D0008957E000886
:100E1000F8B50400E4B2200001280CD0042819D051
:100E2000052845D100204149514A52890C235A4393
:100E3000114408723CE03D484E4949890C22514317
:100E40000844C08839494B4A52890C235A431144FB
:100E500088802DE001203549454A52890C235A43A8
:100E600011440872684607003E00574801F02BF90C
:100E70000500554801F027F93070534801F023F977
:100E80007070514801F01FF9B0704F4801F01BF924
:100E9000F0700098494908604848006801F022FF56
:100EA00080B24A49C1F838020120444981F824003F
:100EB000F1BD38B504000D00E4B22000042804D0D0
:100EC00005280CD00C2814D01CE0280001F01CFFD1
:100ED00080B250F070403D49C1F8540212E0280041
:100EE00001F012FF80B250F070403849C1F8700232
:100EF00008E0280001F008FF80B250F0704033494C
:100F0000C1F88C0231BD0000FC0000203048008890
:100F1000002804D02E480088401E2D4908807047C4
:100F2000C4180020C01B00208C1A00209C17002031
:100F3000A41A0020C61B002030190020981A002097
:100F4000101B00201C1B0020281B0020B01A0020B2
:100F5000BC1A0020C81A0020D41A0020E01A002071
:100F6000EC1A0020F81A0020041B0020341B00207B
:100F7000401B00204C1B0020D31B002068190020C0
:100F8000641B002000380140C41B0020DD1B002032
:100F90009C1B002066661A400000B0409A99594098
:100FA000B01B0020DC190020D41B0020B41B002043
:100FB000041A0020D51B0020581B0020B419002063
:100FC00001003445D71B0020701B00206811002051
:100FD000C21B0020F8B5DFF8400D8068C0F3031590
:100FE000DFF8380D01F02EF8002840F0C887DFF850
:100FF000300D0078002801D002F082F9DFF81C0DD6
:1010000001F07CF80400DFF81C0D0088002803D1F3
:10101000DFF8080D01F038F8E4B22000012800F0F4
:101020008D80042879D0052800F01481062800F06E
:10103000CA80072800F0F780092800F096800A2867
:1010400000F0AA80102800F0B586112800F04D822B
:10105000122800F07C82132800F0B683142800F0D8
:10106000E483152800F01284162800F04084172825
:1010700000F06E84182800F09C84192800F0CB82C0
:101080001A2800F096821B2800F0EB801C2800F044
:101090005681202800F0BE84212800F06685222891
:1010A00000F08E85232800F0B685242800F0DE8528
:1010B000252800F00686262800F0FF84272800F067
:1010C000CB84282800F026852B2800F085862C2844
:1010D00000F0C986412800F02583422800F0CD8227
:1010E0004A2800F09E814B2800F0CD81632800F053
:1010F0001687812800F01886F02800F02786FC2843
:1011000000F07C86FD2800F09486FE2800F0BD8665
:10111000FF2800F0DF8600F009BF41F27C50DFF8C5
:10112000881CDFF8882C52890C235A43114488808C
:10113000DFF8E80B00F0C7FF00F021BFDFF8700C0C
:1011400090F8610300280ED0DFF8640CD0F850034B
:10115000002808D1DFF8C40B00F0B5FF0320DFF84A
:10116000501CC1F8500300F00ABFDFF8440C90F89F
:10117000610300280ED0DFF8380CD0F850030028A7
:1011800008D1DFF8980B00F09EFF0120DFF8201C4B
:10119000C1F8500300F0F3BEDFF8140C90F86103BF
:1011A00000280ED0DFF8080CD0F85003002808D132
:1011B000DFF8680B00F087FF0220DFF8F41BC1F8AE
:1011C000500300F0DCBEDFF8500B007A000715D5A5
:1011D000DFF8DC0B90F86103002824D0DFF8D00B97
:1011E000D0F8500300281ED1DFF8300B00F06BFF61
:1011F0000320DFF8BC1BC1F8500314E0DFF8B00B8C
:1012000090F8610300280ED0DFF8A40BD0F850034B
:10121000002808D1DFF8040B00F055FF0F20DFF89D
:10122000901BC1F85003DFF8880B90F86103002889
:101230000ED0DFF87C0BD0F85003002808D1DFF87F
:10124000DC0A00F040FF0C20DFF8641BC1F85003FB
:1012500000F095BE0C20DFF8581BC1F8500300F0D9
:101260008EBEDFF8B40A007A000707D4EDB2002D75
:1012700004D0DFF8B40C007CC00615D4DFF8300BC6
:1012800090F86103002858D0DFF8240BD0F8500301
:10129000002852D1DFF8840A00F0F6FE0120DFF8C2
:1012A000101BC1F8500348E0DFF8040BD0F83802F7
:1012B000002842D1DFF8F80A90F8490200283CD013
:1012C000DFF8BC0C006801F00DFD06003220B11BF8
:1012D000B6FBF0F200FB021010F13206B6F57A7F91
:1012E00002D94FF47A7006000120DFF8C41A81F8A1
:1012F0004802B0B2DFF8B81AC1F83802DFF8B00A15
:10130000D0F83802000509D1DFF8A40AD0F8380275
:1013100050F00100DFF8981AC1F83802300001F0EF
:101320000BF9DFF85C1C08600120DFF8541C81F821
:101330002400DFF8E80900F0A7FE00F020BEDFF887
:10134000D809007A000707D4EDB2002D04D0DFF8E9
:10135000D80B007CC00615D4DFF8540A90F861035E
:1013600000285CD0DFF8480AD0F85003002856D196
:10137000DFF8A80900F088FE0220DFF8341AC1F86F
:1013800050034CE0DFF8280AD0F83802002846D194
:10139000DFF81C0A90F84902002840D0DFF8E00B83
:1013A000006801F09FFC06003220B11BB6FBF0F292
:1013B00000FB0210B0F13206642E01D26420060058
:1013C0000120DFF8EC1981F84802DFF8B40B00685F
:1013D00001F088FC0005000DDFF8D419C1F83802CF
:1013E000DFF8CC09D0F83802000509D1DFF8C009D0
:1013F000D0F8380250F00100DFF8B419C1F8380213
:10140000300001F099F8DFF8781B08600120DFF860
:10141000701B81F82400DFF8040900F035FE00F0AD
:10142000AEBDDFF8F408007A000715D5DFF88009B3
:1014300090F86103002824D0DFF87409D0F8500335
:1014400000281ED1DFF8D40800F01EFE0120DFF8CE
:101450006019C1F8500314E0DFF8540990F86103F3
:1014600000280ED0DFF84809D0F85003002808D132
:10147000DFF8A80800F008FE0820DFF83419C1F8EA
:10148000500300F07CBDDFF89008007A000715D506
:10149000DFF81C0990F86103002824D0DFF8100958
:1014A000D0F8500300281ED1DFF8700800F0ECFDE2
:1014B0000220DFF8FC18C1F8500314E0DFF8F00850
:1014C00090F8610300280ED0DFF8E408D0F850034C
:1014D000002808D1DFF8440800F0D6FD0920DFF825
:1014E000D018C1F8500300F04ABDDFF82C08007A8C
:1014F000000715D5DFF8B80890F86103002824D05C
:10150000DFF8AC08D0F8500300281ED1DFF80C0833
:1015100000F0BAFD0220DFF89818C1F8500314E07B
:10152000DFF88C0890F8610300280ED0DFF88008FF
:10153000D0F85003002808D1DFF8E00700F0C3FD21
:101540001120DFF86C18C1F8500300F018BDDFF867
:10155000C807007A000715D5DFF8540890F8610332
:10156000002824D0DFF84808D0F8500300281ED106
:10157000DFF8A80700F088FD0120DFF83418C1F873
:10158000500314E0DFF8280890F8610300280ED01B
:10159000DFF81C08D0F85003002808D1DFF87C07DA
:1015A00000F091FD1220DFF80818C1F8500300F098
:1015B000E6BCDFF86407007A000715D5DFF8F0070E
:1015C00090F86103002824D0DFF8E407D0F8500336
:1015D00000281ED1DFF8440700F056FD0220DFF896
:1015E000D017C1F8500314E0DFF8C40790F8610386
:1015F00000280ED0DFF8B807D0F85003002808D133
:10160000DFF8180700F05FFD1A20DFF8A417C1F813
:10161000500300F0B4BCDFF80007007A000715D5CE
:10162000DFF88C0790F86103002824D0DFF88007EA
:10163000D0F8500300281ED1DFF8E00600F024FDAA
:101640000120DFF86C17C1F8500314E0DFF86007E1
:1016500090F8610300280ED0DFF85407D0F850034B
:10166000002808D1DFF8B40600F02DFD1920DFF8BE
:101670004017C1F8500300F082BCDFF89C06007AE6
:10168000000715D5DFF8280790F86103002847D038
:10169000DFF81C07D0F85003002841D1DFF87C06A2
:1016A00000F0F2FC0220DFF80817C1F8500337E021
:1016B000DFF8D00890F9000010F10E0F2CDBDFF8F6
:1016C000C8080088002827D1DFF8B8080078401E35
:1016D000DFF8B0180870DFF8D80690F8610300282A
:1016E00014D0DFF8CC06D0F8500300280ED1DFF874
:1016F0002C0600F0C9FCDFF88C08007800F0FF0031
:1017000050F48600DFF8A816C1F850034FF4967025
:10171000DFF87418088003E0DFF8000600F0B4FC7E
:1017200000F02DBCDFF8F005007A000715D5DFF8D2
:10173000800690F86103002845D0DFF87406D0F8E1
:10174000500300283FD1DFF8D40500F09DFC0220B3
:10175000DFF85C16C1F8500335E0DFF8280890F98F
:1017600000000F282BDADFF820080088002826D197
:10177000DFF810080078401CDFF808180870DFF860
:10178000300690F86103002813D0DFF82406D0F863
:10179000500300280DD1DFF8840500F075FCDFF858
:1017A000E40790F9000050F48600DFF80416C1F851
:1017B00050034FF49670DFF8D017088003E0DFF88D
:1017C0005C0500F061FCDAE3DFF84C05007A000705
:1017D00015D5DFF8DC0590F86103002824D0DFF888
:1017E000D005D0F8500300281ED1DFF8300500F0F6
:1017F0004BFC0220DFF8B815C1F8500314E0DFF805
:10180000B00590F8610300280ED0DFF8A405D0F8E9
:101810005003002808D1DFF8040500F054FC132021
:10182000DFF88C15C1F85003A9E3DFF8EC04007A67
:10183000000715D5DFF8780590F86103002824D05B
:10184000DFF86C05D0F8500300281ED1DFF8CC0477
:1018500000F01AFC0120DFF85815C1F8500314E01D
:10186000DFF84C0590F8610300280ED0DFF8400542
:10187000D0F85003002808D1DFF8A00400F023FCC2
:101880001420DFF82C15C1F8500378E3DFF8880442
:10189000007A000715D5DFF8180590F861030028D5
:1018A00024D0DFF80C05D0F8500300281ED1DFF853
:1018B0006C0400F0E9FB0220DFF8F414C1F85003D7
:1018C00014E0DFF8EC0490F8610300280ED0DFF894
:1018D000E004D0F85003002808D1DFF8400400F0FD
:1018E000F2FB1520DFF8C814C1F8500347E3DFF816
:1018F0002804007A000715D5DFF8B40490F86103D6
:10190000002824D0DFF8A804D0F8500300281ED106
:10191000DFF8080400F0B8FB0120DFF89414C1F8E8
:10192000500314E0DFF8880490F8610300280ED01B
:10193000DFF87C04D0F85003002808D1DFF8DC037E
:1019400000F0C1FB1620DFF86814C1F8500316E35D
:10195000DFF8C403007A000715D5DFF8540490F8C7
:101960006103002824D0DFF84804D0F85003002891
:101970001ED1DFF8A80300F087FB0120DFF8301448
:10198000C1F8500314E0DFF8280490F86103002840
:101990000ED0DFF81C04D0F85003002808D1DFF87F
:1019A0007C0300F090FB1720DFF80414C1F850030B
:1019B000E5E2DFF86403007A000715D5DFF8F003ED
:1019C00090F86103002824D0DFF8E403D0F8500336
:1019D00000281ED1DFF8440300F056FB0220DFF898
:1019E000D013C1F8500314E0DFF8C40390F861038A
:1019F00000280ED0DFF8B803D0F85003002808D133
:101A0000DFF8180300F05FFB1820DFF8A413C1F81B
:101A10005003B4E2DFF80003007A000718D4DFF8BF
:101A2000900390F8610300280ED0DFF88403D0F80B
:101A30005003002808D1DFF8E40200F044FB202026
:101A4000DFF86C13C1F850032020B349087302E09B
:101A5000B24800F038FB92E2AF48007A000714D594
:101A6000DFF84C0390F86103002825D0DFF840032D
:101A7000D0F8500300281FD1A84800F024FB032011
:101A8000DFF82C13C1F8500316E0DFF8240390F8B8
:101A9000610300280DD0DFF81803D0F850030028A8
:101AA00007D19E4800F00FFB2720DFF80413C1F890
:101AB000500327209849087361E29748007A00078D
:101AC00013D5DFF8EC0290F86103002821D0DFF88D
:101AD000E002D0F8500300281BD1904800F0F3FA40
:101AE0000320B349C1F8500313E0B14890F86103F3
:101AF00000280BD0AE48D0F85003002806D1874804
:101B000000F0E1FA2620AA49C1F8500326208249B4
:101B1000087334E28048007A000711D5A44890F891
:101B20006103002820D0A248D0F8500300281BD120
:101B30007A4800F0C8FA03209D49C1F8500313E029
:101B40009B4890F8610300280BD09948D0F85003C7
:101B5000002806D1714800F0B6FA28209449C1F84F
:101B6000500328206C49087309E26B48007A00078B
:101B700011D58F4890F86103002820D08C48D0F808
:101B8000500300281BD1654800F09DFA03208849C6
:101B9000C1F8500313E0864890F8610300280BD089
:101BA0008348D0F85003002806D15C4800F08BFA37
:101BB00021207F49C1F85003212057490873DEE1F5
:101BC0005548007A000711D5794890F8610300283C
:101BD00020D07748D0F8500300281BD14F4800F0A0
:101BE00072FA03207249C1F8500313E0704890F86C
:101BF000610300280BD06E48D0F85003002806D1AE
:101C0000464800F060FA22206949C1F850032220BA
:101C100041490873B3E14048007A000711D5644890
:101C200090F86103002820D06148D0F850030028C4
:101C30001BD13A4800F047FA03205D49C1F8500330
:101C400013E05B4890F8610300280BD05848D0F8A7
:101C50005003002806D1314800F035FA23205449BA
:101C6000C1F8500323202C49087388E12A48007AE0
:101C7000000711D54E4890F86103002820D04C4849
:101C8000D0F8500300281BD1244800F01CFA032090
:101C90004749C1F8500313E0454890F86103002814
:101CA0000BD04348D0F85003002806D11B4800F061
:101CB0000AFA24203E49C1F850032420164908732B
:101CC0005DE11548007A000711D5394890F86103A5
:101CD000002820D03648D0F8500300281BD10F48E8
:101CE00000F0F1F903203249C1F8500313E0304805
:101CF00090F8610300280BD02D48D0F8500300283D
:101D000006D1064800F0DFF925202949C1F8500323
:101D100025200149087332E12C1A0020B418002054
:101D200060010020CA1B0020214890F861030028B0
:101D30000BD01F48D0F85003002806D1934800F07C
:101D4000C2F907201A49C1F8500318E19048007AF7
:101D5000000711D5164890F86103002823D01448D5
:101D6000D0F8500300281ED1884800F0ACF90720B5
:101D70000F49C1F8500316E0844800F085F9854802
:101D8000807800280FD096200749834A52890C2377
:101D90005A4311448880002003497F4A52890C230A
:101DA0005A4311440872EAE09C170020341B0020BB
:101DB00068110020794890F8610300280BD077481B
:101DC000D0F85003002806D1704800F07CF91020AC
:101DD0007249C1F85003D2E0704890F861030028BE
:101DE0000BD06E48D0F85003002806D1674800F0A9
:101DF0006AF92B206949C1F85003C0E0002060490E
:101E000081F82600614800F03FF95D484068644968
:101E100000F010FE0CD25A4841685FF07E5000F08E
:101E20008FFE57494860564841680420FFF741F843
:101E3000A5E00020524981F82600544800F024F91A
:101E40004F484068574900F03BFF0BD84C48416869
:101E5000554800F075FE4A494860494841680420E9
:101E6000FFF727F88BE04D4890F8610300280BD06E
:101E70004A48D0F85003002806D1444800F023F91E
:101E80002C204649C1F8500379E000203C4981F8F4
:101E900027003E4800F0F8F839488068434900F0D0
:101EA000C9FD16D23648806800F02EFF07000A20D0
:101EB00017F10A01C91B97FBF0F200FB021738006B
:101EC00000F030FB2E4988602D4881680520FEF720
:101ED000F0FF54E02D4800F0D7F80020284981F8A1
:101EE000270027488068324900F0EAFE16D82448C7
:101EF000806800F009FF07000A20B7F10A01C91B3A
:101F000097FBF0F200FB0217380000F00BFB1C49B6
:101F100088601B4881680520FEF7CBFF2FE01B4837
:101F200000F0B2F82BE000BF3C1500201848007A02
:101F3000000711D5194890F8610300281FD01748F1
:101F4000D0F8500300281AD1104800F0BCF8032044
:101F50001249C1F8500312E0104890F861030028BC
:101F60000BD00E48D0F85003002806D1074800F0E7
:101F7000AAF8E4B20948C0F8504305480473F1BD1B
:101F8000B4190020D61B0020C81B0020B418002064
:101F90002C1A0020481A0020101B00206811002075
:101FA00000004842FFFF47C2000080BF0080774426
:101FB000010048437047000062B38B0708D0521EEF
:101FC00011F8013B00F8013B00F024808B07F6D1AB
:101FD000830740F0208000BF103A07D330B4B1E847
:101FE0003810103AA0E83810F9D230BC530724BF9B
:101FF000B1E80810A0E8081044BF51F8043B40F8CD
:10200000043BD20724BF31F8022B20F8022B44BF37
:102010000B7803707047083A07D3B1E80810083A04
:1020200040F8043B40F804CBF7D25307E4E71170C3
:10203000506000231372137A5372012393720023AA
:10204000D3727047807A7047C07A704701008A7AED
:10205000002A02D00022100014E0CA7A002A02D01E
:102060000A7810000EE00A7A4B7A9A4204D24A7A31
:102070000B7AD21A100005E00A784B7A9A180B7A7C
:10208000D21A1000C0B27047417A017201218172E8
:102090000021C1727047C27A002A13D1427A531CC0
:1020A00043724368D2B29954427A03789A4201D378
:1020B00000224272427A037A9A4201D10122C2720C
:1020C00000228272704701008A7A002A14D10A7AAB
:1020D000531C0B724B68D2B29A5C10000A7A0B78D0
:1020E0009A4201D300220A724A7A0B7A9A4201D1AB
:1020F00001228A720022CA72C0B270474168007A17
:10210000085C7047F8B504002000FFF79FFF060049
:1021100024212000FFF7BFFF002007003800310016
:10212000C0B2C9B2884219D22000FFF7CCFF050027
:10213000EDB2242D05D0EDB22F2D02D0EDB23B2D06
:1021400005D12F212000FFF7A6FFEDB2ED432900B6
:10215000C9B22000FFF79FFF7F1CDFE73B21200073
:10216000FFF799FFF1BDF8B504002000FFF76EFFFF
:1021700005000020060030002900C0B2C9B2884224
:102180001AD22000FFF79FFF0700FFB2242F11D0C3
:10219000FFB23B2F0ED0FFB22F2F06D12000FFF74A
:1021A00092FF0700FFB2FF436D1E3900C9B2200045
:1021B000FFF771FF761CDEE7F1BD2DE9F047040063
:1021C0005FF000092000FFF741FF06000020824673
:1021D00050463100C0B2C9B288422AD22000FFF76F
:1021E00072FF05002900C9B22000FFF754FF95EAED
:1021F0000909002080465FFA88F8B8F1080F15DA5F
:1022000019F001000700FFB2002F08D099F018095B
:102210005FFA89F95FEA590050F0800903E05FFA3C
:1022200089F95FEA590918F10108E4E71AF1010A8E
:10223000CEE74846C0B2BDE8F08738B504002000BC
:10224000FFF7BBFF0500EDB2002D0BD1607A00282F
:1022500003D12078401E607202E0607A401E6072F6
:10226000012003E02000FFF70FFF002032BD70B512
:1022700004002000FFF7EAFE05002078EDB2B0EB85
:10228000450F0ADB2000FFF798FF06003100C9B2B6
:102290002000FFF700FF012000E0002070BD0000DB
:1022A00010B504005C4884420AD101214FF48040FB
:1022B00001F044FE00214FF4804001F03FFE36E083
:1022C000564884420AD101215FF4003001F045FEF6
:1022D00000215FF4003001F040FE28E050488442C5
:1022E0000AD101215FF4802001F037FE00215FF464
:1022F000802001F032FE1AE04A4884420AD10121CE
:102300005FF4002001F029FE00215FF4002001F0BD
:1023100024FE0CE04448844209D101215FF480107E
:1023200001F01BFE00215FF4801001F016FE10BDCD
:102330002DE9F04385B004000D005FF00009002690
:1023400000275FF00008A8890028208A814639F418
:102350004059E88850EA0909A4F81090A0898146FC
:10236000324810EA0909A88829890843698908437D
:1023700050EA0909A4F80C90A08A814639F4407902
:10238000A88950EA0909A4F81490684601F022FDD2
:102390002148844202D10398060001E00298060019
:1023A000A089000408D5192000FB06F0296849001F
:1023B000B0FBF1F0070007E0192000FB06F02968E8
:1023C0008900B0FBF1F007006420B7FBF0F00001DA
:1023D00081465FEA1910642101FB10708046A089D4
:1023E00000040AD55FEAC80032306421B0FBF1F086
:1023F00010F0070050EA090909E05FEA08103230DE
:102400006421B0FBF1F010F00F0050EA0909A4F8C4
:10241000089005B0BDE8F08300380140004400405A
:1024200000480040004C004000500040F3E9FFFF2E
:10243000C9B2002904D0828952F40052828104E09A
:1024400082894DF6FF731A4082817047CA05D20D0A
:10245000828070478088C005C00D7047F0B40023AB
:1024600000240025002689B240F66A17B94206000A
:102470000F00FFB27F09FFB23B0089B211F01F07C6
:102480003C000127A7403D00012B01D10C3604E0A0
:10249000022B01D1103600E01436D2B2002A03D04C
:1024A00037682F43376002E03768AF433760F0BCCE
:1024B000704770B40300002400260025002089B274
:1024C00040F66A1291420A00D2B25209D2B2150005
:1024D00089B211F01F021600012212FA06F6012D30
:1024E00002D19A89164006E0022D02D11A8A1640BE
:1024F00001E09A8A16400A0092B2120A92B21400BF
:10250000012212FA04F41A881440002E04D0002C80
:1025100002D00122100001E000221000C0B270BC05
:1025200070470000002840F10980F446404200F066
:1025300005F850F000406047002800BF0AD0B0FA0C
:1025400080F18840D1F19D01C905020672F1004277
:1025500041EB1020704700005FF0FF0C1CEAD051E7
:1025600014BF614506E0C110400721F0E04101F1D0
:102570006051704779B900F0004100020AD0B0FA0A
:1025800080FC00FA0CF001F16051A1EB0C5101EB61
:10259000D0214005704741020CBF40F4E0016FF0CC
:1025A0000001002070470000B0B581EA030C0CF078
:1025B000004C40F2FF7515EA11541DBF15EA135780
:1025C000AC42AF4239E0E41923EA455343F48013A7
:1025D000C90241F0004141EA505EC7021100A7FB69
:1025E000020200284FF00000EEFB01204FF0000136
:1025F000E3FB072118BF42F00102401800214941C6
:10260000E3FB0E01A4F580640F0302D252004041A7
:10261000494154F101046CDD470872F1004250F168
:10262000000051EB0451A1F580115CBF41EA0C019F
:10263000B0BD4CEA05510020B0BD05EA1357AC42CD
:1026400014BFAF4241E050EA410E1CBF52EA430EB4
:1026500002E061460020B0BD24423C441BD15FEA49
:10266000070EF6D0090302BF01460020AEF1140E9A
:10267000B1FA81F7AEEB070401FA07FE0C37C7F198
:10268000200100FA07F7C8404EEA000E23EA45533E
:1026900043F48013A2E733F00043B3FA83F704BF97
:1026A000B2FA82FE77440B3FE41BB7F1200E2FBF36
:1026B00002FA0EF3BB40C7F1200E22FA0EFE38BF1D
:1026C00043EA0E03BA40641C82E750EA410E14BF8D
:1026D00052EA430E6FF000014FF4001717EB430F5F
:1026E0008ABF194617EB410FB5E74CEA05510020A8
:1026F000B0BDD4F10104B4F120070FDAC4F1200712
:10270000520828BF42F0010210FA07F501FA07F754
:10271000E1BF2A43E0403843E1400FE0352C98DC2C
:10272000C7F1200452EA400220FA07F218BF42F033
:10273000010231FA07F0A1400A43002172F1004280
:1027400050F1000051EB0C01B0BD00002DE9F0414B
:1027500040F2FF7581EA030C0CF0004C15EA1154AD
:102760001DBF15EA1357AC42AF42E9E0BC41C1F3CB
:102770001301C3F31303801A994143F4801304D265
:10278000641E4000494180185941C90241EA505134
:10279000B1FBF3F603FB1611A2FB0675D7EBC020C5
:1027A000A94102D2761E80185941C90241EA50510E
:1027B000B1FBF3FE03FB1E11A2FB0E75D7EBC0208D
:1027C000A94103D2AEF1010E80185941890241EAB4
:1027D0009051760546EA8E2EB1FBF3F603FB1611F7
:1027E000A2FB0675D7EB8020A94102D2761E801885
:1027F0005941C90241EA50514EEA060EB1FBF3F6C7
:1028000003FB1611A2FB0675D7EBC020A94102D22B
:10281000761E80185941C90241EA5051B1FBF3F7C5
:1028200003FB1711A2FB0735D3EBC020A94167F1C9
:1028300000070CBF004247F0010766F3D5274FEAB7
:102840001E31B80814F5806414DDBD0775F100422F
:1028500050EB0E5051EB045111F5801F5CBF41EA63
:102860000C01BDE8F0814CF07F6141F0E0410020B7
:10287000BDE8F081BD076D0840EA0E5041F48011BB
:10288000D4F10104B4F120060ADAC4F120060200F2
:10289000E04001FA06F3E1401843B24015430EE070
:1028A000342C14DCC6F1200445EA40056D0820FAFA
:1028B00006F2154321FA06F0A1400D43002175F1FF
:1028C000004250F1000051EB0C01BDE8F081002006
:1028D0005FEA0C01BDE8F081CFB992185B41B3FA11
:1028E00083F704BFB2FA82F6BF190B3FB7F1200697
:1028F0002FBF02FA06F3BB40C7F1200622FA06F604
:1029000038BF3343BA401CB1E419641E2FE77F423D
:1029100031F00041B1FA81F404BFB0FA80F6A41995
:102920000B3CB4F120062FBF00FA06F1A140C4F120
:10293000200620FA06F638BF3143A0403C1B16E7BC
:10294000AC421ABF05EA1357AF4214E050EA410601
:102950001CBF52EA4306BFE750EA410730466146D2
:102960001CBF41EA0551BDE8F08152EA430C08BFA3
:10297000C143BDE8F08100204FF4001616EB410F73
:1029800098BF16EB430F08BF16EB410F24BFC1439E
:1029900005E016EB430F0CBF61464CEA0551BDE85C
:1029A000F08100004FEAF17CBCF1E04C2CBFBCF59B
:1029B000001F11E05FEA4C0C34BFBCF17F5F2EE0DA
:1029C0005FEA9C0C4FEA0C1C4FEA3C0CC10071F111
:1029D00000414CEB50707047C90241EA5051C002AF
:1029E00018BF41F0010141F000414FEA6C50C0F1C5
:1029F0000900212810D240EACC7CCCF1200C11FA3D
:102A00000CF070F10040CCF1200C21FA0CF00CF02D
:102A1000004C40EB0C0070474FEACC707047490007
:102A200011F5001F04D84FEACC10FF30C0057047E5
:102A3000C81770474FF0807C1CEB400F94BF1CEB15
:102A4000410F05E040EA010C5FEA4C0C01D28842DC
:102A5000704718BF8142704790EA010F44BF81F070
:102A6000004100F075B800BF431A4FF000423EBF6E
:102A70005340C01AC91800BFD3095FEAD05C13EBFA
:102A8000400F34BFB3EB410F40E07CEBD1530CD38C
:102A900042EA012122D8D1EB402009D3400A28BFC5
:102AA0005FEA500140EBCC507047401A15D040020D
:102AB000B0FA80F2521C9040400A4FEA3C23B3EB3C
:102AC000026384BF00EB730007E040F400001A16B5
:102AD000DB07C2F10102D04018437047182BFCDC21
:102AE00031FA03F202FA03F3591A38BF42F0010235
:102AF000D2EB40203CBF4000ACF1010C5FEACC5C63
:102B0000C20572F100414CEB5020704713EB400FAF
:102B10000FD24B0009D0ACEBD153022B03DB49029F
:102B2000172BDDDD70479143401A4300D5D10020BB
:102B3000704713EB410FD0D36FF0000070470000D7
:102B400090EA010F44BF81F00041FFF78DBF00BF45
:102B5000421A3CBF801A89184FF0004CC0F3C7528C
:102B6000FF2A24D0C1F3C75313B3D21AD2F11903E9
:102B700027DD4CEA01214CFA03F321EA0303D1409B
:102B8000C20D4CEA0020401834BF20EA0C004CEA89
:102B90005000D20553EA006373EB0C0C52EB10208B
:102BA000420012F1807F38BF7047C00DC0057047EA
:102BB000490212BF9A4200EB5120F8E7D2F1170305
:102BC000D9D5704710B5FF2313EAD0541DBF13EABF
:102BD000D1529C429A4239E0A41ADA0780EA0103F2
:102BE000134042EA012142EA0020421A3CBF641E1F
:102BF00001EB4202090AB2FBF1FE01FB1E221202A6
:102C0000B2FBF1F001FB10226EF30F201202B2FBB7
:102C1000F1FE4EEA00207F3406DDFE2C24DA53EA72
:102C2000500050EBC45010BDD4F1020401FB1E2231
:102C300040F08071192C1DDC21FA04F0C4F120044D
:102C4000A140114371F10042584110BD9C421ABF8E
:102C500003EAD1529A420FE080EA010E0EF00043DF
:102C6000400004D0490016D143F0FF4010BD490098
:102C700008BFD343180010BD9C4205D1D21AF7D02B
:102C800001F00041484010BD4A0212BF08464840CA
:102C900000F0004010BD4AB90902B1FA81F291403A
:102CA00044B1A418C00140F000409EE7C90141F0C2
:102CB000004152420002B0FA80F4A040141B94E795
:102CC0004FF0807C1CEB400F94BF1CEB410F05E0E4
:102CD00040EA010C5FEA4C0C01D28142704718BFF8
:102CE0008842704740000DD2010E7F390AD4D1F1DD
:102CF0001F0104D4C00140F00040C84070477FF07D
:102D000000007047002070474100090E7F3915D43C
:102D1000D1F11F0114D4400007D2C00140F000409F
:102D2000C84048BF6FF000407047C00140F000400D
:102D3000C8404CBF4FF000404042704700207047F1
:102D400000424FF0004058BFC0437047DFF89C0777
:102D50000088002800D172B6DFF890070088401C78
:102D6000DFF8881708807047DFF880070088401E6A
:102D7000DFF878170880DFF874070088002800D192
:102D800062B6704780B50020DFF864170870222013
:102D9000DFF8601708700020DFF85817486000203F
:102DA000DFF8501788760020DFF84817487664204F
:102DB000DFF8401708610020DFF83817486101206C
:102DC000DFF8301708760020DFF82C170870012094
:102DD000DFF8241708760120DFF81C170877012098
:102DE000DFF8141781F834000220DFF80C1781F89F
:102DF00038000120DFF8001781F850000320DFF8C9
:102E0000F81681F854000120DFF8EC1681F86C0008
:102E10000420DFF8E41681F870000120DFF8D816EE
:102E200081F888000520DFF8D01681F88C0000209A
:102E3000DFF8C41681F8A4000620DFF8BC1681F87C
:102E4000A8000020DFF8B01681F8C0000720DFF8E6
:102E5000A81681F8C4000120DFF89C1681F8DC0078
:102E60000820DFF8941681F8E0000120DFF88816CA
:102E700081F8F8000920DFF8801681F8FC000120B5
:102E8000DFF8741681F814010A20DFF86C1681F857
:102E900018010120DFF8601681F830010B20DFF8FF
:102EA000581681F834010120DFF84C1681F84C01E6
:102EB0000C20DFF8441681F850010020DFF83816A6
:102EC00081F868010D20DFF8301681F86C010020D0
:102ED000DFF8241681F884010E20DFF81C1681F833
:102EE00088010020DFF8101681F8A0010F20DFF81C
:102EF000081681F8A4010020DFF8FC1581F8BC0158
:102F00001020DFF8F41581F8C0010120DFF8E81582
:102F100081F8D8011120DFF8E01581F8DC010120EB
:102F2000DFF8D41581F8F4011220DFF8CC1581F810
:102F3000F8010020DFF8C01581F810021320DFF837
:102F4000B81581F814020020DFF8AC1581F82C02C6
:102F50001420DFF8A41581F830020120DFF898155D
:102F600081F848021520DFF8901581F84C02012005
:102F7000DFF8841581F864021620DFF87C1581F8EB
:102F800068020120DFF8701581F880021720DFF851
:102F9000681581F884020120DFF85C1581F89C0235
:102FA0001E20DFF8541581F848030120DFF848158A
:102FB00081F8600300200100DFF838251278C9B2DB
:102FC000914213D20121DFF83025C0B21C2303FB4C
:102FD00000F31A4451760021DFF81C25C0B21C23EF
:102FE00003FB00F31A449176401CE4E70120DFF86C
:102FF00014160870DFF82C08FFF746F801BD70B50D
:103000000024DFF8EC0400780600DFF8E80400692B
:10301000002840F0E280DFF8DC04407E002800F069
:10302000DC80202000F0B4F9DFF8C81448600020EC
:103030000500EDB2202D80F2C880DFF8B8044068AA
:10304000E840C00740F19380DFF8AC04EDB21C21EA
:1030500001FB05F1405C00F09BF9DFF89C14EDB238
:103060001C2202FB05F211444860DFF88C04EDB22B
:103070001C2101FB05F108444068DFF87C14EDB227
:103080001C2202FB05F21144496988422CD0DFF86A
:103090006804EDB21C2101FB05F10844007E002804
:1030A00022D0EDB2112D02DBEDB21E2D03D1002096
:1030B000DFF8DC1B4882DFF84004EDB21C2101FB85
:1030C00005F108444069DFF83014EDB21C2202FB20
:1030D00005F2114488600120DFF81C14EDB21C22B7
:1030E00002FB05F211444876EDB21E2D1AD10120E3
:1030F000DFF8581681F82400DFF8FC03EDB21C213C
:1031000001FB05F1084440690C280BD1DFF8E4030A
:10311000007A000706D5DFF8DC03007BDFF8D81360
:10312000C1F85003EDB2112D06D1DFF8E40B0078A1
:10313000002801D100F00CFBDFF8BC03EDB21C212C
:1031400001FB05F10844007E00283CD00120DFF897
:10315000A813EDB21C2202FB05F211444876EDB231
:103160001E2D30D10020DFF88C1348762BE0DFF8DD
:103170008803EDB21C2101FB05F10844407E0028C4
:1031800010D1DFF87403EDB21C2101FB05F10844F6
:10319000807E401CDFF86013EDB21C2202FB05F2BA
:1031A00011448876DFF85003EDB21C2101FB05F1D4
:1031B0000844807E0B2806DB0120DFF8901581F89B
:1031C0002400FFF7DFFD6D1C33E70020DFF8441B10
:1031D00048606420DFF83C1B08610020C449087087
:1031E000E4B2002C40F08B80C348C14909781C220E
:1031F000514308448068002871D0BF48BC49097811
:103200001C2251430844407E002868D0012004005D
:10321000B7480078152813DBB548007818280FDA6E
:10322000B548B34909781C2251430844806820F00E
:103230007040B149AE4A12781C235A431144886049
:103240000020AD49AA4A12781C235A4311444876FB
:10325000A948A74909781C22514308448168A64817
:10326000A34A12781C235A43805C50F08000C0B2FD
:1032700000F0D0F8A0489E4909781C225143084428
:1032800000699D499A4A12781C235A431144C86028
:103290009948974909781C22514308448068964907
:1032A000934A12781C235A4311444861904800788D
:1032B0001E280CD190488E4909781C22514308449D
:1032C0008068322803D10020DFF8781508700020CC
:1032D0008949874A12781C235A43114488608448DC
:1032E0000078401C82490870DFF8280A007880497D
:1032F00009788842BFF474AF0120040070E770BD04
:1033000080B5122000F044F87A49886079488068D6
:10331000DFF8041A086001BD7649497E002908D00B
:1033200074490969002904D072490969491E714A22
:10333000116170494969002904D06E494969491EE3
:103340006C4A51610021080001006A4A1278C9B232
:1033500091421CD2DFF8C419C0B21C2202FB00F259
:103360001144C968002910D0DFF8B019C0B21C227E
:1033700002FB00F21144C968491EDFF8A029C0B25F
:103380001C2303FB00F31A44D160401CDCE77047A8
:10339000F8B504000025FFF7D9FC4FF48051DFF8A1
:1033A000B00400F059FEE4B2210089B2DFF89C04B9
:1033B00000F0B2FE0221DFF8940400F0AFFE002816
:1033C000F8D0DFF8880400F0A5FE00200600F6B271
:1033D000042E15DA0021DFF8740400F09DFE0221AE
:1033E000DFF8680400F09AFE0028F8D0DFF85C04EB
:1033F00000F090FE0700FFB257EA0525761CE6E7CD
:103400004FF48051DFF8480400F024FEFFF7ACFCD5
:103410002800F2BDF8B504000D000027FFF796FC68
:103420004FF48051DFF8280400F016FEE4B254F0A7
:10343000800189B2DFF8140400F06EFE0221DFF88B
:103440000C0400F06BFE0028F8D0280E0600F6B23F
:10345000310089B2DFF8F40300F05EFE0221DFF8EC
:10346000EC0300F05BFE0028F8D0280C0600F6B252
:10347000310089B2DFF8D40300F04EFE0221DFF8FC
:10348000CC0300F04BFE0028F8D0280A0600F6B264
:10349000310089B2DFF8B40300F03EFE0221DFF80C
:1034A000AC0300F03BFE0028F8D028000600F6B27E
:1034B000310089B2DFF8940300F02EFE0221DFF81C
:1034C0008C0300F02BFE0028F8D0FFF74DFC4FF4E2
:1034D0008051DFF87C0300F0BDFD0020DFF83418D8
:1034E00008760120DFF82C184876F1BDBC1B0020BF
:1034F000CE1B00202C1A0020681100202DE9F04F6F
:1035000085B005000E0017009846DDF838900F9C36
:10351000DDF840A0EDB2102D03D108208DF8040095
:1035200002E008208DF80400BAF1E04F5DD2E4B269
:10353000002C03D05AF00440029002E05AF0806060
:1035400002909DF80400FEF7F7FF390000F0F2FD4D
:10355000BD49896800F0EEFD0090BB48C168DFF806
:10356000C00700F0E7FD494600F0E4FD01000098C7
:10357000FFF728FB03909DF80400FEF7DDFF310004
:1035800000F0D8FDB049896800F0D4FD0090AE4845
:10359000C168DFF88C0700F0CDFD494600F0CAFD98
:1035A00001000098FFF70EFB8346029800905846F2
:1035B000FFF798FBC104C90C009851EA000B03986F
:1035C000FFF790FB1FFA88F818EB0000DFF854179C
:1035D00011EA403050EA0B00DFF84017EDB21C2230
:1035E00002FB05F21144886009E05FF00040DFF85B
:1035F0002C17EDB21C2202FB05F21144886005B0C5
:10360000BDE8F08FCF1B002080B5DFF81C07DFF886
:1036100080168860DFF81407DFF8741648605FF0E2
:103620007E50DFF86C16C8608748007CC00605D560
:103630000320DFF8E816C1F81C027CE00420DFF864
:10364000DC16C1F81C020420DFF84416087564205B
:10365000DFF83C16C8824FF4C870DFF834160883D0
:103660004FF4FA70DFF8281648834FF41670DFF82D
:10367000201688834FF41670DFF81416C8834FF4B1
:103680001670DFF80C1608840020DFF80416488650
:103690000020DFF8FC1588860020DFF8F415C886C6
:1036A0000020DFF8EC15088740F21310DFF8E01572
:1036B000488740F21310DFF8D815888740F2E510EC
:1036C000DFF8CC15C88740F28520DFF8C415A1F8D3
:1036D00040000020DFF8B815A1F842000020DFF814
:1036E000B015A1F84E000120DFF8A415A1F8500094
:1036F0000220DFF89C15A1F852000320DFF8901596
:10370000A1F854000720DFF88815A1F8560008201A
:10371000DFF87C15A1F858000920DFF87415A1F82E
:103720005A000A20DFF86815A1F85C000B20DFF8CA
:103730006015A1F85E000120434908600120DFF810
:10374000D015087000F062FD01BD0000B419002022
:103750003D484068001D3C49096888420DD23A48FE
:103760000068082809D30020DFF8B01581F8F401BB
:103770000120DFF89C15087052E0DFF8A005D0F8B2
:10378000E00100284CD030480068002813D1DFF851
:103790008C0590F8E001AA280DD00120DFF8701503
:1037A00008700020DFF87415C1F8E00144F2010050
:1037B0002549086134E0DFF87805006800280BD05F
:1037C000DFF87005DFF85415D1F8E011DFF8602557
:1037D0001268024402F8011CDFF84005D0F8E0014D
:1037E00010F47F40DFF848150968090211F50071EF
:1037F000884206D1DFF838050068401CDFF8301534
:103800000860DFF82C050068000210F50070DFF892
:103810000C15C1F8E4010020DFF80015C1F8E00143
:1038200070470000B4180020DFF86404408A0028C4
:1038300006D0DFF85C04408A401EDFF8541448824A
:1038400070470000600100203C1500200038004057
:10385000000402402DE9F04F8BB0DFF8D404C068BB
:10386000DFF8CC148968FFF7ADF98246FFF748FD11
:10387000DFF8A0048068C0F303108346DFF8B804C3
:1038800090F82400002800F000820020DFF8A8143F
:1038900081F82400DFF8A00490F82500002802D069
:1038A0000020079002E05FF0005007905FF0D840E2
:1038B0008046DFF88804DFF85C14097A11F0030110
:1038C00050F82110DFF86804806800F033FCDFF85E
:1038D000C013C96800F02EFC0400DFF85404C1686E
:1038E000DFF85404006800F025FC01002000FFF719
:1038F00069F9FFF7F7F9D0F5F8708146DFF8900322
:10390000408F05005FEAC940C00C50EA0800DFF8AC
:10391000141411EA45310843DFF80014DFF870236E
:10392000B2F856201C235A43114488605FF0D840F7
:103930008046DFF80804DFF8DC13097A11F0030190
:1039400050F82110DFF8E803806800F0F3FBD0495D
:10395000C96800F0EFFB0400DFF8D403C168DFF8AA
:10396000D803006800F0E6FB01002000FFF72AF909
:10397000FFF7B8F9D0F5F8708146C548808F05008B
:103980005FEAC940C00C50EA0800DFF8981311EA5A
:1039900045310843DFF88413BD4AB2F858201C2390
:1039A0005A4311448860DFF89003C069DFF8901330
:1039B000FFF786F904D8DFF88C03DFF87C13C861C1
:1039C000DFF87403C069DFF88013FFF733F804D21F
:1039D000DFF87403DFF86013C861079850F04060A7
:1039E0008046DFF85403C069FFF78EF9052148438C
:1039F000D0F5967081465046DFF85013FFF760F916
:103A00001BD840F23324CD48C249097A11F0030192
:103A100050F82110C648806800F08CFBFEF79CFD32
:103A2000CB4ACC4BFEF7C0FD0022CB4B00F0E0FCB4
:103A300000F068FD201A050015E040F23324BF486D
:103A40000168BB48806800F075FBFEF785FDC04A41
:103A5000C04BFEF7A9FD0022BF4B00F0C9FC00F0EF
:103A600051FD201A05005FEAC940C00C50EA080069
:103A7000AC4911EA45310843A849854AB2F85A20B1
:103A80001C235A4311448860079850F040608046D8
:103A9000A948C069FFF738F90521484310F5967029
:103AA00081465046A949FFF70BF91AD8A34899490E
:103AB000097A11F0030150F821109D48806800F048
:103AC00039FBFEF749FDA24AA24BFEF76DFD00222D
:103AD000A14B00F08DFC00F015FD00F23320050035
:103AE00014E0964801689248806800F023FBFEF7D6
:103AF00033FD974A974BFEF757FD0022964B00F097
:103B000077FC00F0FFFC00F2332005005FEAC940BB
:103B1000C00C50EA0800834911EA453108437F4947
:103B20005B4AB2F85C201C235A431144886000248D
:103B300020005749097D80B289B2884264D27E480C
:103B400000688649FFF7BCF81DD85FF0E04002909E
:103B5000002001904E48A4B200EB4400C08AFEF75A
:103B6000EBFC00904A48A4B200EB4400438E099A53
:103B700008994748A4B200EB4400B0F84E00C0B228
:103B8000FFF7BCFC3EE06A485FFA8BFB242101FB97
:103B90000BF1084410F1140182B068462422FEF7AC
:103BA0001BFA0CBC16001F003948A4B200EB4400FD
:103BB000C08AFEF7C1FC010032003B0008A800F0FB
:103BC000EFFC9DF8280000281CD05FF0C040029058
:103BD000002001902E48A4B200EB4400C08AFEF7FA
:103BE000ABFC00902A48A4B200EB4400438E099A33
:103BF00008992748A4B200EB4400B0F84E00C0B2C8
:103C0000FFF77CFC641C93E74248007A000713D559
:103C100047485FFA8BFB242101FB0BF1084410F1AC
:103C2000140182B068462422FEF7D6F90CBC3C4948
:103C300008A800F0B5FC13E03D485FFA8BFB242197
:103C400001FB0BF1084410F1140182B068462422F4
:103C5000FEF7C2F90CBC3848016808A800F0A0FCC7
:103C60009DF8280000280DD05FF0C0400290012090
:103C700001903148006800900023099A08991020AB
:103C8000FFF73CFC6420024948820BB0BDE8F08F8E
:103C9000C418002080B532480078032819D10120CB
:103CA0002F4908700020244981F8240033201B4943
:103CB000C1F850033320174908731F4890F82400B7
:103CC000002802D1FFF79BF9F7E700201A4981F895
:103CD000240023480078022819D1002020490870C8
:103CE0000020154981F8240034200C49C1F8500304
:103CF000342008490873104890F82400002802D1A5
:103D0000FFF77DF9F7E700200B4981F8240001BD9A
:103D1000D01B00202C1A0020AC1B002068110020B2
:103D20000000C84200E0FF0396438B3CCDCC4A42E2
:103D30003C15002040150020B4190020C8000020C8
:103D40000100F0410000F0410000F0C173335C3924
:103D500076E09C11A5BDF13F000024400100C8425F
:103D6000D71B0020C0B2DFF818120860704710B4EB
:103D700052EA01030343DFF80C42237010BC704782
:103D8000C0B2DFF80412086070470021DFF8E821B4
:103D900012681100890889000143DFF8DC211160F5
:103DA00070470021DFF8D0211268110031F0F001D6
:103DB0000143DFF8C421116070470021DFF8B8210A
:103DC0001268110031F4605151EAC001DFF8A821F6
:103DD00011607047F0B40021002200230024002568
:103DE0000026654F3F6817F00C0739000F00002FC1
:103DF00006D0042F14D0082F15D00C2F17D03BE07D
:103E00005E4F3F68C7F342373E00012716F1010CB1
:103E100017FA0CF74FF4004C0CFB07F707603AE079
:103E20005A4F076037E05FF46107076033E0524F95
:103E30003F6817F470173A004F4F3F6817F4400778
:103E40003B00534F920CBA5C9B0D5B1C4A4F3F6882
:103E500017F480373C00002C06D14C4F07FB02F7CB
:103E6000B7FBF3F7076006E05FF4610707FB02F7B3
:103E7000B7FBF3F707600EE0404F3F68C7F34237E8
:103E80003E00012716F1010C17FA0CF74FF4004C15
:103E90000CFB07F70760384F3F6817F0F007390051
:103EA00009093C4F7F5C3D000768EF404760324F97
:103EB0003F6817F4E0673900090A364F7F5C3D0020
:103EC0004768EF4087602C4F3F6817F46057390010
:103ED000C90A304F7F5C3D004768EF40C760F0BCC7
:103EE0007047C9B2002905D02B4A126802432A4BF9
:103EF0001A6004E0284A12688243274B1A60704710
:103F0000C9B2002905D0254A12680243234B1A6022
:103F100004E0224A12688243204B1A607047C9B2FB
:103F2000002905D01E4A126802431D4B1A6004E0A6
:103F30001B4A126882431A4B1A607047C9B20029A3
:103F400005D0184A12680243164B1A6004E0154A5D
:103F500012688243134B1A607047C9B2002905D01A
:103F6000114A12680243104B1A6004E00E4A1268AC
:103F700082430D4B1A6070470838024004380240F3
:103F8000000047420A380240600047420024F40023
:103F9000200100202C0100201C3802402038024063
:103FA000243802401438024018380240F0B400228D
:103FB0000023002400252A00102A49D2012595401B
:103FC0002B000D681D402C009C423FD10568032644
:103FD0001700FFB27F00BE40B543056005680E794B
:103FE0001700FFB27F00BE40354305600D79012DFB
:103FF00002D00D79022D19D1856803261700FFB272
:104000007F00BE40B543856085684E791700FFB2DA
:104010007F00BE4035438560858801269640B543C4
:10402000858085888E79964035438580C5680326CE
:104030001700FFB27F00BE40B543C560C568CE79AA
:104040001700FFB27F00BE403543C560521CB3E786
:10405000F0BC70470183704741837047F0B4002380
:104060000024D2B211F00705EDB2AD0012FA05F549
:104070002B0089B2CD1000EB850589B2CE1000EB84
:104080008606366A0F2711F0070C5FFA8CFC5FEA90
:104090008C0C17FA0CF7BE432E6289B2CD1000EBE0
:1040A00085052D6A1D432C0089B2CD1000EB8505D6
:1040B0002C62F0BC7047000010B4002203881A0084
:1040C00012F441520B884C8823438C882343CC88BC
:1040D00023430C8923434C8923438C892343CC8974
:1040E00023431A430280838B4FF2FF742340838360
:1040F0000B8A038210BC7047C9B2002904D0028821
:1041000052F04002028004E002884FF6BF731A406A
:1041100002807047808970478181704702000020CB
:1041200013890B4202D00123180001E0002318007C
:10413000C0B27047FF2212EAD05C1DBF12EAD15311
:10414000944593422BE09C44D30780EA01021A4035
:1041500043EA002043EA0121A1FB0030410038BFBF
:1041600040007CF17F010BDBFE294ADA5B0842EA62
:10417000C15153EA006373F1004C51EB10207047BA
:10418000D1F1080CDCF120012FDB5B0810FA01F102
:104190000B4373F1004120FA0CF0504170479445F5
:1041A0001CBF02EAD153934280EA010202F00042AE
:1041B0001DD0400019D0490017D05BB9634514D019
:1041C0000902B1FA81F39940BCEB030CC00140F045
:1041D0000040C1E70002B0FA80FC10FA0CF0B3EB2B
:1041E0000C0CC90141F00041B6E7100070474000D7
:1041F0000AD0490008D010F1807F94BF11F1807F70
:1042000002E042F0FF407047D04370476148624986
:10421000886062486049C86000205F494861604822
:104220005D4988615F485C49C8615F485A490862D6
:104230005E48594908635E48574948635D48564996
:1042400048625D485449C8625C485349886201200D
:104250005149886352485049C86352484E490864DE
:1042600051484D49486451484B49486550484A496E
:1042700088655048484988644F48474908654F4811
:104280004549C86402204449C8654D48424908660A
:1042900044484149486644483F49886649483E4940
:1042A000886749483C49C86742483B49C866424814
:1042B0003949486741483849086703203649C1F8F9
:1042C000800042483449C1F8840036483249C1F878
:1042D000880035483049C1F88C003D482E49C1F866
:1042E0009C003C482C49C1F8A00032482A49C1F83A
:1042F000900031482849C1F8980030482649C1F853
:10430000940004202449C1F8A40033482249C1F88C
:10431000A80032482049C1F8AC0031481E49C1F814
:10432000B00022481C49C1F8C0002E481A49C1F803
:10433000C40020481849C1F8B4001F481649C1F804
:10434000BC001E481449C1F8B80005201249C1F844
:10435000C80025481049C1F8CC0020480E49C1F8D2
:10436000D0001F480C49C1F8D40010480A49C1F8D0
:10437000E4001E480849C1F8E8000E480649C1F8A3
:10438000D8000D480449C1F8E0000C480249C1F8C2
:10439000DC007047000008423C15002096438B3C2F
:1043A00000804A44CDCC1C41F4FDD43E0000704353
:1043B0000000A2420000C84200803B44000070415F
:1043C00000004D4400009643666678420000484471
:1043D0000000A0430000A04200C04B4466661641A6
:1043E00060E5D03E0000BF42000043440000BA42F6
:1043F000F0B44FF0004591EA030C44BF6B4000F06D
:104400007DBC00BF841A71EB030603D2001BB141CF
:10441000121973414FF4001C1CEB410F34BF7CEBAD
:10442000430443E00C0DA4EB1356352E50DC45EA53
:10443000C323DB0A45EAC121C912B6F120050DDD0F
:1044400063FA05F6EB4086EA0305124218BF45F011
:104450000105C01851F100010CD213E062FA06F513
:10446000F2405540F3415A40B340F3405A4080185F
:10447000594107D349085FEA30005FEA350528BF94
:1044800045F0010501F58011420875F1004250F137
:10449000000041EB0451F0BC4FF4001C1CEB410F39
:1044A00038BF70470020090D090570471CEB410F0C
:1044B00010D252EA43060BD0BCEB410F05D80C0DCD
:1044C000AB43661E342EB5DD02E0AB438018594184
:1044D000F0BC7047F0BC7047F446400D40EAC12084
:1044E000490006D200F014F8004248BF6FF00040C7
:1044F000604700F00DF84FF0004188428CBF08463D
:1045000040426047400D40EAC120490080F00D80E4
:1045100040F00040490DA1F58061491C05D4D1F15E
:104520001F0154BFC840C01770474FF000007047CC
:10453000DFF8C006DFF8C0160860DFF8C006DFF855
:10454000B8164860DFF8B806DFF8B81648605FF0C4
:104550008140DFF8B416C860DFF8B006DFF8A816AF
:104560000861DFF8AC06DFF8A0164860DFF8A406A3
:10457000DFF890160860DFF8A006DFF888160861FB
:10458000DFF89806DFF87C168860DFF89406DFF81D
:1045900078168860DFF86806DFF86C1608607047E8
:1045A0000FB42DE9F04F9FB000208DF80800299836
:1045B000FDF7D2FFDFF86C26DFF86C36FEF7C6F8A1
:1045C000FEF7F0F903902B98FDF7C6FFDFF85C26A5
:1045D000DFF85C36FEF7BAF8FEF7E4F905902D989F
:1045E0000A9000201B902E98FDF7B6FFDFF83426C6
:1045F000DFF83436FEF7AAF8FEF7D4F90490DFF8B6
:104600000806C068FDF7A8FFDFF82826DFF828367F
:10461000FEF79CF8FEF7C6F91A90DFF8EC05006982
:10462000FDF79AFF0022DFF81436FEF78FF8FEF749
:10463000B9F91990DFF8D00540681890DFF8C00587
:104640000990DFF8C4058068FDF786FFDFF8F025E4
:10465000DFF8F035FEF77AF8FEF7A4F917903298F4
:10466000FDF77AFF5FF06632DFF8DC35FEF76EF8B3
:10467000FEF798F908903198FDF76EFFDFF8CC252A
:10468000DFF8CC35FEF762F8FEF78CF91690DFF80C
:10469000C40507903098FDF75FFFDFF8A425DFF829
:1046A000A435FEF753F8FEF77DF91590DFF8A8055D
:1046B0001490DFF844050068FDF74EFF0022DFF894
:1046C0009C35FFF795FE0022DFF89435FEF73EF8A3
:1046D0000022DFF89035FFF78BFE00F0C5FBFFF7F7
:1046E000FBFE13900A98FDF737FFDFF87C25DFF813
:1046F0007C35FFF77DFE0022DFF87435FDF754FFAF
:104700000022DFF86035FFF773FE00F0ADFBFFF726
:10471000E3FE1290DFF85C0513991422514308441C
:10472000129950F8210011901898FDF715FFDFF845
:104730004825DFF84835FDF737FF0022DFF8403520
:10474000FFF756FEFEF72EF910900A991498FFF71E
:10475000F1FCFDF701FF804689461198FDF7FCFE4C
:1047600002000B0014001D000598FDF7F5FE220065
:104770002B0000F0B5FD42464B46FDF715FFFEF756
:1047800011F90F900F98FDF7E7FE04000D00109847
:10479000FDF7E2FE0022DFF8EC34FFF729FE2200ED
:1047A0002B00FDF701FF04000D000998FDF7D4FE72
:1047B0000022DFF8D434FDF7C9FF02000B0000200F
:1047C000DFF8C81400F090FA02000B002000290066
:1047D000FDF7BCFF04000D000998FDF7BDFE0022A7
:1047E000DFF8AC34FDF7B2FF00F092FF22002B009F
:1047F000FDF7DAFE04000D0017981599FEF7E2F9AF
:10480000FDF7AAFE02000B0000205FF0804100F0DF
:104810006BFA22002B00FDF7C7FEFEF7C3F80690E7
:104820000598FDF799FE02000B00DFF86804DFF839
:104830006814FDF78BFFCDE900010498FDF78CFEAD
:1048400002000B000020DFF85414FDF77FFF8246C2
:104850008B460698FDF780FE804689460498FDF752
:104860007BFEDFF83C24DFF83C34FDF79DFE0022A0
:10487000DFF83434FFF7BCFD0022DFF8E833FDF742
:1048800093FE04000D000498FDF766FE22002B0045
:10489000FDF78AFE02000B004046494600F024FA6C
:1048A00002000B000020DFF8F413FDF74FFF0200B9
:1048B0000B005046594600F017FA02000B00DDE9E4
:1048C0000001FDF743FF02000B00FDF76DFEFEF750
:1048D00069F80E90039807000598FDF73DFE020069
:1048E0000B00DFF8B003DFF8B013FDF72FFFCDE9C1
:1048F00000013800FDF730FE02000B000020DFF859
:104900009C13FDF723FF82468B460698FDF724FE95
:10491000804689463800FDF71FFEDFF88423DFF864
:104920008433FDF741FE0022DFF87C33FFF760FDA2
:104930000022CC4BFDF738FE04000D003800FDF7D7
:104940000BFE22002B00FDF72FFE02000B0040465D
:10495000494600F0C9F902000B000020CF49FDF7DD
:10496000F5FE02000B005046594600F0BDF902006A
:104970000B00DDE90001FDF7E9FE02000B0010006D
:104980001900FDF711FEFEF70DF883460E99089801
:10499000FEF7D6F81B99FEF7D3F83900FFF7CAFBEC
:1049A0000499FEF70FF9040008985946FEF7C8F875
:1049B00001002000FEF750F88246504690F000407B
:1049C0003900FEF7FFF80799FEF7FCF8FDF7C4FD84
:1049D0000022A34BFDF7E8FDFDF7E4FF04003800DB
:1049E000FDF7BAFDA44AB14BFDF7DEFD80468946CE
:1049F0001A98FDF7B1FD42464B46FDF7D5FD8046BE
:104A000089460598FDF7A8FD02000B00404649467F
:104A1000FDF79CFE8046894606983900FEF7D2F8DD
:104A2000FDF79AFD0022A24BFFF7E2FC0022A14B0A
:104A3000FFF7DEFC02000B0040464946FDF786FE0C
:104A4000804689463800FDF787FD02000B0040468E
:104A50004946FDF77BFE804689460798FDF77CFDB9
:104A600002000B0040464946FDF770FE00227C4BD9
:104A7000FDF79AFD804689461998FDF76DFD0022E5
:104A80008D4BFDF763FE00225FF08043FDF78CFD48
:104A90008A4A8B4BFDF788FD00F062FE42464B468A
:104AA000FDF782FDFDF77EFF05000D940C95039840
:104AB000FDF752FD5B4A5C4BFDF748FE02000B0020
:104AC000FDF772FD8046894616985FF08141FEF73A
:104AD00079F801007B48FDF7BFFFFDF73DFD424639
:104AE0004B46FDF761FD0022774BFDF72FFEFDF7EA
:104AF00059FF0B900398002100F036FE05D10020ED
:104B00000D9000200C9000200B900D9806003000B6
:104B10006E49FEF7D5F801D86D48060030006D49A2
:104B2000FDF788FF01D26B4806003000FDF714FD49
:104B3000694A6A4BFDF738FD3A4A3B4BFDF734FDB5
:104B4000804689460398FDF707FD42464B46FDF730
:104B50002BFDFDF727FF1C9061480068310000F035
:104B600003FE02D001208DF808005D4806600C9914
:104B70000B98FDF7E5FF060030005449FEF7A0F85A
:104B800001D85348060030005249FDF753FF01D2C7
:104B9000504806003000FDF7DFFC4F4A4F4BFDF751
:104BA00003FD204A204BFDF7FFFC80468946039811
:104BB000FDF7D2FC42464B46FDF7F6FCFDF7F2FE50
:104BC0001D9048480068310000F0CEFD02D0012061
:104BD0008DF878004348066028981CA9B1E80C10AD
:104BE000A0E80C100C390C381FB0BDE8F00F5DF8D0
:104BF00014FB0000000066447C1A00206666E63E56
:104C00000000C842641A0020B41900200000F041DE
:104C100000007041000020420000204100803B4421
:104C200000003C44FBCBEEC9C342ED3FFD87F4DB03
:104C3000D781D33FEA3E00A94D9CDC3F00003E40B7
:104C4000E25817B7D100E83F6666394052B81E8572
:104C5000EB5104406666863F0000764300C072C098
:104C6000000059400000E03F9A9999999999C9BF6D
:104C70000000244000000020CDCCCCCCCCCCFC3FAC
:104C80000000404000C07C400080714000388040FF
:104C900080E9DE40D7A3703D0AD744400000F03FD2
:104CA000691D554D10750F3F0000E83FCCCC5340B7
:104CB0000000F0BF0000E0BF000028404AD8124DBD
:104CC000FB2109400000C040A4314641013C1C4684
:104CD000003C1C46003C1CC62475A7E095C99D3FBE
:104CE000A81B0020A41B0020F0B44FF0004591EA5F
:104CF000030F44BF6B40FFF785BB00BF841A71EB05
:104D0000030604D26E40001BB141121973414FF4E7
:104D1000001C1CEB410F34BF7CEB430684E00C0D00
:104D2000A4EB1356362E7DDC012E43DC45EAC3236B
:104D300043EA525312BFD20292025B08240545EAAD
:104D4000C12141EA5051D2EBC020994125D407D16D
:104D5000B0FA80F610FA06F164D00020203608E0A0
:104D6000B1FA81F6B140C6F1200220FA02F21143F5
:104D7000B0404FEAF474B4EB465434F001064FEA05
:104D800074040AD8D6F50016760D04F00044F040FD
:104D900061FA06F25040F1404840C00A40EA4150F2
:104DA00021F0004128BF5FEA500550F1000044EBBC
:104DB000D12137E045EAC323DB0A45EAC121C90A0C
:104DC000B6F120050EDD42EA0242120CC5F12006C2
:104DD00003FA06F6EB4042EA06056D42984161F19E
:104DE00000010DE062FA06F5F240554063FA06FC58
:104DF00082EA0C02F3405A406D42904161EB03019C
:104E000011F4801F05D1641E620502D06D0040417F
:104E1000494121F48011430875F1004350F100002D
:104E200041EB0451F0BC70471CEB410F15D223F04D
:104E3000004352EA43060BD04FEA4C0CBCEB410F47
:104E400004D80C0D661E342EB7DDEBE7801A9941AD
:104E500050EA410608BF0021E4E708BF1CEB430FFE
:104E600028BF6FF00001DDE740F2FF7C1CEA115221
:104E700040F2FE33D21ACCBFD2F1350316E0B2F1C4
:104E8000150309DA6FEA4C53D340094201D5401E9D
:104E900059410020994370476FF00002DA400942FF
:104EA00002D5801851F1000190437047352A09DA84
:104EB00050EA41031CBF4FEA0C5101F1804138BF59
:104EC00000210020704700002DE9FF4D86B0DDE98C
:104ED0000801CDE904010798C0F30A5040F2FF71C0
:104EE000884208D107980027000305BF06980028CC
:104EF0000224012412E0012807DA06A800F042FC8F
:104F0000012802DB0027002408E0079A40F2FE3166
:104F100061F31E520792471A4FF0FF34002104A894
:104F200000F052FC0546129810B11299002008803A
:104F300035B9DDE908230020002100F083FC11D001
:104F4000002C11D53FB2012F13D1DDE9062300203B
:104F5000C94900F077FC05D0012D0AD1C74900F0FE
:104F600071FC2ED1C649B8E1022C04D1DDE906015D
:104F7000B3E1012D59DB022D08BFDDE9080100F086
:104F8000AC81012C1BD107980028099802D4002875
:104F900048D532E0002809D4002D43D14FF0FF312D
:104FA00004A800F011FC00283CD538E02DBB4FF0E0
:104FB000FF3104A800F008FC00281ED519E0012DDF
:104FC00009D1099800283FB202D4012F2ADA14E04F
:104FD000012F12DA26E00998002811D46DB94FF09C
:104FE000FF3104A800F0F0FB002844BF0798002818
:104FF00003D500204FF000416FE1002000216CE15B
:1050000000F030FC2221016065B94FF0FF3104A8A7
:1050100000F0DAFB002844BF0798002802D50020E2
:1050200098495AE10020984957E10798002848BF5D
:10503000002D08D500F016FC212101604FF0FF3053
:105040006FF0004149E1DDE906010022002300F094
:105050000FFC38BF019209D381F00041CDE9060170
:105060004FF0FF3104A800F0AFFB0190012F13D1E6
:10507000DDE90601854A864B00F012FC0CD2DDE921
:10508000062300204FF08041FDF78EFACDE906019E
:10509000002600247A4D1CE0DDE9062300207D492E
:1050A000754DFDF781FA00222B46FFF7A1F9FFF7B6
:1050B00013FAA0F12006304600F00AFC0022764BDD
:1050C000FDF772FA00222B46FFF792F904460D46CF
:1050D00076010FF21C20304400902246DDE90601E3
:1050E0002B46FFF701FE82468B46DDE9060122468C
:1050F0002B46FFF77DF902460B4650465946FDF711
:1051000025FBCDE90401DDE90423FDF74DFACDE9E6
:1051100006AB0646884600F0F1FB32464346FDF7F3
:1051200043FADDE90623FFF7DFFD06468846002047
:10513000534922462B46FFF7D7FD00224FF080430C
:10514000FDF732FA32464346FFF752F9DDE9042310
:10515000FDF72AFA02460B46DDE90601FFF748F99A
:1051600004460D464D4A4E4BFDF7F0FACDE90401D9
:10517000384600F0ADFB009A07468B46D2E90001A5
:105180003A465B46FFF734F9DDE90423FFF730F9CF
:10519000CDE90401DDE90823FDF706FA0022414BC1
:1051A000CDE9020100F07CFBC0F0808001223E4B83
:1051B00000F05EFB40F27E800022002300F070FBD6
:1051C000DDE9022339BF00202C4900202A49FFF7DE
:1051D0000FF9FFF781F90646DDE9080122462B4663
:1051E000FDF7E2F9CDE90201009A2C4C2C4DD2E9F1
:1051F00002019046D8E90423FFF7FAF8DDE9082315
:10520000FDF7D2F922462B46FDF7CEF9DDE9022360
:10521000FFF7EEF8CDE90201DDF800803A46D8E963
:1052200000015B46FFF7E4F8DDE90823FDF7BCF970
:1052300007468B46304600F04BFB02460B4638468D
:105240005946FFF751FD22462B46FDF7ADF9DDE942
:105250000223FFF7CDF8CDE90201129808B10680CC
:10526000002600960022064B02A800F09DFBE8B144
:1052700001281FD02AE000BF0000E03F0000E0BF8F
:105280000000F03F0000F0FF0000F07FCD3B7F66A4
:105290009EA0E63F000050400000903FEF39FAFE2C
:1052A000422EE63F0000E0C00000E0400020CDE9D3
:1052B000020007E00020014902E000BF0000F07F8B
:1052C000CDE9020100F0CEFA222101600198002808
:1052D000DDE9020118BF81F000410AB0BDE8F08DA0
:1052E00010B582B000240094FFF7EEFD1CBD000055
:1052F000000000000000F0BF00000000000000807F
:10530000000000000000008000000000000000001D
:10531000000000C05294EEBF00000048204E51BE75
:10532000000000F86467BCBC000000000000000042
:10533000000000208133EDBF00000080B3DB14BE0D
:10534000000000506706A3BC000000000000000041
:10535000000000D0E9DCEBBF00000008C39259BE9A
:1053600000000080B0D3B8BC0000000000000000C6
:1053700000000070F98FEABF000000C0A51028BE31
:10538000000000E8BFC0B0BC00000000000000004A
:1053900000000070284CE9BF00000060134B42BEC3
:1053A000000000C03D20B8BC00000000000000006C
:1053B00000000050FA10E8BF000000C05FF62BBEEE
:1053C000000000905C71A7BC00000000000000001D
:1053D00000000020FCDDE6BF000000C0F8F154BE74
:1053E00000000018E9F6B9BC000000000000000051
:1053F000000000D0C3B2E5BF00000070E43254BE2C
:1054000000000050DB06B4BC0000000000000000FB
:1054100000000010EF8EE4BF00000020F36252BED7
:10542000000000C02A879ABC0000000000000000B5
:10543000000000B02272E3BF000000F0E8E056BEBA
:1054400000000028352DBDBC000000000000000059
:10545000000000000A5CE2BF000000B0FA8E41BE0E
:1054600000000040AE6FBDBC000000000000000066
:1054700000000000564CE1BF000000F015CD5FBEFB
:1054800000000000141C90BC0000000000000000A0
:1054900000000040BD42E0BF00000030F93457BEBC
:1054A000000000E06C1E93BC000000000000000043
:1054B000000000E0F57DDEBF000000B08A535EBE54
:1054C00000000080DA77AABC0000000000000000A5
:1054D000000000C09D81DCBF00000000FFA226BECE
:1054E0000000006057E2B0BC0000000000000000B7
:1054F00000000060F98FDABF000000580A8151BE39
:10550000000000F05F60B8BC000000000000000078
:105510000000000098A8D8BF000000607A7F45BE58
:10552000000000D05433A3BC0000000000000000C5
:10553000000000600FCBD6BF000000D091CB40BE72
:10554000000000406D1BA0BC000000000000000037
:10555000000000A0FBF6D4BF00000098C5CE52BEEC
:10556000000000003A397EBC00000000000000008E
:10557000000000E0FE2BD3BF0000004073872BBE6D
:1055800000000000926879BC0000000000000000EC
:1055900000000040C069D1BF00000058F16353BE55
:1055A00000000080438D7CBC000000000000000073
:1055B00000000080D85FCFBF000000181F8354BEDA
:1055C000000000B03F42A2BC00000000000000004C
:1055D0000000008067FCCBBF00000060FAFF53BEF4
:1055E00000000050E00DB8BC00000000000000000A
:1055F0000000000098A8C8BF000000607A7F35BE98
:10560000000000C0543393BC000000000000000004
:1056100000000000DC63C5BF00000058D6FF54BE88
:1056200000000000396490BC000000000000000091
:10563000000000C0AD2DC2BF00000080A45915BEFF
:10564000000000E0484BABBC000000000000000080
:10565000000000801A0BBEBF00000050BF3C5ABEC5
:10566000000000A0B364B6BC000000000000000011
:105670000000008004D6B7BF00000040BBCF36BE9C
:105680000000008076CEA8BC0000000000000000F2
:105690000000008032BBB1BF000000402A0043BEC2
:1056A00000000028C60CBDBC000000000000000087
:1056B000000000009473A7BF000000182B3B59BEE8
:1056C000000000C0E55DA5BC000000000000000077
:1056D00000000000EE4397BF000000A0E6C340BEFC
:1056E00000000020958DB5BC000000000000000007
:1056F00000000000000000800000000000000080AA
:105700000000000000000080000000000000000019
:1057100083B5C1F30A5240F2FF739A4282B007D0B8
:105720008AB9C1F3130108430DD10C4905B000BD7E
:10573000C1F3130108430DD1039800280AD50020B6
:10574000002105B000BD002000900022034B02A8FC
:1057500000F02AF9DDE9020105B000BD0000F03FCC
:10576000002200F07FBA000040EA010C5FEA4C0C16
:1057700007D0884205D14FEA400C1CF1807F98BFCA
:105780008042704730B4436803F000420121C3F304
:1057900013034360002B04BF0368002B08D10DE006
:1057A0000368DD0F45EA440444605B000360491E62
:1057B0004468E302F4D5C4F31303436043681A4317
:1057C0004260084630BC70474268C2F30A5240F259
:1057D000FF739A4207D14168090303BF006800289C
:1057E00001200220704743685B0004BF0368002B60
:1057F00025D040F233439A1A521A012A1FDB352A68
:1058000006DB416801F0004141600021016013E0C6
:10581000012102F01F039940491E920607D54268F4
:1058200011404A40426002681143002202E00268CF
:1058300011404A40026011B14FF0FF307047002024
:105840007047000090420CD141EA030C50EA4C0C26
:1058500007D0994205D14FF4001C1CEB410F38BF13
:1058600089427047014800F00EBC00005C01002036
:105870004FF4001C1CEB410F94BF1CEB430F09E0DD
:1058800041EA030C50EA4C0C52EA0C0C03D28B4256
:1058900008BF8242704714BF99429042704700008F
:1058A0004FF4001C1CEB410F94BF1CEB430F09E0AD
:1058B00041EA030C50EA4C0C52EA0C0C03D2994218
:1058C00008BF9042704714BF8B428242704700006D
:1058D000010040F10780F446404200F003F851F027
:1058E0000041604709D0B0FA80F18840C91CC1F579
:1058F0008461090501EBD0214005704738B50446A5
:105900000D461B481B4922462B46FCF74DFE1A4A02
:105910001A4BFEF76DFD22462B46FCF745FE184A52
:10592000184BFEF765FD22462B46FCF73DFE164A56
:10593000164BFEF75DFD22462B46FCF735FE144A5A
:10594000144BFEF755FD22462B46FCF72DFE124A5E
:10595000124BFEF74DFD22462B46FCF725FE01B00B
:10596000BDE830400E4A0F4BFEF742BD000000007C
:10597000F7DE29BFD8F8C23FF4B3FECC1A99C33F73
:1059800062CB68D96F46C73FC6C912DAC471CC3F33
:105990004AE98A942449D23FF75F97999999D93F68
:1059A000BC5555555555E53F2DE9F04D804686B01F
:1059B000D8E9006714461D463046394600F064FBBE
:1059C00082462046294600F05FFBBAF1000F06D55B
:1059D00000284DD4022806D1C8E900453FE1BAF1BC
:1059E000020FF7D121E050B90022524B3046394620
:1059F000FFF728FF0FD0C8E9004500202FE101285C
:105A000015D100224C4B30463946FFF71BFF18BF1B
:105A1000C8E900454FD1FFF725FF212101604FF074
:105A2000FF306FF00041C8E90001022017E1BAF130
:105A3000000F0FD1C8E900450E99404600F03EFB2B
:105A4000040018BF012C40F00981FFF70BFF222151
:105A5000016003E10022374B30463946FFF7F2FE82
:105A60000DD120462946FCF79FFDC8E9000122E040
:105A7000304639460022314BFFF712FF0AD200238D
:105A800020462946FCF790FDC8E9000106B0002039
:105A9000BDE8F08D01222A4BFFF7EAFE0DD8002267
:105AA000244B20462946FCF77FFDC8E90001FFF79B
:105AB000D9FE222101600120D1E0224A224BFCF7CD
:105AC00073FD00220023FFF7EBFE34BF1F4B414B59
:105AD000FEF78EFCFEF700FD0290FFF7F9FE82460E
