:020000040800F2
:10000000101C0020D5850008A97B0008AB7B0008E8
:10001000AD7B0008AF7B0008B17B0008000000004A
:10002000000000000000000000000000B37B00089A
:10003000B57B000800000000B77B0008F97C0008D1
:1000400015860008198600081D860008218600080C
:1000500025860008298600082D86000831860008BC
:1000600035860008398600083D860008418600086C
:1000700045860008498600084D860008518600081C
:1000800055860008598600085D86000861860008CC
:1000900065860008698600086D860008718600087C
:1000A00075860008798600087D860008818600082C
:1000B00085860008898600088D86000891860008DC
:1000C00095860008998600089D860008A18600088C
:1000D000A5860008B97B0008AD860008B186000837
:1000E000B5860008B9860008BD860008C1860008EC
:1000F000C586000810B4DFF8200A017C11F00F0F4C
:1001000004D10121DFF8682A517003E00021DFF8F3
:10011000602A5170017C11F00F0103290FD10021D9
:10012000DFF8602AD170DFF8601A00224A700022DE
:10013000CA70DFF8581A00224A700022CA7001699A
:1001400011F44241002900F09880B1F5007F00F0E1
:100150008180B1F5804F23D0B1F5844F0ED0B1F539
:10016000004F53D0B1F5024F2ED0B1F5404F04D01F
:10017000B1F5424F40F081807FE07EE0DFF8F0197A
:1001800001228A700122CA72DFF8041A31220A7031
:100190003222DFF8003A1A70DFF8FC294A606CE07E
:1001A0000121DFF8CC29D172DFF8E41933220A707B
:1001B0003222DFF8E0391A70DFF8DC294A600021CA
:1001C000DFF8C429117258E0DFF8A41901228A70FF
:1001D00001224A7301228A73DFF8B41930220A70AF
:1001E000DFF8B029312313700023DFF89C496370D6
:1001F000DFF8A8394B60017CC90603D5DFF8A019E8
:10020000516002E0DFF89C19516036E0DFF86019B8
:1002100001220A730122CA72DFF874293221117097
:10022000DFF8703933211970DFF85C1900244C7045
:1002300000240C7300240C72DFF85C195960017CF7
:10024000C90603D5DFF85819516002E0DFF85419E8
:10025000516012E00121DFF818299170DFF82819A8
:1002600000224A700022CA713021DFF8242911705F
:100270003121DFF820291170FFE7DFF8F41801229F
:100280000A72026912F4405F02D00122CA7101E0D1
:100290000022CA710269120502D501228A7101E0A9
:1002A00000228A710269520502D501224A7201E0D8
:1002B00000224A72027C920604D5FF22DFF8C83879
:1002C0005A7203E00022DFF8C0385A7202699203C2
:1002D00004D5FF22DFF8B0381A7203E00022DFF8FD
:1002E000A8381A72027CD20604D50122DFF8B83889
:1002F0005A7003E00022DFF8B0385A70027C120610
:1003000002D501228A7201E000228A72017C11F07A
:100310000701022904D0017C11F00701032905D14E
:10032000DFF864180022CA7100224A70017C11F0C3
:100330000701042909D0017C11F00701032904D029
:10034000017C11F00701022903D10021DFF83828D0
:1003500011730169090207D40021DFF82C281173F9
:100360000021DFF820281173007C400605D4DFF857
:100370001808002181720021C17210BC7047DFF89B
:10038000F01710220A70487070472DE9F041DFF82D
:100390001C4800202080DFF8185815202870012004
:1003A00068700120A8700020A88041F25046EE80BD
:1003B00020886881012028720C27DFF8F8872088C0
:1003C0007843404429000C2201F0B0FC2088401CF6
:1003D0002080DFF8E41716200870042048700420FD
:1003E00088700020888041F2B440C880208848810D
:1003F000012008722088784340440C2201F096FCCA
:100400002088401C20800020DFF86417487068892D
:1004100007FB00F708EB07008680BDE8F0812DE9B7
:10042000F047DFF88847002020800020DFF88C1795
:1004300008800020DFF888178870DFF83457A87824
:1004400000283ED0DFF8D0060069C0051CD5DFF8D3
:100450007417012008700420487001208870002063
:1004600088806420C8800020087220884881DFF8D6
:10047000442723880C20434302EB03000C2201F0A5
:1004800055FC2088401C2080DFF83C1712200870A3
:100490000420487002208870002088809620C88040
:1004A0000120087220884881DFF8082723880C2063
:1004B000434302EB03000C2201F038FC2088401C6F
:1004C0002080E87A00281CD0DFF80017132008707D
:1004D000DFF8BC06007848700120887032208880E0
:1004E0006420C88000200872DFF8C82623880C200A
:1004F000434302EB03000C2201F018FC2088401C4F
:100500002080287B00281CD0DFF8C4161420087037
:10051000DFF880060078487001208870002088800D
:100520006420C88000200872DFF8882623880C2009
:10053000434302EB03000C2201F0F8FB2088401C2F
:100540002080A87900281BD0DFF8881602200870C8
:100550006020487002208870002088804FF47A70F4
:10056000C88000200872DFF84C2623880C20434303
:1005700002EB03000C2201F0D9FB2088401C2080F4
:10058000E879002800F0DA80DFF84C1608200870BF
:100590000020487009208870002088804FF4FA7687
:1005A000CE80DFF87475386910F44050B0F5005F04
:1005B00002D00020087201E00120087220884881E2
:1005C0005FF00C08DFF8EC95208808FB00F0484449
:1005D0000C2201F0ABFB2088401C2080DFF8FC15CA
:1005E00009200870002048700E2088700020888044
:1005F00041F2B440C88001200872208848812088D8
:1006000008FB00F048440C2201F090FB2088401CBD
:100610002080DFF8CC150A200870002048700F20D9
:10062000887000208880CE80012008722088488150
:10063000208808FB00F048440C2201F077FB20885A
:10064000401C2080DFF89C150320087000204870B3
:1006500004208870002088804FF47A7AA1F806A0E0
:100660000020087220884881208808FB00F0484458
:100670000C2201F05BFB2088401C2080DFF868150D
:100680000420087000204870052088708E80A1F832
:1006900006A00020087220884881208808FB00F00E
:1006A00048440C2201F042FB2088401C2080DFF8E7
:1006B0003C1505200870002048700C208870002030
:1006C00088806420C880386910F44050B0F5805F9D
:1006D00002D10020087201E00120087220884881C0
:1006E000208808FB00F048440C2201F01FFB208802
:1006F000401C2080DFF8F8140620087000204870A5
:100700000D208870322088806420C880386910F4F9
:100710004050B0F5805F02D10020087201E0012056
:10072000087220884881208808FB00F809EB08003F
:100730000C2201F0FBFA2088401C2080287A002837
:1007400052D0DFF8B0140B20087008204870052044
:1007500088700020888041F27C50C8800120087297
:10076000208848810C26DFF84C7420887043384478
:100770000C2201F0DBFA2088401C2080DFF878147E
:100780000C200870082048700120887000208880A4
:100790004FF4FA70C88001200872208848812088B0
:1007A000704338440C2201F0C1FA2088401C20809C
:1007B000DFF848140E200870082048700420887064
:1007C000002088804FF4AF50C88001200872208834
:1007D0004881208806FB00F607EB06000C2201F09A
:1007E000A5FA2088401C2080A87A00281CD0DFF8B9
:1007F00010141720087050204870012088700020C5
:100800008880C820C8800020087220884881DFF8CE
:10081000A42323880C20434302EB03000C2201F0A5
:1008200085FA2088401C2080BDE8F08710B40020A5
:100830000100DFF87823128889B2914217D20C2187
:10084000DFF8702303009BB24B4313441B7A012B48
:100850000BD003009BB24B4313440400A4B201FB32
:1008600004F111448988491C9980401CE0E710BCC0
:1008700070472DE9FE43DFF88C53287800284FD1CC
:10088000002004002000C949098880B288421CD297
:100890000C26C84F200080B2704338448088210065
:1008A00089B271433944C98888420CD32100C9B246
:1008B000D54801F0BEFA200080B206FB00F607EB37
:1008C000060000218180641CDCE7BD4E16F138076C
:1008D000380001F089FA002822D1380001F0C1FA6D
:1008E00081460C27DFF8CC8268464946C9B2794375
:1008F00041440C2201F01AFA684607C800F012F8C9
:100900004846C0B2784318F80000B0704846C0B2FC
:1009100007FB00F708EB0700002181800120287009
:10092000BDE8F78317B581B0B84C9DF805102000DD
:1009300001F07FFA9DF80610200001F07AFA2000FD
:1009400001F068FB200001F0ACFA012240F22661C0
:10095000AF4801F04CFC1FBD10B5994CA07815288C
:1009600002D0162806D00CE00020FFF708FDFFF7A4
:1009700056FD09E0FFF753FD4FF4FA70A5490880D2
:1009800002E06420A349088014F1380001F04AFA1B
:100990000020A149087010BD2DE9F8439F488088C8
:1009A00001F092FC05009E4FDFF878829E4E306881
:1009B000397858F8211001F095FC290001F0D2FC9B
:1009C0003060387848F82050DFF86092DFF86082B5
:1009D000D8F80000397859F8211001F083FC210083
:1009E00001F0C0FCC8F80000387849F82040DFF872
:1009F000449299F800000A2804DA99F80000401C93
:100A000089F800003878401C387038780A2801DBF3
:100A100000203870884F99F8000001F055FC010063
:100A2000306801F011FD786099F8000001F04CFC8D
:100A30000100D8F8000001F007FD38607868B86060
:100A4000F868B96801F07EFD06D27C490878002874
:100A500008D10320087005E078480178012901D108
:100A600002210170BDE8F1832DE9FC410400200062
:100A7000C0B201280DD0042819D0052848D1002182
:100A80004C4A5D4843890C20434302EB030001724A
:100A90003EE05A480C21474A43894B43134440895E
:100AA00001FB00F102EB0100C088988030E00121D9
:100AB000404A514843890C20434302EB0300017232
:100AC0006D462E00DFF87881404601F0CAF9070034
:100AD000404601F0C6F93070404601F0C2F970702E
:100AE000404601F0BEF9B070404601F0BAF9F0702E
:100AF000DFF850810098C8F80000D8F8000001F035
:100B000033FD80B25049C1F83802012088F8240032
:100B1000BDE8F381000000004805002038B504005E
:100B20000D002000C0B2042804D005280CD00C28E9
:100B300014D01CE0280001F029FD80B250F0704074
:100B40004149C1F8540212E0280001F01FFD80B2B3
:100B500050F070403C49C1F8700208E0280001F0F4
:100B600015FD80B250F070403749C1F88C0231BD9C
:100B7000540A002035490888002802D00888401E01
:100B80000880704710010020000100202001002093
:100B9000980B0020A40B0020F37900087D83000847
:100BA000D178000869790008D0080020E80B0020FF
:100BB000A80A0020A8070020C00A0020EE0B002091
:100BC0003C090020B40A00202C0B0020380B002028
:100BD000440B0020CC0A0020D80A0020E40A0020A0
:100BE000F00A0020FC0A0020080B0020140B002053
:100BF000200B0020500B00205C0B0020680B002015
:100C0000740B0020FC0B002074090020800B0020D6
:100C100000380140EC0B0020070C0020C00B002026
:100C2000FE0B0020E8090020D40B0020100A002051
:100C3000D80B0020FF0B0020980A0020000C002099
:100C40008C0B0020C009002074010020EA0B00205A
:100C50002DE9F84FDFF8388CD8F80800C0F30317F7
:100C6000DFF8300C01F0BFFCDFF82C9C484601F0A7
:100C7000BBF8002841F02180DFF8200C0078002824
:100C800001D001F0F6FE484601F007F90600DFF852
:100C9000100C0088002802D1484601F0C3F830004B
:100CA000C0B2012800F09780042800F08380052856
:100CB00000F0FE80062800F0C480072800F0E680DF
:100CC000092800F09A800A2800F0A980102800F076
:100CD0008786112800F01E82122800F04282132815
:100CE00000F03D83142800F06183152800F085830F
:100CF000162800F0A983172800F0CD83182800F0EB
:100D0000F083192800F07B821A2800F051821B28FA
:100D100000F0D5801C2800F04281202800F07C845F
:100D2000212800F01085222800F03685232800F0C5
:100D30005C85242800F08285252800F0B3852628CC
:100D400000F0AF84272800F08384282800F0D284A4
:100D50002B2800F056862C2800F0E486412800F06D
:100D6000BB82422800F07282472800F0C4854A28DE
:100D700000F082814B2800F0A681632800F0718783
:100D8000812800F0E785F02800F0F585FA2800F0CA
:100D9000CE83FB2800F00584FC2800F05B86FD284C
:100DA00000F08986FE2800F0E686FF2800F01E8706
:100DB00000F05BBF41F27C51DFF8182CDFF8180C13
:100DC00043890C20434302EB03008180484601F035
:100DD00048F800F072BFDFF8048C98F8610300282F
:100DE00009D0D8F85003002805D1484601F039F859
:100DF0000320C8F8500300F060BFDFF8E08B98F8DC
:100E00006103002809D0D8F85003002805D14846CE
:100E100001F027F80120C8F8500300F04EBFDFF8BA
:100E2000BC8B98F86103002809D0D8F8500300283B
:100E300005D1484601F015F80220C8F8500300F02B
:100E40003CBF98F80800000710D5DFF8908B98F8A1
:100E5000610300281AD0D8F85003002816D148465C
:100E600000F0FFFF0320C8F850030FE0DFF86C8BA1
:100E700098F86103002809D0D8F85003002805D15C
:100E8000484600F0EEFF0F20C8F85003DFF84C8B07
:100E900098F86103002809D0D8F85003002805D13C
:100EA000484600F0DEFF0C20C8F8500300F005BFF4
:100EB0000C20DFF8281BC1F8500300F0FEBE98F8A4
:100EC0000800000708D43800C0B2002804D0DFF8BA
:100ED000480C007CC00626D4DFF8400C007B0028BC
:100EE00010D0DFF8F88A98F86103002855D0D8F8B8
:100EF0005003002851D1484600F094FF5420C8F810
:100F000050034AE0DFF8D48A98F86103002844D0FF
:100F1000D8F85003002840D1484600F083FF012054
:100F2000C8F8500339E0DFF8B48AD8F8380200284E
:100F300033D198F8490200282FD0DFF8E4ABDAF873
:100F4000000001F011FB3221021AB0FBF1F001FBAD
:100F5000002132310C0040F2E930844202D34FF4D8
:100F60007A700400012088F84802A0B2C8F838025C
:100F7000D8F83802000505D1D8F8380250F0010041
:100F8000C8F83802200001F09FF9CAF800000120DB
:100F90008AF82400484600F045FF00F08EBE98F81D
:100FA0000800000708D43800C0B2002804D0DFF8D9
:100FB000680B007CC00626D4DFF8600B007B00289D
:100FC00010D0DFF8188A98F86103002852D0D8F8BA
:100FD000500300284ED1484600F024FF5520C8F8A1
:100FE000500347E0DFF8F48998F86103002841D006
:100FF000D8F8500300283DD1484600F013FF0220E6
:10100000C8F8500336E0DFF8D489D8F83802002851
:1010100030D198F8490200282CD0DFF804ABDAF878
:10102000000001F0A1FA3221021AB0FBF1F001FB3D
:10103000002132390C00642C01D26420040001200C
:1010400088F84802A0B2C8F83802D8F8380200057B
:1010500005D1D8F8380250F00100C8F83802200055
:1010600001F032F9CAF8000001208AF8240048464D
:1010700000F0D8FE00F021BE98F80800000710D557
:10108000DFF8588998F8610300281AD0D8F850037F
:10109000002816D1484600F0C5FE0120C8F85003CC
:1010A0000FE0DFF8388998F86103002809D0D8F8F4
:1010B0005003002805D1484600F0B4FE0820C8F8C7
:1010C000500300F0FABD98F80800000710D5DFF8CB
:1010D0000C8998F8610300281AD0D8F8500300282A
:1010E00016D1484600F09EFE0220C8F850030FE0DB
:1010F000DFF8E88898F86103002809D0D8F8500391
:10110000002805D1484600F08DFE0920C8F850039C
:1011100000F0D3BD98F80800000710D5DFF8BC88B0
:1011200098F8610300281AD0D8F85003002816D187
:10113000484600F077FE0220C8F850030FE0DFF8C1
:101140009C8898F86103002809D0D8F8500300283B
:1011500005D1484600F085FE1120C8F8500300F084
:10116000ACBD98F80800000710D5DFF8708898F833
:10117000610300281AD0D8F85003002816D1484639
:1011800000F050FE0120C8F850030FE0DFF84C8853
:1011900098F86103002809D0D8F85003002805D139
:1011A000484600F05EFE1220C8F8500300F085BDEE
:1011B00098F80800000710D5DFF8208898F8610338
:1011C00000281AD0D8F85003002816D1484600F05D
:1011D00029FE0220C8F850030FE0DFF8008898F8D5
:1011E0006103002809D0D8F85003002805D14846EB
:1011F00000F037FE1A20C8F8500300F05EBD98F8E2
:101200000800000710D5DFF8D48798F8610300289C
:101210001AD0D8F85003002816D1484600F002FE34
:101220000120C8F850030FE0DFF8B08798F8610399
:10123000002809D0D8F85003002805D1484600F00E
:1012400010FE1920C8F8500300F037BD98F80800C8
:10125000000710D5DFF8848798F86103002839D09B
:10126000D8F85003002835D1484600F0DBFD0220B5
:10127000C8F850032EE0DFF8488A98F9000010F112
:101280000E0F24DBDFF83CAABAF8000000281ED1BC
:1012900098F80000401E88F80000DFF840B79BF87F
:1012A000610300280ED0DBF8500300280AD148461D
:1012B00000F0B8FD98F8000000F0FF0050F4860040
:1012C000CBF850034FF49670AAF8000002E04846AD
:1012D00000F0A8FD00F0F1BC98F80800000710D558
:1012E000DFF8F88698F86103002836D0D8F8500364
:1012F000002832D1484600F095FD0120C8F850037F
:101300002BE0DFF8BC8998F900000F2822DADFF81B
:10131000B4A9BAF8000000281CD198F80000401CBD
:1013200088F80000DFF8B4B69BF8610300280CD001
:10133000DBF85003002808D1484600F073FD98F907
:10134000000050F48600CBF850034FF49670AAF8D2
:10135000000002E0484600F065FD00F0AEBC98F8E1
:101360000800000710D5DFF8748698F8610300289C
:101370001AD0D8F85003002816D1484600F052FD84
:101380000220C8F850030FE0DFF8508698F8610398
:10139000002809D0D8F85003002805D1484600F0AD
:1013A00060FD1320C8F8500300F087BC98F80800CF
:1013B000000710D5DFF8248698F8610300281AD0BA
:1013C000D8F85003002816D1484600F02BFD012024
:1013D000C8F850030FE0DFF8048698F8610300288E
:1013E00009D0D8F85003002805D1484600F039FD4F
:1013F0001420C8F8500300F060BC98F808000007FB
:1014000010D5DFF8D88598F8610300281AD0D8F8ED
:101410005003002816D1484600F004FD0220C8F809
:1014200050030FE0DFF8B48598F86103002809D075
:10143000D8F85003002805D1484600F012FD1520C9
:10144000C8F8500300F039BC98F80800000710D520
:10145000DFF8888598F8610300281AD0D8F850037F
:10146000002816D1484600F0DDFC0120C8F85003E2
:101470000FE0DFF8688598F86103002809D0D8F8F4
:101480005003002805D1484600F0EBFC1620C8F8B0
:10149000500300F012BC98F80800000710D5DFF8E0
:1014A0003C8598F8610300281AD0D8F8500300282A
:1014B00016D1484600F0B6FC0120C8F850030FE0F2
:1014C000DFF8188598F86103002809D0D8F8500390
:1014D000002805D1484600F0C4FC1720C8F8500386
:1014E000EBE398F80800000710D5DFF8F08498F8CF
:1014F000610300281AD0D8F85003002816D14846B6
:1015000000F090FC0220C8F850030FE0DFF8CC8414
:1015100098F86103002809D0D8F85003002805D1B5
:10152000484600F09EFC1820C8F85003C5E398F820
:101530000800000710D5DFF8A48498F8610300289C
:101540002ED0D8F8500300282AD1484600F06AFC73
:101550000220C8F8500323E0484600F082FCDFF880
:1015600068A701208AF80000DFF870B49BF86103D7
:1015700000280BD0DBF85003002807D1484600F0C4
:1015800070FC9AF800004730CBF850039AF800003E
:10159000473088F80C008021DFF8300701F0F6FFB3
:1015A0008BE398F80800000710D5DFF8308498F82E
:1015B000610300282FD0D8F8500300282BD14846CB
:1015C00000F030FC0120C8F8500324E0484600F049
:1015D00048FCDFF8F4A69AF8000001281BD100208F
:1015E0008AF80000DFF8F4B39BF8610300280BD001
:1015F000DBF85003002807D1484600F032FC9AF887
:1016000000004730CBF850039AF80000473088F8C4
:101610000C0001F0E2FE50E398F80800000713D434
:10162000DFF8B8A39AF86103002809D0DAF850036C
:10163000002805D1484600F014FC2020CAF85003C9
:10164000202088F80C0002E0484600F00AFC34E351
:1016500098F80800000710D5DFF8808398F8610338
:1016600000281DD0D8F85003002819D1484600F0B2
:10167000F8FB0320C8F8500312E0DFF860A39AF8E3
:101680006103002809D0DAF85003002805D1484644
:1016900000F0E7FB2720CAF85003272088F80C0049
:1016A0000BE398F80800000710D5DFF8308398F8AE
:1016B000610300281DD0D8F85003002819D14846EE
:1016C00000F0CFFB0320C8F8500312E0DFF80CA3B2
:1016D0009AF86103002809D0DAF85003002805D1F0
:1016E000484600F0BEFB2620CAF85003262088F8A2
:1016F0000C00E2E298F80800000710D5DFF8DC8261
:1017000098F8610300281DD0D8F85003002819D19B
:10171000484600F0A6FB0320C8F8500312E0DFF8AB
:10172000BCA29AF86103002809D0DAF85003002817
:1017300005D1484600F095FB2820CAF85003282020
:1017400088F80C00B9E298F80800000710D5DFF817
:101750008C8298F8610300281DD0D8F85003002827
:1017600019D1484600F07DFB0320C8F8500312E071
:10177000DFF868A29AF86103002809D0DAF850036C
:10178000002805D1484600F06CFB2120CAF8500320
:10179000212088F80C0090E298F80800000710D586
:1017A000DFF8388298F8610300281DD0D8F850037C
:1017B000002819D1484600F054FB0320C8F8500314
:1017C00012E0DFF818A29AF86103002809D0DAF8CD
:1017D0005003002805D1484600F043FB2220CAF8F8
:1017E0005003222088F80C0067E298F808000007F0
:1017F00010D5DFF8E88198F8610300281DD0D8F8EB
:101800005003002819D1484600F02BFB0320C8F8EC
:10181000500312E0DFF8C4A19AF86103002809D050
:10182000DAF85003002805D1484600F01AFB2320BF
:10183000CAF85003232088F80C003EE298F808000C
:10184000000710D5DFF8948198F8610300281DD0B7
:10185000D8F85003002819D1484600F002FB0320B5
:10186000C8F8500312E0DFF874A19AF86103002869
:1018700009D0DAF85003002805D1484600F0F1FA03
:101880002420CAF85003242088F80C0015E200BF79
:10189000380A0020B00B0020C00800206C01002096
:1018A000F20B002098F80800000710D5DFF82C8113
:1018B00098F8610300281DD0D8F85003002819D1EA
:1018C000484600F0CEFA0320C8F8500312E0DFF8D3
:1018D0000CA19AF86103002809D0DAF85003002817
:1018E00005D1484600F0BDFA2520CAF8500325204E
:1018F00088F80C00E1E198F80800000710D5DFF83F
:10190000DC8098F86103002823D0D8F85003002821
:101910001FD1484600F0A5FA0320C8F8500318E08C
:10192000DFF8B8A09AF8610300280CD0DAF8500369
:10193000002808D1484600F094FADFF88C030078BC
:101940004730CAF85003DFF880030078473088F842
:101950000C00B2E1DFF8848098F86103002809D018
:10196000D8F85003002805D1484600F07AFA07203D
:10197000C8F85003A1E198F80800000710D5DFF877
:101980005C8098F86103002822D0D8F85003002822
:101990001ED1484600F065FA0720C8F8500317E04A
:1019A000484600F03FFA5D488078002810D0C848CB
:1019B00008490C22438953430B445FF0960CA3F86B
:1019C00004C0408902FB00F201EB02000021017219
:1019D00073E100BFA8070020500B00207401002015
:1019E000DFF8F08298F86103002809D0D8F8500396
:1019F000002805D1484600F034FA1020C8F85003FA
:101A00005BE198F80800000710D5DFF8C88298F865
:101A1000610300281DD0D8F85003002819D148468A
:101A200000F01FFA0320C8F8500312E0DFF8A4A268
:101A30009AF86103002809D0DAF85003002805D18C
:101A4000484600F00EFA2B20CAF85003272088F8E9
:101A50000C0032E198F80800000710D5DFF8748216
:101A600098F86103002825D0D8F85003002821D128
:101A7000484600F0D7F90120C8F850031AE0DFF813
:101A8000A080002088F82600484600F0CBF9D8F85E
:101A90000400914900F056FD0CD2D8F804105FF014
:101AA0007E5000F05FFCC8F80400D8F80410042051
:101AB000FFF734F801E198F80800000710D5DFF8C7
:101AC000148298F86103002824D0D8F85003002825
:101AD00020D1484600F0A6F90220C8F8500319E0CA
:101AE000DFF83C80002088F82600484600F09AF98C
:101AF000D8F80400794901F07DFD0BD8D8F804101E
:101B0000774800F02FFCC8F80400D8F8041004202F
:101B1000FFF704F8D1E000BF48050020540A002078
:101B2000C009002098F80800000710D5DFF8A4814C
:101B300098F8610300281DD0D8F85003002819D167
:101B4000484600F08EF90320C8F8500312E0DFF891
:101B500084A19AF86103002809D0DAF8500300281C
:101B600005D1484600F07DF92C20CAF85003272003
:101B700088F80C00A1E098F80800000710D5DFF8FD
:101B8000548198F8610300282FD0D8F8500300281A
:101B90002BD1484600F046F90120C8F8500324E054
:101BA000DFF84081002088F82700484600F03AF925
:101BB000D8F808004C4900F0C5FC16D2D8F8080047
:101BC00000F0E4FC0A2110F10A02121A90FBF1F075
:101BD00001FB00210D00280001F01EFDC8F80800DF
:101BE000D8F808100520FEF799FF66E098F808007D
:101BF000000710D5DFF8DC8098F8610300282FD0AB
:101C0000D8F8500300282BD1484600F00BF90220E9
:101C1000C8F8500324E0484600F004F9DFF8C48017
:101C2000002088F82700D8F80800304901F0E2FCCD
:101C300016D8D8F8080000F0A9FC0A21B0F10A0271
:101C4000121A90FBF1F001FB00210D00280001F0B9
:101C5000E3FCC8F80800D8F808100520FEF75EFF7E
:101C60002BE0484600F0DEF827E098F8080000076F
:101C700010D5DFF8608098F8610300281DD0D8F8EF
:101C80005003002819D1484600F0EBF80320C8F8AB
:101C9000500312E0DFF83CA09AF8610300280AD054
:101CA000DAF85003002806D1484600F0DAF8300090
:101CB000C0B2CAF8500388F80C60BDE8F18F00008C
:101CC000FD0B0020F00B0020020C00200000024061
:101CD0002C0B00207401002000004842FFFF47C287
:101CE000000080BFC0090020008077440100484305
:101CF000704730B4002513E050F8042BD30744BFDD
:101D0000A9F101039A18091F042942F8045BFAD2C9
:101D100013468C0744BF15809B1CC90748BF1D7024
:101D200050F8041B0029E7D130BC704762B38B0721
:101D300008D0521E11F8013B00F8013B00F024804E
:101D40008B07F6D1830740F0208000BF103A07D3FD
:101D500030B4B1E83810103AA0E83810F9D230BCED
:101D6000530724BFB1E80810A0E8081044BF51F899
:101D7000043B40F8043BD20724BF31F8022B20F883
:101D8000022B44BF0B7803707047121F17D35B0000
:101D900009D151F8043B20F8023B1B0C121F20F81C
:101DA000023BF6D20BE051F8043B00F8013B1B0A62
:101DB00020F8023B1B0C121F00F8013BF3D238BF86
:101DC000121D521E24BF11F8013B00F8013BF8D848
:101DD00070471170506000231372137A53720123FD
:101DE00093720023D3727047807A7047C07A70472D
:101DF0000100887A002801D0002011E0C87A00286C
:101E000001D008780CE0087A4A7A904203D24A7AE4
:101E1000087A101A04E00A78487A8218087A101AA8
:101E2000C0B27047417A0172012181720021C172F2
:101E30007047C27A002A13D1427A531C4372436816
:101E4000D2B29954427A03789A4201D30022427264
:101E5000427A037A9A4201D10122C272002282722E
:101E600070470200907A002814D1107A431C137234
:101E70005368C0B2185C0100107A1378984201D3FD
:101E800000201072507A137A984201D1012090728A
:101E90000020D0720800C0B270474168007A085C28
:101EA0007047F8B504002000FFF7A2FF05002421C9
:101EB0002000FFF7BEFF002630002900C0B2C9B2E3
:101EC00088421CD22000FFF7CCFF07003800C0B2C8
:101ED000242807D03800C0B22F2803D03800C0B261
:101EE0003B2805D12F212000FFF7A3FFFFB2FF43BE
:101EF0003900C9B22000FFF79CFF761CDCE73B21CC
:101F00002000FFF796FFF1BDF8B504002000FFF7B1
:101F10006FFF0500002630002900C0B2C9B2884218
:101F20001DD22000FFF79DFF07003800C0B2242813
:101F300013D03800C0B23B280FD03800C0B22F28D1
:101F400006D12000FFF78DFFC0B2C04307006D1E11
:101F50003900C9B22000FFF76CFF761CDBE7F1BD4A
:101F60002DE9F04704005FF000082000FFF740FF74
:101F700081465FF0000A50464946C0B2C9B2884265
:101F800029D22000FFF76DFF05002900C9B220000B
:101F9000FFF74FFF95EA0808002007003800C0B29D
:101FA000082815DA18F0010006003000C0B2002839
:101FB00008D098F018085FFA88F85FEA580858F0D7
:101FC000800803E05FFA88F85FEA58087F1CE5E7BD
:101FD0001AF1010ACFE74046C0B2BDE8F08738B534
:101FE00004002000FFF7BCFF05002800C0B2002855
:101FF0000BD1607A002803D12078401E607202E085
:10200000607A401E6072012003E02000FFF70AFFA3
:10201000002032BD70B504002000FFF7E9FE060085
:1020200020783100C9B2B0EB410F0ADB2000FFF786
:1020300097FF05002900C9B22000FFF7FAFE012032
:1020400000E0002070BD000010B504005648844236
:102050000AD101214FF4804001F0E1FB00214FF44F
:10206000804001F0DCFB36E0504884420AD1012177
:102070005FF4003001F0E1FB00215FF4003001F07B
:10208000DCFB28E04A4884420AD101215FF4802029
:1020900001F0D3FB00215FF4802001F0CEFB1AE0B9
:1020A000444884420AD101215FF4002001F0C5FBBD
:1020B00000215FF4002001F0C0FB0CE03E488442A8
:1020C00009D101215FF4801001F0B7FB00215FF41A
:1020D000801001F0B2FB10BD2DE9F04F85B0040077
:1020E0000D00002600275FF000085FF00009A889B6
:1020F0000028218A31F44051E8880143009100987A
:102100002082B4F80CA02D4810EA0A0AA988288970
:1021100001436889014351EA0A0AA4F80CA0B4F803
:1021200014B03BF4407BA88950EA0B0BA4F814B020
:1021300001A801F0B3FA1C48844201D1049900E0DF
:102140000399A089000407D5192000FB01F02A6833
:102150005200B0FBF2F206E0192000FB01F02A6801
:102160009200B0FBF2F26420B2FBF0F636013300CD
:102170001B09642000FB1323A089000408D5D800A4
:1021800032306427B0FBF7F010F00700064307E099
:10219000180132306427B0FBF7F010F00F0006434F
:1021A000268105B0BDE8F08F0038014000440040B2
:1021B00000480040004C004000500040F3E9FFFFA1
:1021C0000A00D2B2002A04D0828952F400528281DD
:1021D00004E083894DF6FF72134083817047CA057E
:1021E000D20D828070478088C005C00D70472DE9F0
:1021F000F0410023002500275FF0000E0C0040F6A0
:102200006A16A4B2B44280460C00E4B26409E4B297
:102210000E00B6B216F01F065FF0010C1CFA06FCA9
:10222000012C02D118F10C0806E0022C02D118F1A1
:10223000100801E018F114081300DBB2002B06D0DF
:10224000D8F800305CEA0303C8F8003005E0D8F89D
:10225000003033EA0C03C8F80030BDE8F081F0B478
:10226000040000270020002200260B0040F66A151B
:102270009BB2AB420D00EDB26D09EDB20B009BB20B
:1022800013F01F035FF0010C1CFA03F3012D02D1C0
:10229000A089034006E0022D02D1208A034001E01C
:1022A000A08A03400A0092B2120A92B21CFA02F209
:1022B00020880240002B03D0002A01D0012000E03A
:1022C0000020C0B2F0BC704700280AD0B0FA80F1FC
:1022D0008840D1F19D01C905020672F1004241EB2F
:1022E0001020704790EA010F40F1428081F00041D8
:1022F000421A3CBF801A89184FF0004CC0F3C752F5
:10230000FF2A24D0C1F3C75313B3D21AD2F1190351
:1023100027DD4CEA01214CFA03F321EA0303D14003
:10232000C20D4CEA0020401834BF20EA0C004CEAF1
:102330005000D20553EA006373EB0C0C52EB1020F3
:10234000420012F1807F38BF7047C00DC005704752
:10235000490212BF9A4200EB5120F8E7D2F117036D
:10236000D9D5704790EA010F7FF5C2AF81F00041E7
:10237000431A4FF000423EBF5340C01AC91800BF75
:10238000D3095FEAD05C13EB400F34BFB3EB410FCE
:1023900040E07CEBD1530CD342EA012122D8D1EBAF
:1023A000402009D3400A28BF5FEA500140EBCC50DF
:1023B0007047401A15D04002B0FA80F2521C90408B
:1023C000400A4FEA3C23B3EB026384BF00EB730087
:1023D00007E040F400001A16DB07C2F10102D0400A
:1023E00018437047182BFCDC31FA03F202FA03F3AE
:1023F000591A38BF42F00102D2EB40203CBF4000E6
:10240000ACF1010C5FEACC5CC20572F100414CEB0F
:102410005020704713EB400F0FD2C94209D0ACEBEC
:10242000D153022B03DB4902172BDDDD70479143AB
:10243000401AC042D5D10020704713EB410FD0D3D2
:102440006FF000007047000010B5FF2313EAD0546E
:102450001DBF13EAD1529C429A4239E0A41ADA070E
:1024600080EA0103134042EA012142EA0020421AB5
:102470003CBF641E01EB4202090AB2FBF1FE01FB04
:102480001E221202B2FBF1F001FB10226EF30F20AC
:102490001202B2FBF1FE4EEA00207F3406DDFE2C74
:1024A00024DA53EA500050EBC45010BDD4F10204BA
:1024B00001FB1E2240F08071192C1DDC21FA04F072
:1024C000C4F12004A140114371F10042584110BDF4
:1024D0009C421ABF03EAD1529A420FE080EA010EF1
:1024E0000EF00043400004D0490016D143F0FF40F5
:1024F00010BD490008BFD343180010BD9C4205D150
:10250000D21AF7D001F00041484010BD4A0212BF74
:102510000846484000F0004010BD4AB90902B1FA2F
:1025200081F2914044B1A418C00140F000409EE700
:10253000C90141F0004152420002B0FA80F4A040CB
:10254000141B94E74FF0807C1CEB400F94BF1CEBF6
:10255000410F05E040EA010C1CEB0C0F01D2884250
:10256000704718BF8142704700180CD2010E7F39A6
:1025700009D4D1F11F015DBFC00140F00040C84047
:102580006FF000007047002070470000C0F3C75193
:102590007E390EDDC217D1F1200106DD000240F0C8
:1025A0000040C840104450407047D04380F0004085
:1025B00070470020704710609180002393710023C2
:1025C000D371704710B50400A188206800F0CEFFD9
:1025D000002807D1E079401CE071E079C92801DBCF
:1025E000C820E07110BD10B50400A188206800F07B
:1025F000BDFF00280CD0E079032805DBE0791F2817
:1026000002DA0120A07101E00020A0710020E07139
:10261000E0791F2801DB0220A071A07910BD000025
:10262000DFF89C180888002800D172B60888401C82
:1026300008807047DFF888080188491E01800088FB
:10264000002800D162B6704738B50020DFF8B41713
:102650000870DFF8B40722210170002141600021D9
:1026600081760021417664210161002141610121CF
:102670000176DFF8981700220A7001220A760122FB
:102680000A77012281F83420022281F838200122C1
:1026900081F85020032281F85420012281F86C2017
:1026A000042281F87020012281F88820052281F817
:1026B0008C20002281F8A420062281F8A820002284
:1026C00081F8C020072281F8C420012281F8DC2093
:1026D000082281F8E020012281F8F820092281F8FF
:1026E000FC20012281F814210A2281F818210122FC
:1026F00081F830210B2281F83421012281F84C210C
:102700000C2281F85021002281F868210D2281F8E5
:102710006C21002281F884210E2281F88821002278
:1027200081F8A0210F2281F8A421002281F8BC2188
:10273000102281F8C021012281F8D821112281F8CC
:10274000DC21012281F8F421122281F8F8210022F3
:1027500081F81022132281F81422002281F82C2201
:10276000142281F83022012281F84822152281F8B2
:102770004C22012281F86422162281F8682201226B
:1027800081F88022172281F88422012281F89C227C
:102790001E2281F84823012281F8602300221300C1
:1027A0000478DBB2A3420FD21C231400E4B25C43D2
:1027B0000C44012565761400E4B203FB04F30B44DA
:1027C00000249C76521CEAE70120DFF8F816087016
:1027D000DFF8F406FFF726FB31BD2DE9F84F0025A1
:1027E000DFF820663778DFF82086D8F81000002858
:1027F00040F0C88098F81900002800F09880202048
:1028000000F075F9C8F80400002004002000C0B2F0
:10281000202880F2B180D8F80400E040C00740F1E1
:1028200084805FF01C09DFF8E4A52000C0B209FB3A
:1028300000F00AEB000B2000C0B209FB00F01AF810
:10284000000000F054F9CBF804002000C0B209FBEE
:1028500000F0504440682100C9B209FB01F1514425
:102860004969884226D02000C0B209FB00F05044DC
:10287000007E00281ED02000C0B2112803DB2000FB
:10288000C0B21E2803D10020DFF8A41B488220001C
:10289000C0B209FB00F050442100C9B209FB01F1AC
:1028A0005144496981602000C0B209FB00F05044E6
:1028B000012141762000C0B21E2814D10120DFF88A
:1028C000101681F824002000C0B209FB00F050442B
:1028D00040690C2807D198F80800000703D598F83C
:1028E0000C00CAF850032000C0B2112806D1DFF84E
:1028F000440B0078002801D100F08AFA2000C0B211
:1029000009FB00F05044007E00280ED02000C0B229
:1029100009FB00F90AEB0900012141762000C0B251
:102920001E2802D1002088F81900641C6EE71C21C3
:10293000DFF8D8242000C0B248431044407E00286D
:102940000AD12000C0B2484310442300DBB24B43FD
:1029500013449B7E5B1C83762000C0B201FB00F118
:1029600002EB0100807E0B2806DB0120DFF86015FA
:1029700081F82400FFF768FE0020C8F804006420F6
:10298000C8F81000002030702800C0B200286ED1B6
:102990005FF01C09DFF874A4307809FB00F05044A4
:1029A0008068002858D0307809FB00F05044407E01
:1029B000012851D101200500307815280EDB307830
:1029C00018280BDA307809FB00F05044317809FB05
:1029D00001F15144896821F070418160307809FB30
:1029E00000F0504400214176307809FB00F050445B
:1029F0008168307809FB00F01AF8000050F0800080
:102A0000C0B200F0B6F8307809FB00F050443178DD
:102A100009FB01F151440969C160307809FB00F0FC
:102A20005044317809FB01F15144896841613078A3
:102A30001E280AD1307809FB00F050448068322803
:102A400003D10020DFF884140870307809FB00F906
:102A50000AEB0900002181603078401C307098F842
:102A60000000317888428FD2012005008CE7BDE854
:102A7000F18F10B5DFF89043122000F038F8A06015
:102A8000A068DFF8B419086010BD30B4DFF878131F
:102A9000487E002805D00869002802D00869401E39
:102AA00008614869002802D04869401E4861002238
:102AB00010000B78C0B2984217D21C23DFF87C4973
:102AC0001000C0B258432044C06800280BD010004A
:102AD000C0B2584320441500EDB203FB05F3234474
:102AE000DB685B1EC360521CE2E730BC70472DE917
:102AF000F84304000025FFF793FDDFF8E0834FF46F
:102B00008051404600F042FDDFF8CC932100C9B26D
:102B100089B2484600F0EAFE0221484600F0E8FE8D
:102B20000028F9D0484600F0DFFE00263000C0B291
:102B3000042814DA0021484600F0D8FE0221484655
:102B400000F0D6FE0028F9D0484600F0CDFE070080
:102B500028003D00EDB255EA0025761CE6E74FF46B
:102B60008051404600F010FDFFF764FD2800BDE8ED
:102B7000F2832DE9F84F04000D000026FFF750FD09
:102B8000DFF858734FF48051380000F0FFFCDFF895
:102B900048832100C9B251F0800189B2404600F05B
:102BA000A5FE0221404600F0A3FE0028F9D0A94668
:102BB0005FEA19694946C9B289B2404600F096FEFB
:102BC0000221404600F094FE0028F9D0AA465FEAB0
:102BD0001A4A5146C9B289B2404600F087FE022126
:102BE000404600F085FE0028F9D0AB465FEA1B2B7B
:102BF0005946C9B289B2404600F078FE02214046EB
:102C000000F076FE0028F9D0A9464946C9B289B23B
:102C1000404600F06BFE0221404600F069FE0028AD
:102C2000F9D0FFF707FD4FF48051380000F0ACFCFD
:102C300075480021017601214176BDE8F18F2DE92B
:102C4000FE4F82B005000E9E0F9C109F2800C0B260
:102C5000102802D15FF0080801E05FF00808B7F122
:102C6000E04F5ED22000C0B2002803D057F00440ED
:102C7000019002E057F080600190DFF8C497DFF820
:102C800054A24046C0B2FFF71FFB039900F03AFE82
:102C9000DAF8081000F036FE8346DAF80C004946F0
:102CA00000F030FE310000F02DFE01005846FFF725
:102CB000CBFB83464046C0B2FFF706FB029900F00B
:102CC00021FEDAF8081000F01DFE0090DAF80C0082
:102CD000494600F017FE310000F014FE0100009894
:102CE000FFF7B2FBDDF80490FFF73EFCC004C00C18
:102CF00050EA09095846FFF737FCBDF810100818CC
:102D0000DFF8401711EA403151EA0909DFF82C17C2
:102D10002A00D2B21C20424301EB0200C0F8089006
:102D20000AE05FF00041DFF814272B00DBB21C2023
:102D3000434302EB0300816005B0BDE8F08F80B52E
:102D4000DFF8EC06DFF800178160DFF8001741605C
:102D5000DFF8FC16C1605F490A7CD20604D5032067
:102D60002A4AC2F81C0243E00422284BC3F81C2262
:102D7000042202756422C2824FF4C87202834FF4A7
:102D8000FA7242834FF416728283C2830284002255
:102D90004286002282860022C2860022028740F2FA
:102DA00013124287828740F2E512C28740F28522E1
:102DB000A0F840200022A0F842200022A0F84E20D7
:102DC0000122A0F850200222A0F852200322A0F8ED
:102DD00054200722A0F856200822A0F858200922E3
:102DE000A0F85A200A22A0F85C200B22A0F85E204E
:102DF000012008600120DFF83C16087000F0EEFDAD
:102E000001BD0000F60B0020380A002074010020EC
:102E100030B430494868001D0A6890420CD20868F6
:102E2000082809D30020DFF8141681F8F4010120E6
:102E3000DFF80016087038E0DFF80026D2F8E0016D
:102E4000002832D0086800280ED192F8E001AA28A4
:102E50000AD00120DFF8DC3518700020C2F8E0014C
:102E600044F20100086120E00868002807D0081D2E
:102E70000300D2F8E0410D682B4403F8014CD2F86E
:102E8000E00110F47F400B681B0213F500739842B9
:102E900002D10868401C08600868000210F5007044
:102EA000C2F8E4010020C2F8E00130BC7047DFF84E
:102EB0008015488A002802D0488A401E4882704700
:102EC000E40B0020F70B0020C00800206C0100205C
:102ED000C0090020480500200038004000040240DE
:102EE0002DE9F04F93B0FFF7C4FDDFF868A5DAF8DD
:102EF0000800C0F303108DF82400DFF85C65307C17
:102F000000060ED5DFF854252000116800F00CFEF5
:102F100004D00120DFF8481581F8240010680B90D8
:102F200001E0B0680B90F0680B99FFF78DFA1290F2
:102F3000DFF82C7597F82400002800F0118200209B
:102F400087F8240097F82500002802D000200E9072
:102F500002E05FF080400E905FF0D84BCDF830B0CB
:102F6000DFF8CC44DFF8FC549AF8080010F00300B6
:102F700055F820100B9800F0C5FCE16800F0C2FC89
:102F80008046F168386800F0BDFC01004046FFF75C
:102F90005BFAFFF7E9FAD0F5F8700D90608F0A90B0
:102FA0005FF01C09DFF89484B4F8560009FB00F0C8
:102FB00040440C990D9AD204D20C11430A9ADFF8BE
:102FC000843413EA4233194381609AF8080010F000
:102FD000030055F820100B9800F094FCE16800F015
:102FE00091FC0090F168386800F08CFC01000098BA
:102FF000FFF72AFAFFF7B8FAD0F5F8700D90A08F16
:103000000A90B4F8580009FB00F040440D99C90437
:10301000C90C51EA0B010A9ADFF8283413EA42334B
:1030200019438160F869DFF8401400F0E3FA02D830
:10303000DFF83804F861DFF83814F869FFF782FA2E
:1030400000D2F9610E9850F080600C90306910F455
:10305000405F56D040F20E6BF869FFF797FA0521F2
:1030600001FB10BBCDF834B01298DFF8081400F063
:10307000C1FA1DD840F2947B9AF8080010F00300C2
:1030800055F820100B9800F03DFC00F05BFDDFF8D8
:10309000E823DFF8E83300F079FD0022DFF8E033C1
:1030A00000F046FE00F002FFBBEB00000A9017E0C4
:1030B00040F2947B29680B9800F024FC00F042FD5C
:1030C000DFF8B423DFF8B43300F060FD0022DFF84E
:1030D000B03300F02DFE00F0E9FEBBEB00000A90DB
:1030E000B4F85A0009FB00F040440C990D9AD20440
:1030F000D20C11430A9AD34B13EA4233194381602D
:1031000007E0B4F85A0009FB00F040445FF00041CA
:103110008160306910F4405F54D00E9850F08060A8
:103120000C90307CC00603D40C9850F000400C90FA
:10313000F869FFF72BFA0521484300F20E600D9065
:103140001298CC4900F056FA18D89AF8080010F0F6
:10315000030055F820100B9800F0D4FB00F0F2FCAF
:10316000C54AC64B00F012FD0022C54B00F0E0FD41
:1031700000F09CFE00F294700A9012E029680B980F
:1031800000F0C0FB00F0DEFCBB4ABC4B00F0FEFCD4
:103190000022BB4B00F0CCFD00F088FE00F29470E2
:1031A0000A90B4F85C0009FB00F040440C990D9AB9
:1031B000D204D20C11430A9AA24B13EA42331943A8
:1031C000816007E0B4F85C0009FB00F040445FF068
:1031D00000418160307CC00640F1C280002528009B
:1031E000217D80B289B2884262D23868A54900F058
:1031F00001FA1DD85FF0E040029000200190280005
:1032000080B204EB4000C08AFFF75EF8009028000F
:1032100080B204EB4000438E109A0F99280080B2D0
:1032200004EB4000B0F84E00C0B2FFF708FD3DE0EF
:103230009DF824102420414306EB010010F11401F5
:1032400082B068462422FEF781FD0CBCCDE907233D
:10325000280080B204EB4000C08AFFF735F8010077
:10326000DDE907230FA800F05BFE9DF8440000286D
:103270001CD05FF0C040029000200190280080B276
:1032800004EB4000C08AFFF71FF80090280080B2CE
:1032900004EB4000438E109A0F99280080B204EB93
:1032A0004000B0F84E00C0B2FFF7C9FC6D1C96E7B5
:1032B0009AF80800000712D59DF8241024204143F5
:1032C00006EB010010F1140182B068462422FEF7DB
:1032D0003DFD0CBC5A490FA800F022FE11E09DF8FC
:1032E00024102420414306EB010010F1140182B0A8
:1032F00068462422FEF72AFD0CBC39680FA800F0AE
:103300000FFE9DF8440000280DD05FF0C0400290F1
:1033100001200190386800900023109A0F99102026
:10332000FFF78DFC1CE0B4F85C0009FB00F04044A2
:10333000B4F85C1009FB01F14144896851F0004187
:103340008160B4F85A0009FB00F04044B4F85A1008
:1033500009FB01F908EB0901896851F0004181601E
:1033600064203349488213B0BDE8F08F38B5464C2D
:103370002078032816D101202070394D002085F8CF
:10338000240033202D49C1F85003332031490873FC
:1033900095F82400012802D0FFF71FFAF8E7002073
:1033A00085F824002078022816D1002020702C4CAB
:1033B000002084F8240034202049C1F85003342030
:1033C0002449087394F82400012802D0FFF705FA75
:1033D000F8E7002084F8240031BD38B500258021AD
:1033E0002A4800F0D1F82A4C002020702078642868
:1033F00014DA20780A2190FBF1F201FB120009286F
:10340000F4D124488088FEF75FFF01002800FEF712
:10341000A9FF05002078401C2070E7E728001E491E
:10342000FFF712F81D49FEF79DFF1D49C86031BD29
:10343000D0080020F90B0020D00B002074010020E0
:103440000000C84200E0FF03A69B443C333309421E
:103450009A99D93F380A002048050020DC0B00204B
:10346000C0090020C80000200100F0410000F04128
:103470000000F0C173335C399A9999999999114078
:10348000000030400100C842000C00200000024053
:10349000F80B0020C00B0020000020410000484233
:1034A000980A0020F0B50022002300240025102DEA
:1034B0005BD2012616FA05F213000A681A401400BE
:1034C0009C4250D103270268AC465FFA8CFC5FEA4D
:1034D0004C0C17FA0CFC32EA0C020260D0F800C067
:1034E00091F804E02A00D2B252001EFA02FE5EEA0F
:1034F0000C0CC0F800C00A79012A02D00A79022A0D
:1035000021D18268AC465FFA8CFC5FEA4C0C17FA5A
:103510000CFC32EA0C028260D0F808C091F805E099
:103520002A00D2B252001EFA02FE5EEA0C0CC0F86B
:1035300008C08288AE4032EA0606868082888E798C
:10354000AE4032438280C6682A00D2B25200974011
:1035500036EA0707C760C668CF792A00D2B25200A0
:1035600097403E43C6606D1CA1E7F0BD10B4020059
:103570000023108A0C00A4B2204201D0012000E0F8
:103580000020C0B210BC7047018370474183704770
:10359000F0B5002400251300DBB211F00706F6B2E7
:1035A000B60013FA06F60B009BB2DB1000EB8307A4
:1035B0000B009BB2DB1000EB8303D3F820C05FF05D
:1035C0000F0E11F00703DBB29B001EFA03FE3CEA6C
:1035D0000E0CC7F820C00B009BB2DB1000EB83037E
:1035E0001B6A33430F00BFB2FF1000EB87073B623B
:1035F000F0BD00004FF0807C1CEB400F94BF1CEB33
:10360000410F05E040EA010C1CEB0C0F01D2814296
:10361000704718BF88427047C2175040801AB0FAEE
:1036200080F10AD08840D1F19D01D20742EAC15110
:10363000020672F1004241EB102070470100C9B24E
:10364000DFF81C221160704710B452EA01030343F3
:10365000DFF81042237010BC70470100C9B2DFF8D8
:103660000822116070470021DFF8EC311A689208D7
:10367000920002431A6070470021DFF8DC311A68BB
:1036800032F0F00202431A6070470021724B1A6850
:1036900032F4605252EAC0021A6070472DE9F04FCE
:1036A00001000022002300240020002500266A4F8C
:1036B000D7F800C01CF00C0CE646BEF1000F09D094
:1036C000BEF1040F17D0BEF1080F17D0BEF10C0FDA
:1036D00018D03EE0614A1268C2F3423216005FF031
:1036E000010E721C1EFA02FE4FF4004202FB0EFE97
:1036F000C1F800E03DE05D4A0A603AE05FF4610233
:103700000A6036E03A6812F47012D7F800E01EF44E
:10371000400EDFF85C81920C18F8022013005FEA7B
:103720009E5E1EF1010E74463A6812F4803210005B
:10373000002806D14D4A02FB03F2B2FBF4F20A6004
:1037400006E05FF4610202FB03F2B2FBF4F20A60EE
:103750000FE0424A1268C2F3423216005FF0010ED7
:10376000721C1EFA02FE4FF4004202FB0EFEC1F86C
:1037700000E0D7F8008018F0F0085FEA1818DFF8CA
:10378000F4A01AF80820D1F800E03EFA02FEC1F8D1
:1037900004E0D7F8009019F4E0695FEA19291AF8F3
:1037A00009E0D1F804B03BFA0EFBC1F808B03F685D
:1037B00017F46057FF0A1AF807A0D1F804B03BFAD3
:1037C0000AFBC1F80CB0BDE8F08F0A00D2B2002AA3
:1037D00004D0294A13680343136003E0264A1368A0
:1037E0008343136070470A00D2B2002A04D0234AF0
:1037F00013680343136003E0204A13688343136094
:1038000070470A00D2B2002A04D01D4A136803434D
:10381000136003E01A4A13688343136070470A0079
:10382000D2B2002A04D0174A13680343136003E09E
:10383000144A13688343136070470A00D2B2002A07
:1038400004D0114A13680343136003E00E4A13685F
:103850008343136070470000083802400438024078
:10386000000047420A380240600047420024F4004A
:10387000300100203C0100201C380240203802406A
:1038800024380240143802401838024030B4002373
:10389000048814F441540D884A8815438A881543D6
:1038A000CA8815430A8915434A8915438A891543ED
:1038B000CA8915432C430480858B4FF2FF72154053
:1038C00085830A8A028230BC70470A00D2B2002A7D
:1038D00004D0028852F04002028004E003884FF6D0
:1038E000BF721340038070478089704781817047A1
:1038F000020000231089084201D0012000E00020CE
:10390000C0B27047FF2212EAD05C1DBF12EAD15349
:10391000944593422BE09C44D30780EA01021A406D
:1039200043EA002043EA0121A1FB0030C04238BF36
:1039300040007CF17F010BDBFE294ADA5B0842EA9A
:10394000C15153EA006373F1004C51EB10207047F2
:10395000D1F1080CDCF120012FDB5B0810FA01F13A
:103960000B4320FA0CF073F100415041704794452D
:103970001CBF02EAD153934280EA010202F00042E6
:103980001DD0400019D0490017D05BB9634514D051
:103990000902B1FA81F39940BCEB030CC00140F07D
:1039A0000040C1E70002B0FA80FC10FA0CF0B3EB63
:1039B0000C0CC90141F00041B6E71000704740000F
:1039C0000AD0490008D010F1807F94BF11F1807FA8
:1039D00002E042F0FF407047D0437047F0B53B48EB
:1039E0003B4981603B49C160002141613A4F876199
:1039F0003A4DC5613A4E06623A490163DFF8E8C0C4
:103A0000C0F834C0394A4262394BC362394C8462CF
:103A10005FF0010EC0F838E0C76305644664416595
:103A2000C0F858C082640365C4640227C765324F7A
:103A3000076645668666314F8767314FC767C2663E
:103A4000436704670327C0F880702E4FC0F8847066
:103A5000C0F88850C0F88C602B4DC0F89C502B4D9E
:103A6000C0F8A050C0F89020C0F89830C0F894403A
:103A70000425C0F8A450264DC0F8A850254DC0F824
:103A8000AC50254EC0F8B060C0F8C010234FC0F84D
:103A9000C470C0F8B420C0F8BC30C0F8B8400527E6
:103AA000C0F8C8701E4FC0F8CC70C0F8D050C0F835
:103AB000D460C0F8E4101B49C0F8E810C0F8D82062
:103AC000C0F8E030C0F8DC40F0BD00BF4805002081
:103AD0000000084296438B3C00804A44CDCC1C41F8
:103AE000F4FDD43E000070430000A2420000C84232
:103AF00000803B440000704100004D4400009643AC
:103B000066667842000048440000A0430000A042DE
:103B100000C04B446666164160E5D03E0000BF42DF
:103B2000000043440000BA4240EA010C1CEB0C0FB9
:103B300007D0884205D14FEA400C1CF1807F98BF26
:103B400080427047C0F3C75181B1FF2906D0C11030
:103B5000400721F0E04101F16051704741020CBF84
:103B600040F4E0016FF000410020704700F0004198
:103B700000020AD0B0FA80FC00FA0CF001F16051AA
:103B8000A1EB0C5101EBD02140057047B0B581EAA3
:103B9000030C0CF0004C40F2FF7515EA11541DBFE8
:103BA00015EA1357AC42AF4239E0E41923EA455312
:103BB00043F48013C90241F0004141EA505EC7025C
:103BC0001100A7FB020200284FF00000EEFB0120CD
:103BD0004FF00001E3FB072118BF42F0010240183B
:103BE00000214941E3FB0E01A4F580640F0302D2DA
:103BF00052004041494154F101046CDD470872F123
:103C0000004250F1000051EB0451A1F580115CBF5E
:103C100041EA0C01B0BD4CEA05510020B0BD05EAF7
:103C20001357AC4214BFAF4241E050EA410E1CBFF3
:103C300052EA430E02E061460020B0BD24423C44FB
:103C40001BD15FEA070EF6D0090302BF0146002030
:103C5000AEF1140EB1FA81F7AEEB070401FA07FEDC
:103C60000C37C7F1200100FA07F7C8404EEA000EF2
:103C700023EA455343F48013A2E733F00043B3FA39
:103C800083F704BFB2FA82FE77440B3FE41BB7F11F
:103C9000200E2FBF02FA0EF3BB40C7F1200E22FA0E
:103CA0000EFE38BF43EA0E03BA40641C82E750EAB6
:103CB000410E14BF52EA430E6FF000014FF400179B
:103CC00017EB430F8ABF194617EB410FB5E74CEAD4
:103CD00005510020B0BDD4F10104B4F120070FDA82
:103CE000C4F12007520828BF42F0010210FA07F57C
:103CF00001FA07F7E1BF2A43E0403843E1400FE013
:103D0000352C98DCC7F1200452EA400220FA07F271
:103D100018BF42F0010231FA07F0A1400A43002126
:103D200072F1004250F1000051EB0C01B0BD0000F7
:103D300070B44FF0004591EA030F40F1A3846B404B
:103D4000841A71EB030604D26E40001BB1411219B4
:103D500073414FF4001C1CEB410F34BF7CEB430656
:103D600083E00C0DA4EB1356362E00F37C80012E5D
:103D700045EAC32341DC43EA525312BFD202920206
:103D80005B08240545EAC12141EA5051D2EBC0202D
:103D9000994125D407D1B0FA80F610FA06F162D025
:103DA0000020203608E0B1FA81F6B140C6F12002C9
:103DB00020FA02F21143B0404FEAF474B4EB4654D7
:103DC00034F001064FEA74040AD8D6F50016760DD1
:103DD00004F00044F04061FA06F25040F1404840DF
:103DE000C00A40EA415021F0004128BF5FEA500577
:103DF00050F1000044EBD12135E0DB0A45EAC12156
:103E0000C90AB6F120050EDD42EA0242120CC5F1E4
:103E1000200603FA06F6EB4042EA06056D42984199
:103E200061F100010DE062FA06F5F240554063FAD7
:103E300006FC82EA0C02F3405A406D42904161EB6D
:103E4000030111F4801F05D1641E620502D06D00CC
:103E50004041494121F48011430875F1004350F17C
:103E6000000041EB045170BC70471CEB410F15D2B0
:103E700023F0004352EA43060BD04FEA4C0CBCEB54
:103E8000410F04D80C0D661E342EB7DDEBE7801A07
:103E9000994150EA410608BF0021E4E708BF1CEB46
:103EA000430F28BF6FF00001DDE70000400D491807
:103EB00040EA81200CD2490DA1F58061491C40F0F7
:103EC000004005DBD1F11F0154BFC840C017704747
:103ED00000207047DFF8A806DFF8A8160160DFF8B9
:103EE000A8164160DFF8A406DFF8A4164160DFF8E9
:103EF000A4265FF08143D360DFF89C361361DFF8BE
:103F00009C365360DFF898360360DFF8983603611B
:103F1000DFF894368360DFF8940690601160704794
:103F20000FB42DE9F84FA4B000208DF818002F9899
:103F3000FFF708FEDFF87826DFF8783600F00CFC93
:103F400000F02EFD07903198FFF7FCFDDFF86826A2
:103F5000DFF8683600F000FC00F022FD099033988D
:103F60000E90002020903498FFF7ECFDDFF84026FB
:103F7000DFF8403600F0F0FB00F012FD0890DFF8AB
:103F80001446E068FFF7DEFDDFF83426DFF834364C
:103F900000F0E2FB00F004FD1F902069FFF7D2FD66
:103FA0000022DFF8243600F0D7FB00F0F9FC1E9069
:103FB00060681D90DFF8D8050D90A068FFF7C2FD7E
:103FC000DFF80826DFF8083600F0C6FB00F0E8FC52
:103FD0001C903898FFF7B6FD5FF06632DFF8F435D5
:103FE00000F0BAFB00F0DCFC0C903798FFF7AAFD5C
:103FF000DFF8E425DFF8E43500F0AEFB00F0D0FC9C
:104000001B90DFF8DC050B903698FFF79BFDDFF87F
:10401000BC25DFF8BC3500F09FFB00F0C1FC1A9016
:10402000DFF8C00519900024DFF8BC55DFF8500513
:104030000068FFF787FD0022DFF8B035FFF778FE54
:104040000022DFF8AC3500F087FB22002B00FFF7E1
:104050006FFE00F0D9FC00F003FD18900E98FFF7FA
:1040600071FDDFF89025DFF89035FFF761FE002243
:10407000DFF88835FFF78AFD22002B00FFF758FE96
:1040800000F0C2FC00F0ECFC1790DFF87415189AF1
:104090001420424301EB0200179950F821001690BA
:1040A0001D98FFF74FFDDFF85C25DFF85C35FFF763
:1040B0006DFD0022DFF85435FFF73AFE00F070FC8A
:1040C00015900E991998FFF71DFCFFF73BFD8046F0
:1040D00089461698FFF736FD02000B0016001F00F8
:1040E0000998FFF72FFD32003B0001F071F84246BE
:1040F0004B46FFF74BFD00F053FC14901498FFF76C
:1041000021FD06000F001598FFF71CFD0022DFF8C7
:104110000035FFF70DFE32003B00FFF737FD0600CC
:104120000F000D98FFF70EFD0022DFF8E83400F0D5
:1041300013FB02000B000020DFF8DC1400F09AFAF9
:1041400002000B003000390000F006FB06000F00F3
:104150000D98FFF7F7FC0022DFF8C03400F0FCFAFE
:1041600001F04EFA32003B00FFF710FD06000F0091
:104170001C981A99FEF768F9FFF7E4FC02000B009F
:1041800000205FF0804100F075FA32003B00FFF73D
:10419000FDFC00F005FC0A900026DFF88474DFF8CF
:1041A0008484DFF884940998FFF7CCFC02000B00AC
:1041B000DFF87804DFF8781400F0CEFACDE90401D6
:1041C0000898FFF7BFFC02000B000020DFF8641422
:1041D00000F0C2FACDE902010A98FFF7B3FCCDE97D
:1041E00000010898FFF7AEFC42464B46FFF7CEFCB5
:1041F00032003B00FFF79CFD22002B00FFF7C6FCBE
:1042000082468B460898FFF79DFC52465B46FFF7B7
:10421000BDFC02000B00DDE9000100F02BFA0200FA
:104220000B000020DFF80C1400F096FA02000B00DF
:10423000DDE9020100F01EFA02000B00DDE90401D5
:1042400000F08AFA02000B0010001900FFF79EFC34
:1042500000F0A6FB1390079804900998FFF772FCF2
:1042600002000B00DFF8C403DFF8C41300F074FA97
:10427000CDE902010498FFF765FC02000B00002065
:10428000DFF8B01300F068FACDE900010A98FFF7F3
:1042900059FC82468B460498FFF754FC42464B4635
:1042A000FFF774FC32003B00FFF742FD22002B00B9
:1042B000FFF76CFC04000D000498FFF743FC22009C
:1042C0002B00FFF763FC02000B005046594600F03C
:1042D000D1F902000B000020D64900F03DFA02009F
:1042E0000B00DDE9000100F0C5F902000B00DDE97B
:1042F000020100F031FA02000B0010001900FFF774
:1043000045FC00F04DFB129013990C98FEF72AF82B
:104310002099FEF727F80499FFF7F4FA0899FEF7B9
:1043200093F8040012990C98FEF71CF80100200085
:10433000FDF7D8FF11900024AD4D119890F000408A
:104340000499FEF781F80B99FEF77EF8FFF7FAFB68
:1043500022002B00FFF71AFC00F022FB10900498BB
:10436000FFF7F0FBA74AB44BFFF710FC06000F0065
:104370001F98FFF7E7FB32003B00FFF707FC060042
:104380000F000998FFF7DEFB02000B003000390038
:1043900000F0E2F906000F000A980499FEF754F8BD
:1043A000FFF7D0FB0022A54BFFF7C2FC0022A44B75
:1043B000FFF7BEFC02000B003000390000F0CCF922
:1043C00006000F000498FFF7BDFB02000B00300051
:1043D000390000F0C1F906000F000B98FFF7B2FB9F
:1043E00002000B003000390000F0B6F922002B006B
:1043F000FFF7CCFB04000D001E98FFF7A3FB002283
:10440000904B00F0A9F900225FF08043FFF7BEFB5C
:104410008D4A8E4BFFF7BAFB01F018FB22002B00F0
:10442000FFF7B4FB00F0BCFA0F90109805900F98BE
:1044300003900798FFF786FB5D4A5E4B00F08CF90E
:1044400002000B00FFF7A2FB04000D001B985FF0B9
:104450008141FDF7F9FF01007D48FDF743FFFFF7BC
:1044600071FB22002B00FFF791FB0022794B00F03B
:1044700073F900F095FA029007980021FFF754FBBA
:1044800005D1002005900020039000200290DDF867
:1044900014A0DFF8C4B150465946FFF7ABF801D875
:1044A0006E488246DFF8B88150464146FEF74AF82A
:1044B00000D2C2466B4E6C4F3D4C3E4D5046FFF70E
:1044C00041FB32003B00FFF761FB22002B00FFF7AE
:1044D0005DFBCDE900010798FFF734FBDDE9002320
:1044E000FFF754FB00F05CFA2190604A10685146D7
:1044F000FFF71AFB02D001208DF81800C2F800A0C7
:1045000003990298FDF72EFF814648465946FFF76A
:1045100071F801D85148814648464146FEF712F8E5
:1045200000D2C1464846FFF70DFB32003B00FFF7C3
:104530002DFB22002B00FFF729FB04000D0007983C
:10454000FFF700FB22002B00FFF720FB00F028FA0A
:104550002290474A10684946FFF7E6FA02D0012048
:104560008DF88C00C2F800902E9821A991E81C00CB
:1045700080E81C0025B0BDE8F00F5DF814FB0000DA
:10458000880A0020000066446666E63E700A002045
:104590000000C842C00900200000F0410000704146
:1045A000000020420000204100803B4400003C44C9
:1045B000FBCBEEC9C342ED3FFD87F4DBD781D33F90
:1045C000EA3E00A94D9CDC3F00003E40E25817B790
:1045D000D100E83F6666394052B81E85EB51044071
:1045E0006666863F000076430000E03F00C072C070
:1045F000000059409A9999999999C9BF000024409F
:1046000000000020CDCCCCCCCCCCFC3F0000404006
:1046100000C07C40008071400038804080E9DE406E
:104620000000E83F691D554D10750F3FD7A3703D41
:104630000AD744400000F03FCCCC53400000F0BF0C
:104640000000E0BF000028404AD8124DFB2109407D
:104650000000C040A4314641013C1C46003C1C46C1
:10466000003C1CC62475A7E095C99D3FCC0B0020DB
:10467000C80B002070B44FF0004591EA030F7FF59E
:104680005FAB6B40841A71EB030603D2001BB14190
:10469000121973414FF4001C1CEB410F34BF7CEB2B
:1046A000430442E00C0DA4EB1356352E4FDC45EAD3
:1046B000C323DB0A45EAC121C912B6F120050DDD8D
:1046C00063FA05F6EB4086EA0305124218BF45F08F
:1046D0000105C01851F100010CD213E062FA06F591
:1046E000F2405540F3415A40B340F3405A408018DD
:1046F000594107D349085FEA30005FEA350528BF12
:1047000045F0010501F58011420875F1004250F1B4
:10471000000041EB04514E0016F5001F70BC38BF7D
:1047200070470020090D090570471CEB410F10D29E
:1047300052EA43060BD0BCEB410F05D80C0DAB433E
:10474000661E342EB6DD02E0AB438018594170BCC2
:10475000704770BC70470000F0B540F2FF7581EA09
:10476000030C0CF0004C15EA11541DBF15EA135749
:10477000AC42AF42E5E0BC41C1F31301C3F3130304
:10478000801A994143F4801304D2641E40004941C9
:1047900080185941C90241EA5051B1FBF3F603FBBD
:1047A0001611A2FB0675D7EBC020A94102D2761ED6
:1047B00080185941C90241EA5051B1FBF3FE03FB95
:1047C0001E11A2FB0E75D7EBC020A94103D2AEF19A
:1047D000010E80185941890241EA9051760546EA56
:1047E0008E2EB1FBF3F603FB1611A2FB0675D7EB79
:1047F0008020A94102D2761E80185941C90241EA9F
:1048000050514EEA060EB1FBF3F603FB1611A2FB64
:104810000675D7EBC020A94102D2761E80185941F7
:10482000C90241EA5051B1FBF3F703FB1711A2FB98
:104830000735D3EBC020A94167F100070CBF004248
:1048400047F0010766F3D5274FEA1E31B80814F583
:10485000806412DDBD0775F1004250EB0E5051EB44
:10486000045111F5801F5CBF41EA0C01F0BD4CF012
:104870007F6141F0E0410020F0BDBD076D0840EAD6
:104880000E5041F48011D4F10104B4F120060ADA8B
:10489000C4F120060200E04001FA06F3E1401843AB
:1048A000B24015430EE0342C13DCC6F1200445EA77
:1048B00040056D0820FA06F2154321FA06F0A140E2
:1048C0000D43002175F1004250F1000051EB0C0145
:1048D000F0BD00205FEA0C01F0BDCFB992185B413A
:1048E000B3FA83F704BFB2FA82F6BF190B3FB7F1F0
:1048F00020062FBF02FA06F3BB40C7F1200622FABA
:1049000006F638BF3343BA401CB1E419641E33E7DE
:104910007F4231F00041B1FA81F404BFB0FA80F671
:10492000A4190B3CB4F120062FBF00FA06F1A140F8
:10493000C4F1200620FA06F638BF3143A0403C1BE4
:104940001AE7AC421ABF05EA1357AF4212E050EA29
:1049500041061CBF52EA4306BFE750EA4107304612
:1049600061461CBF41EA0551F0BD52EA430C08BF45
:10497000C143F0BD00204FF4001616EB410F98BF65
:1049800016EB430F08BF16EB410F24BFC14305E0F0
:1049900016EB430F0CBF61464CEA0551F0BD000019
:1049A00001F000428B1AA3F16051B1F5801F0ADBC0
:1049B000B1F17F6F1FD242EAC102C10071F1004123
:1049C00042EB507070470B15C3F10903212B10D235
:1049D000890241EA905180020128494141F0004199
:1049E00021FA03F0C3F12003994071F100415041D5
:1049F0007047100070476FF0000013EB103F5CBF72
:104A0000000E42EAC050704740F2FF7C1CEA11528F
:104A100040F2FE33D21A18DD352A20DAB2F115033E
:104A200009DA6FEA4C53D340094201D5401E59417F
:104A30000020994370476FF00002DA40094202D526
:104A4000801851F100019043704750EA41031CBFA8
:104A50004FEA0C5101F1804138BF0021002070471E
:104A6000C1F30A5340F2FE329B1A14DDD3F1200346
:104A70004FEAE17208DDC90241EA505141F00040BD
:104A8000D84080185040704703F2E13010B1D24353
:104A900082F00040704700207047000000000000D6
:104AA0002DE9F04D8AB0129C14B1129C00252560AE
:104AB0001F46164627F00043002226F0000A9342C4
:104AC00008BF924514D004460D460020DFF8781642
:104AD00022462B4600F0BCFF0AD0DFF8701600F02B
:104AE000B7FF09D178004015401C05D1390303D127
:104AF0000020DFF8541668E368004015401C0DD014
:104B000025F00041002224F00000914208BF9042AD
:104B100004D078004015401C40F0F3806800401538
:104B2000401C04D1290302D0204629464DE37800D9
:104B30004015401C04D1390302D03046394644E3C5
:104B400078004015401C4FF0010C00F08980394678
:104B50004A0042EADA7B002200234FEA4A0A9B45D8
:104B600004BF9245CDE9006730461CD040F2334285
:104B7000A2EB5B52352A06DB00F0000201F0004395
:104B8000CDE900230FE0202A04DDA2F12000C1407E
:104B9000814000E001D1002003E0002AC4BFD040E2
:104BA0009040CDE900013B464FF0000A534508DA3A
:104BB0004FF00041BAEB060261EB0303CDE902239B
:104BC00001E0CDE90263DDE90001514505DA4FF06E
:104BD0000042BAEB000062EB0101DDE902238B42E7
:104BE0000CBF8242D446DDE900014B0043EAD0739A
:104BF0004200534508BF524517D040F23446A6EB59
:104C00005352352A04DB00F0000001F000410CE0B3
:104C1000202A03DD203AD140914000E001D100205C
:104C200003E0002AC4BFD0409040BCF1000F17D071
:104C3000DDE90023534505DA4FF00046BAEB0202E6
:104C400066EB0303514505DA4FF00046BAEB00006E
:104C500066EB01018B4206BF8242D4464FF0010C45
:104C600068004015401C06D1290304D1EC0F1AD16D
:104C7000FE0F43D020E078004015401C1DD13903C1
:104C80001BD125F00041B1F5801F24F0000020D297
:104C90000022914208BF904200921FD06A462946E6
:104CA00000F0E6FE1AE0FE0F03D1BCF1000F25D0A4
:104CB00020E0BCF1000F09D186E2BCF1000F14BF67
:104CC000EC0F0024FE0F13D184B100204FF00041FF
:104CD0007BE2DFF87C2402EB11500090FE0F00987D
:104CE00002D1002809DC01E0002806DD00206BE28B
:104CF0001CB10020DFF85C1467E20020DFF85814D4
:104D000063E2394630464B0043EAD07342004FF02D
:104D1000000A534504BF5245CDE9026719D040F25D
:104D2000334EAEEB5352352A04DB00F0000001F0A5
:104D300000410CE0202A03DD203AD140914000E000
:104D400001D1002003E0002AC4BFD0409040CDE94B
:104D50000201E80F23D0574508DA4FF0004BBAEBB9
:104D600006006BEB070BCDE9000B01E0CDE9006716
:104D7000DDE90201514505DA4FF00042BAEB0000CF
:104D800062EB0101DDE900238B4208BF824206D0BD
:104D9000AFF300804FF0FF306FF0004115E225F0D7
:104DA0000041B1F5801F24F000000CD20022914296
:104DB00008BF9042009211D06A46294600F058FE82
:104DC00004460D460AE0DFF8882302EB11500090FC
:104DD000DFF88813DFF8880305400D43E80F08BFAC
:104DE00000223CD0DDE902014B0043EAD0734200CF
:104DF000534508BF524525F0004517D040F2344CCA
:104E0000ACEB5352352A04DB00F0000001F0004106
:104E10000CE0202A03DD203AD140914000E001D18E
:104E2000002003E0002AC4BFD0409040DDE9022307
:104E3000534505DA4FF0004BBAEB02026BEB03036C
:104E4000514505DA4FF0004BBAEB00006BEB010166
:104E50008B4204BF8242CDF804A001D0012201920E
:104E60000098012832D120462946BE4ABE4B00F0A8
:104E700037FE2BD24FF00008B349CDE90281294615
:104E80004800400D00F1010211D0002A0FDD40F270
:104E9000FF70824206DBB04905F00043002443EA7C
:104EA000010532E06FF31E5141EA02552DE025F075
:104EB000004124F00000414508BF404525D00122B3
:104EC000294600F025FE04460D461EE00020A749B5
:104ED00022462B46FEF75AFEDFF880B200225B46E0
:104EE000FEF726FFFFF7BCFDA0F12008404600F0CA
:104EF000ADFE00229E4BFEF749FE00225B46FEF708
:104F000017FFCDE902014FEA4818DDE902232046E8
:104F10002946FFF7AFFB82468B46DDE902012246B8
:104F20002B46FEF705FF02460B4650465946FFF753
:104F300013FCCDE90401DDE90423FEF727FECDE9EA
:104F400006AB04460D468B488B4922462B46FEF79E
:104F50001DFE8A4A8A4BFEF7EBFE22462B46FEF7E1
:104F600015FE884A884BFEF7E3FE22462B46FEF7E5
:104F70000DFE864A864BFEF7DBFE22462B46FEF7E9
:104F800005FE844A844BFEF7D3FE22462B46FEF7ED
:104F9000FDFD824A824BFEF7CBFE22462B46FEF7F2
:104FA000F5FD804A804BFEF7C3FECDE90801DDE93F
:104FB000022300206449FFF75DFB0B465A00520DA7
:104FC00002F1010C14D0BCF1000F11DD40F2FF72B0
:104FD000944507DB604A01F000404FF0000A40EAC8
:104FE000020B13E06FF31E5343EA0C5B82460DE0A5
:104FF00021F00043002220F0000A934208BF9245AE
:1050000003D0012200F084FD82468B46DDE90801D1
:1050100022462B46FEF7BAFDDDE90623FFF72AFB01
:1050200052465B46FEF784FEDDE90423FEF7AEFD43
:10503000DDE90623FEF77CFE8246009868A48B46D5
:1050400004EB080500F002FED5E90023FEF770FE30
:10505000CDE902015246554855495B46FEF796FD9B
:10506000DDE90223FEF764FE32463B46FEF78EFD85
:105070000022504B00F034FD62D301224E4B00F071
:10508000F7FD56D9CA0F1ABF00224C4B334BFEF71F
:105090004FFEFFF7E5FC044632463B465046594674
:1050A000FEF774FD82468B46D5E90201D5E904235B
:1050B000FEF73EFE32463B46FEF768FD404A414B56
:1050C000FEF764FD52465B46FEF732FE05468B4610
:1050D000DDE9020132463B46FEF758FD06460F4623
:1050E000204600F0B3FD02460B4630463946FFF736
:1050F000C1FA334A334BFEF749FD2A465B46FEF7B9
:1051000017FE129A0AB114600024009400220E4B7C
:1051100000F0C6FD21F00045002620F00004B54255
:1051200008BFB4420CD04A005215521C03D10B03E5
:1051300001D100200849019A2AB181F0004144E0E0
:1051400000200021F7E740E00000F03F0000F0BF42
:1051500002FCFFFF0000F0FF0000F07F0000E03FD6
:10516000FFFF0F80CD3B7F669EA0E63F00005040D2
:105170000000903FF7DE29BFD8F8C23FF4B3FECC61
:105180001A99C33F62CB68D96F46C73FC6C912DAC6
:10519000C471CC3F4AE98A942449D23FF75F97997A
:1051A0009999D93FBC5555555555E53FFE822B651C
:1051B0004715F73F0000E0C00000E0400000E0BFFE
:1051C000EF39FAFE422EE63F00210AB0BDE8F08D2D
:1051D0001CB500240094FFF763FC1CBD0000000018
:1051E000000000000000F0BF000000000000008090
:1051F000000000000000008000000000000000002F
:10520000000000C05294EEBF00000048204E51BE86
:10521000000000F86467BCBC000000000000000053
:10522000000000208133EDBF00000080B3DB14BE1E
:10523000000000506706A3BC000000000000000052
:10524000000000D0E9DCEBBF00000008C39259BEAB
:1052500000000080B0D3B8BC0000000000000000D7
:1052600000000070F98FEABF000000C0A51028BE42
:10527000000000E8BFC0B0BC00000000000000005B
:1052800000000070284CE9BF00000060134B42BED4
:10529000000000C03D20B8BC00000000000000007D
:1052A00000000050FA10E8BF000000C05FF62BBEFF
:1052B000000000905C71A7BC00000000000000002E
:1052C00000000020FCDDE6BF000000C0F8F154BE85
:1052D00000000018E9F6B9BC000000000000000062
:1052E000000000D0C3B2E5BF00000070E43254BE3D
:1052F00000000050DB06B4BC00000000000000000D
:1053000000000010EF8EE4BF00000020F36252BEE8
:10531000000000C02A879ABC0000000000000000C6
:10532000000000B02272E3BF000000F0E8E056BECB
:1053300000000028352DBDBC00000000000000006A
:10534000000000000A5CE2BF000000B0FA8E41BE1F
:1053500000000040AE6FBDBC000000000000000077
:1053600000000000564CE1BF000000F015CD5FBE0C
:1053700000000000141C90BC0000000000000000B1
:1053800000000040BD42E0BF00000030F93457BECD
:10539000000000E06C1E93BC000000000000000054
:1053A000000000E0F57DDEBF000000B08A535EBE65
:1053B00000000080DA77AABC0000000000000000B6
:1053C000000000C09D81DCBF00000000FFA226BEDF
:1053D0000000006057E2B0BC0000000000000000C8
:1053E00000000060F98FDABF000000580A8151BE4A
:1053F000000000F05F60B8BC00000000000000008A
:105400000000000098A8D8BF000000607A7F45BE69
:10541000000000D05433A3BC0000000000000000D6
:10542000000000600FCBD6BF000000D091CB40BE83
:10543000000000406D1BA0BC000000000000000048
:10544000000000A0FBF6D4BF00000098C5CE52BEFD
:10545000000000003A397EBC00000000000000009F
:10546000000000E0FE2BD3BF0000004073872BBE7E
:1054700000000000926879BC0000000000000000FD
:1054800000000040C069D1BF00000058F16353BE66
:1054900000000080438D7CBC000000000000000084
:1054A00000000080D85FCFBF000000181F8354BEEB
:1054B000000000B03F42A2BC00000000000000005D
:1054C0000000008067FCCBBF00000060FAFF53BE05
:1054D00000000050E00DB8BC00000000000000001B
:1054E0000000000098A8C8BF000000607A7F35BEA9
:1054F000000000C0543393BC000000000000000016
:1055000000000000DC63C5BF00000058D6FF54BE99
:1055100000000000396490BC0000000000000000A2
:10552000000000C0AD2DC2BF00000080A45915BE10
:10553000000000E0484BABBC000000000000000091
:10554000000000801A0BBEBF00000050BF3C5ABED6
:10555000000000A0B364B6BC000000000000000022
:105560000000008004D6B7BF00000040BBCF36BEAD
:105570000000008076CEA8BC000000000000000003
:105580000000008032BBB1BF000000402A0043BED3
:1055900000000028C60CBDBC000000000000000098
:1055A000000000009473A7BF000000182B3B59BEF9
:1055B000000000C0E55DA5BC000000000000000088
:1055C00000000000EE4397BF000000A0E6C340BE0D
:1055D00000000020958DB5BC000000000000000018
:1055E00000000000000000800000000000000080BB
:1055F000000000000000008000000000000000002B
:105600004A0080B55215521C0AD14A005215521C4C
:1056100001D10B0309D1CA0F07D00020002104BD1E
:1056200000220092014B00F03BFB04BD0000F03F64
:105630002DE9F04D04460D469046DFF88403DFF86F
:10564000841322462B46FEF7A1FA0F4627F00041AD
:10565000DFF87423DFF8743300F042FA064662D2B2
:10566000DFF86C3307F000410B4300223946FEF7A8
:105670005FFBFFF7F5F95FEA000A51D000F0E6FAA8
:105680000022D44BFEF782FA06460F464FF0A040A8
:10569000D14932463B46FEF779FA02460B46204690
:1056A0002946FEF7E7FF04460D464FF0C040CB49C0
:1056B00032463B46FEF76AFA02460B46204629462A
:1056C000FEF7D8FF04460D464FF00050C44932465D
:1056D0003B46FEF75BFA02460B4620462946FEF79C
:1056E000C9FF04460D460020BE4932463B46FEF740
:1056F0004DFA02460B4620462946FEF7BBFF0446FC
:105700000D464FF00050B84932463B46FEF73EFA90
:1057100002460B4620462946FEF7ACFF04460D46DE
:105720000AF00300AAE068004015401C0CD1680094
:105730004015401C02D1290340F03E814FF0FF305C
:105740006FF00041BDE8F08D25F00041002224F00B
:105750000000914208BF904206D1B8F1000F00F05E
:105760002B810024A14D27E13946994B07F00047D2
:1057700030463B43FEF7DCFA0F464900064641EA55
:10578000D07140000022914208BF904217D040F2F1
:105790003343A3EB5150352804DB06F0000607F035
:1057A00000470CE0202803DD2038C740874000E098
:1057B00001D1002603E00128A4BFC640864026F0A0
:1057C000000037F0004108BF904251D000208149CD
:1057D00032463B46FEF7DAF982468B464FF0A04050
:1057E0007D4952465B46FEF7D1F902460B462046FC
:1057F0002946FEF73FFF04460D464FF0C04077496B
:1058000052465B46FEF7C2F902460B462046294641
:10581000FEF730FF04460D464FF0005070495246E7
:105820005B46FEF7B3F902460B4620462946FEF7D3
:1058300021FF04460D4600206A4952465B46FEF7AA
:10584000A5F902460B4620462946FEF713FF0446FB
:105850000D464FF00050644952465B46FEF796F9FC
:1058600002460B4620462946FEF704FF04460D4635
:1058700030463946FFF7F4F800F0030025F0004108
:1058800000229142804404DA4FF00047101B67EB7E
:1058900001014FF079539342BCBF4FF0004060EBE1
:1058A0000303994208F0010A05DABAF1000F7BD030
:1058B00000244E4D78E022462B4620462946FEF72E
:1058C00065F9BAF1000F06460F4631D048484949FC
:1058D00032463B46FEF75AF9474A484BFEF728FA4C
:1058E00032463B46FEF752F9454A464BFEF720FA50
:1058F00032463B46FEF74AF9434A444BFEF718FA54
:1059000032463B46FEF742F9414A424BFEF710FA57
:1059100032463B46FEF73AF96FF051023E4BFEF736
:1059200007FA32463B46FEF731F900222F4B37E0AB
:1059300032463B4620462946FEF728F982468B46EA
:105940003648374932463B46FEF720F9354A364B52
:10595000FEF7EEF932463B46FEF718F9334A344B70
:10596000FEF7E6F932463B46FEF710F9314A324B74
:10597000FEF7DEF932463B46FEF708F92F4A304B78
:10598000FEF7D6F932463B46FEF700F92D4A2E4B7C
:10599000FEF7CEF952465B46FEF7F8F822462B4654
:1059A000FEF7C6F904460D465FEA887004D585F017
:1059B00000412046BDE8F08D20462946BDE8F08D27
:1059C00083C8C96D305FE43F0000A0FFFFFFDF41E7
:1059D0000000E03F0000303EFB21B941B41011400F
:1059E00026A6513E5C14D33C9A833B3B0000F03F1B
:1059F00009260A1039BA213E3BA861C6F97D92BE3C
:105A000063AC30909F01FA3EF6FB51166CC156BF55
:105A1000B10255555555A53FFFFFDFBFB08F2FC3CE
:105A200010D8E53D8F0C73A1E1E55ABE4DADE44FB2
:105A3000E31DC73E3EE3B519A0012ABFFAF01011DD
:105A40001111813F425555555555C5BF0022EFE50F
:105A500090420CD141EA030C50EA4C0C07D0994219
:105A600005D14FF4001C1CEB410F38BF8942704731
:105A700010B5144600F002F8226010BDC1F30A53BD
:105A800043B14A0012F5001F28D2A3F2FE32A1EB67
:105A90000251704750EA410C20D001F0004C31EA2D
:105AA0000C01B1FA81F204BFB0FA80F3D2180B3ABC
:105AB000B2F120032CBF00FA03F1914041EA0C013E
:105AC0003EBFC2F1200C20FA0CF319439040524221
:105AD00040F2FD33D21A01EB0351704700227047A8
