:020000040800F2
:104000006805002085D10008DDC10008DFC1000877
:10401000E1C10008E3C10008E5C10008000000009C
:10402000000000000000000000000000E7C10008E0
:10403000E9C1000800000000EBC1000813C300083C
:10404000C5D10008C9D10008CDD10008D1D10008E0
:10405000D5D10008D9D10008DDD10008E1D1000890
:10406000E5D10008E9D10008EDD10008F1D1000840
:10407000F5D10008F9D10008FDD1000801D20008EF
:1040800005D2000809D200080DD2000811D200089C
:1040900015D2000819D200081DD2000821D200084C
:1040A00025D2000829D200082DD2000831D20008FC
:1040B00035D2000839D200083DD2000841D20008AC
:1040C00045D2000849D200084DD2000851D200085C
:1040D00055D20008EDC100085DD2000861D2000889
:1040E00065D2000869D200086DD2000871D20008BC
:1040F00075D20008DFF89C0B007C10F00F0F04D184
:104100000120DFF8941B487003E00020DFF8881BD3
:104110004870DFF8800B007C10F00F00032813D1EB
:104120000020DFF8781BC8700020DFF8881C48707A
:104130000020DFF8801CC8700020DFF8641B487086
:104140000020DFF85C1BC870DFF8480B006910F432
:104150004240002800F0AE80B0F5007F00F099806A
:10416000B0F5804F27D0B0F5844F0ED0B0F5004F9A
:1041700065D0B0F5024F34D0B0F5404F04D0B0F563
:10418000424F40F0978095E094E00120DFF8081B53
:1041900088700120DFF8001B88723120DFF8A01B37
:1041A00008703220DFF89C1B0870DFF89C0BDFF8EA
:1041B000901B48607EE00120DFF8DC1A8872332013
:1041C000DFF87C1B08703220DFF8781B0870DFF8FE
:1041D000780BDFF86C1B48600020DFF8D81B0872F2
:1041E00068E00120DFF8B01A88700120DFF8A81A13
:1041F000C8720120DFF8A01A88723020DFF8401B57
:1042000008703120DFF83C1B08700020DFF8A41B89
:104210004870DFF8880BDFF8281B4860DFF8740A65
:10422000007CC00605D5DFF8900BDFF8181B48604E
:1042300004E0DFF8880BDFF80C1B48603AE001204F
:10424000DFF8541AC8720120DFF84C1A8872312046
:10425000DFF8EC1A08703320DFF8E81A0870002045
:10426000DFF8501B4870DFF8E00ADFF8D81A486022
:10427000DFF8200A007CC00605D5DFF83C0BDFF82C
:10428000C01A486004E0DFF8340BDFF8B41A486065
:1042900010E00120DFF8001A88700020DFF8141BFE
:1042A00048703020DFF8981A08703120DFF8941A2F
:1042B0000870FFE70120DFF8E0190872DFF8D40981
:1042C000006910F4405F04D00120DFF8CC19C871F8
:1042D00003E00020DFF8C019C871DFF8B8090069F1
:1042E000000504D50120DFF8B019887103E0002033
:1042F000DFF8A4198871DFF89C090069400504D52E
:104300000120DFF89419487203E00020DFF88819D3
:104310004872DFF88009007C800604D5FF20DFF8B2
:10432000941A487203E00020DFF8881A4872DFF818
:1043300064090069800304D5FF20DFF8781A087249
:1043400003E00020DFF86C1A0872DFF84809007CEF
:10435000C00604D50120DFF8681A487003E0002089
:10436000DFF85C1A4870DFF82C09007C10F00700B9
:10437000022806D0DFF81C09007C10F00700032893
:1043800007D10020DFF82C1AC8710020DFF8241AAA
:104390004870DFF80009007C400607D40020DFF8F1
:1043A000141A88720020DFF80C1AC87270471021A6
:1043B000DFF8E4281170DFF8E0184870704780B526
:1043C0000020DFF8001A08801520DFF8FC190870BB
:1043D0000120DFF8F41948700120DFF8EC1988702B
:1043E0000020DFF8E419888041F25040DFF8D81946
:1043F000C880DFF8D0090088DFF8CC194881012097
:10440000DFF8C4190872DFF8C409DFF8B8190988A1
:104410000C2251430844DFF8B0190C2201F0FCFCD7
:10442000DFF8A0090088401CDFF8981908801620E2
:10443000DFF89C1908700420DFF8941948700420F4
:10444000DFF88C1988700020DFF88419888041F229
:10445000B440DFF87C19C880DFF868090088DFF80D
:10446000701948810120DFF868190872DFF85C09CB
:10447000DFF8501909880C2251430844DFF850191D
:104480000C2201F0C9FCDFF83C090088401CDFF871
:10449000341908800020DFF80018487041F25040BD
:1044A000DFF82819DFF8202952890C235A431144D8
:1044B000888001BD80B50020DFF808190880002041
:1044C000DFF8101908800020DFF80C198870DFF879
:1044D000C8078078002868D0DFF8B8070069C005F1
:1044E00031D50120DFF8F41808700420DFF8EC184B
:1044F00048700120DFF8E41888700020DFF8DC182D
:1045000088806420DFF8D418C8800020DFF8CC1839
:104510000872DFF8B0080088DFF8C0184881DFF8BB
:10452000AC08DFF8A01809880C2251430844DFF8D2
:10453000AC180C2201F070FCDFF888080088401CE1
:10454000DFF8801808801220DFF894180870042023
:10455000DFF88C1848700220DFF88418887000207B
:10456000DFF87C1888809620DFF87418C880012056
:10457000DFF86C180872DFF84C080088DFF8601864
:104580004881DFF84808DFF83C1809880C225143BD
:104590000844DFF84C180C2201F03EFCDFF8240838
:1045A0000088401CDFF81C180880DFF8EC06807AD1
:1045B00000282DD01320DFF82C180870DFF88007B2
:1045C0000078DFF8201848700120DFF8181888708C
:1045D0003220DFF8101888806420DFF80818C880BF
:1045E0000020DFF800180872DFF8E007DFF8D417C2
:1045F00009880C2251430844DFF8E8170C2201F027
:104600000BFCDFF8C0070088401CDFF8B8170880F3
:10461000DFF88406C07A00282DD01420DFF8C817F0
:104620000870DFF820070078DFF8BC174870012019
:10463000DFF8B41788700020DFF8AC17888064209A
:10464000DFF8A417C8800020DFF89C170872DFF895
:104650007C07DFF8701709880C2251430844DFF803
:1046600088170C2201F0D8FBDFF858070088401C9F
:10467000DFF850170880DFF82006807900282CD05A
:104680000220DFF8681708706020DFF860174870B4
:104690000220DFF8581788700020DFF85017888054
:1046A0004FF47A70DFF84417C8800020DFF83C1719
:1046B0000872DFF81807DFF80C1709880C2251433D
:1046C0000844DFF828170C2201F0A6FBDFF8F406F7
:1046D0000088401CDFF8EC160880DFF8BC05C079C4
:1046E000002800F08A810820DFF8041708700020F5
:1046F000DFF8FC1648700920DFF8F41688700020F7
:10470000DFF8EC1688804FF4FA70DFF8E416C88002
:10471000DFF88005006910F44050B0F5005F04D068
:104720000020DFF8CC16087203E00120DFF8C01685
:104730000872DFF890060088DFF8B4164881DFF8C9
:104740008C06DFF8801609880C2251430844DFF8F4
:10475000A0160C2201F060FBDFF868060088401C00
:10476000DFF8601608800920DFF88816087000203E
:10477000DFF8801648700E20DFF878168870002069
:10478000DFF87016888041F2B440DFF86816C88000
:104790000120DFF860160872DFF828060088DFF8CD
:1047A00054164881DFF82406DFF8181609880C2211
:1047B00051430844DFF83C160C2201F02DFBDFF8D2
:1047C00004060088401CDFF8FC1508800A20DFF88A
:1047D000281608700020DFF8201648700F20DFF838
:1047E000181688700020DFF8101688804FF4FA70D1
:1047F000DFF80416C8800120DFF8FC150872DFF826
:10480000C4050088DFF8F0154881DFF8C005DFF83F
:10481000B41509880C2251430844DFF8DC150C223A
:1048200001F0FAFADFF89C050088401CDFF89415C7
:1048300008800320DFF8C41508700020DFF8BC15DD
:1048400048700420DFF8B41588700020DFF8AC153C
:1048500088804FF47A70DFF8A415C8800020DFF854
:104860009C150872DFF85C050088DFF89015488118
:10487000DFF85805DFF84C1509880C22514308442D
:10488000DFF878150C2201F0C7FADFF83805008848
:10489000401CDFF8301508800420DFF8641508702C
:1048A0000020DFF85C1548700520DFF8541588708B
:1048B0004FF4FA70DFF8481588804FF47A70DFF80B
:1048C0004015C8800020DFF838150872DFF8F404BE
:1048D0000088DFF82C154881DFF8F004DFF8E414D5
:1048E00009880C2251430844DFF814150C2201F00A
:1048F00093FADFF8D0040088401CDFF8C814088061
:104900000520DFF8001508700020DFF8F814487063
:104910000C20DFF8F01488700020DFF8E81488809D
:104920006420DFF8E014C880DFF86803006910F441
:104930004050B0F5805F04D10020DFF8C814087241
:1049400003E00120DFF8BC140872DFF87804008867
:10495000DFF8B0144881DFF87404DFF868140988C0
:104960000C2251430844DFF89C140C2201F054FA45
:10497000DFF850040088401CDFF848140880062047
:10498000DFF8841408700020DFF87C1448700D20D4
:10499000DFF8741488703220DFF86C14888064208B
:1049A000DFF86414C880BB48006910F44050B0F5CB
:1049B000805F04D10020DFF85014087203E001206A
:1049C000DFF844140872DFF8FC030088DFF83814BD
:1049D0004881DFF8F803DFF8EC1309880C22514313
:1049E0000844DFF824140C2201F016FADFF8D4038F
:1049F0000088401CDFF8CC130880A748007A002804
:104A000000F096800B20DFF8041408700820DFF80F
:104A1000FC1348700520DFF8F41388700020DFF8DD
:104A2000EC13888041F27C50DFF8E013C88001204D
:104A3000DFF8D8130872DFF88C030088DFF8CC1396
:104A40004881DFF88803DFF87C1309880C22514382
:104A50000844DFF8B8130C2201F0DEF9DFF8640334
:104A60000088401CDFF85C1308800C20DFF8A013DE
:104A700008700820DFF8981348700120DFF89013C1
:104A800088700020DFF8881388804FF4FA70DFF810
:104A90008013C8800120DFF878130872DFF8240340
:104AA0000088DFF86C134881DFF82003DFF8141367
:104AB00009880C2251430844DFF854130C2201F0FA
:104AC000ABF9DFF800030088401CDFF8F81208801B
:104AD0000E20DFF8401308700820DFF83813487004
:104AE0000420DFF8301388700020DFF82813888056
:104AF0004FF4AF50DFF81C13C8800120DFF8141307
:104B00000872DFF8C0020088DFF808134881DFF878
:104B1000BC02AC4909880C2251430844DFF8F41266
:104B20000C2201F079F9A7480088401CA5490880AB
:104B300001BD002018E0A54980B20C2202FB00F262
:104B40001144097A01290ED0A04980B20C2202FB3F
:104B500000F211448988491C9C4A80B20C2303FB53
:104B600000F31A449180401C0100964A128889B2D1
:104B70009142E0D3704710B584B0A7480078002870
:104B80004FD100241DE09148A4B20C2101FB04F197
:104B9000084480888D49A4B20C2202FB04F211441F
:104BA000C98888420CD32100C9B29C4801F09EF903
:104BB00000208649A4B20C2202FB04F21144888032
:104BC000641C20007F49098880B28842DBD3934867
:104BD00001F068F9002824D1904801F09FF9040001
:104BE00068467A49E4B20C2202FB04F211440C221A
:104BF00001F012F9684607C800F014F87348E4B2EF
:104C00000C2101FB04F1405C7349887000206F495E
:104C1000E4B20C2202FB04F21144888001207E4998
:104C200008701FBD07B59DF801107D4801F05EF9C1
:104C30009DF802107A4801F059F9794801F030FAEC
:104C4000774801F089F9012240F22661754801F0A8
:104C5000FFFA07BD80B560488078152802D0162875
:104C600006D00CE00020FFF7A2FBFFF723FC09E0D1
:104C7000FFF720FC4FF4FA706B49088002E06420D3
:104C800069490880654801F02AF9002067490870E1
:104C900001BD00003C090020E80E002008010020B2
:104CA0001401002010B582B0C0B201280CD0042835
:104CB00019D0052842D100204449554A52890C2375
:104CC0005A431144087239E04048524949890C223C
:104CD00051430844C0883D494E4A52890C235A43E7
:104CE000114488802AE001203849494A52890C231E
:104CF0005A43114408726C464D4801F00FF94C4874
:104D000001F00CF920704A4801F008F96070484839
:104D100001F004F9A070464801F000F9E070009835
:104D2000444908604348006801F0EEFA80B2424905
:104D3000C1F8380201203F4981F8240013BD00006A
:104D4000281000203410002049C0000880B5C0B2EF
:104D5000042804D005280CD00C2814D01CE008002E
:104D600001F0E4FA80B250F070403349C1F85402C7
:104D700012E0080001F0DAFA80B250F070402E49DB
:104D8000C1F8700208E0080001F0D0FA80B250F0DB
:104D900070402949C1F88C0201BD0000FDCE000819
:104DA00026480088002804D024480088401E234953
:104DB00008807047FC00002039BF0008CDBF000804
:104DC000C40C00206A100020440F00209C0B00201F
:104DD0005C0F002070100020200E0020500F0020DB
:104DE000C80F0020D40F0020E00F0020680F002023
:104DF000740F0020800F00208C0F0020980F0020DF
:104E0000A40F0020B00F0020BC0F0020EC0F0020EA
:104E1000F80F00200410002084100020580E0020FD
:104E200010100020003801406E1000208C1000206F
:104E30001C100020A40E0020680500206C1000202B
:104E400038B5DFF83C0D8068C0F30314DFF8340D8B
:104E500001F028F8002840F0C287DFF82C0D007818
:104E6000002801D001F054FDDFF8180D01F070F8B2
:104E70000500DFF8180D0088002803D1DFF8040DC5
:104E800001F02DF8EDB22800012800F08D800428F3
:104E900079D0052800F01481062800F0CA80072880
:104EA00000F0F780092800F096800A2800F0AA8018
:104EB000102800F0B386112800F04B82122800F071
:104EC0007A82132800F0B483142800F0E2831528B6
:104ED00000F01084162800F03E84172800F06C843F
:104EE000182800F09A84192800F0C9821A2800F0C6
:104EF00094821B2800F0EB801C2800F055812028AC
:104F000000F0BC84212800F06485222800F08C8504
:104F1000232800F0B485242800F0DC85252800F043
:104F20000486262800F0FD84272800F0C98428285C
:104F300000F024852B2800F083862C2800F0C786FB
:104F4000412800F02383422800F0CB824A2800F059
:104F50009C814B2800F0CB81632800F010878128CA
:104F600000F01686F02800F02586FC2800F07A86EE
:104F7000FD2800F09286FE2800F0BB86FF2800F096
:104F8000DB8600F003BF41F27C50DFF8841CDFF8C1
:104F9000842C52890C235A4311448880DFF8E40B97
:104FA00000F0BCFF00F01BBFDFF86C0C90F8610351
:104FB00000280ED0DFF8600CD0F85003002808D18C
:104FC000DFF8C00B00F0AAFF0320DFF84C1CC1F88B
:104FD000500300F004BFDFF8400C90F86103002894
:104FE0000ED0DFF8340CD0F85003002808D1DFF8D9
:104FF000940B00F093FF0120DFF81C1CC1F8500354
:1050000000F0EDBEDFF8100C90F8610300280ED020
:10501000DFF8040CD0F85003002808D1DFF8640B47
:1050200000F07CFF0220DFF8F01BC1F8500300F015
:10503000D6BEDFF84C0B007A000715D5DFF8D80B89
:1050400090F86103002824D0DFF8CC0BD0F850038F
:1050500000281ED1DFF82C0B00F060FF0320DFF8E2
:10506000B81BC1F8500314E0DFF8AC0B90F86103F3
:1050700000280ED0DFF8A00BD0F85003002808D18C
:10508000DFF8000B00F04AFF0F20DFF88C1BC1F89F
:105090005003DFF8840B90F8610300280ED0DFF88E
:1050A000780BD0F85003002808D1DFF8D80A00F0B8
:1050B00035FF0C20DFF8601BC1F8500300F08FBEF5
:1050C0000C20DFF8541BC1F8500300F088BEDFF855
:1050D000B00A007A000707D4E4B2002C04D0DFF84D
:1050E000A80C007CC00615D4DFF82C0B90F86103E7
:1050F000002857D0DFF8200BD0F85003002851D1FA
:10510000DFF8800A00F0EBFE0120DFF80C1BC1F88D
:10511000500347E0DFF8000BD0F83802002841D1F7
:10512000DFF8F40A90F8490200283BD0DFF8B00C11
:10513000006801F0E9F804003220211BB4FBF0F212
:1051400000FB021010F13204B4F57A7F01D94FF45C
:105150007A740120DFF8C01A81F84802A0B2DFF8A3
:10516000B81AC1F83802DFF8B00AD0F838020005E2
:1051700009D1DFF8A40AD0F8380250F00100DFF8B6
:10518000981AC1F83802200002F088F8DFF8501CA5
:1051900008600120DFF8481C81F82400DFF8E409EA
:1051A00000F09DFE00F01BBEDFF8D409007A000776
:1051B00007D4E4B2002C04D0DFF8CC0B007CC0068E
:1051C00015D4DFF8540A90F8610300285BD0DFF8AB
:1051D000480AD0F85003002855D1DFF8A80900F09C
:1051E0007EFE0220DFF8301AC1F850034BE0DFF8F2
:1051F000280AD0F83802002845D1DFF81C0A90F8B8
:10520000490200283FD0DFF8D80B006801F07CF895
:1052100004003220211BB4FBF0F200FB0210B0F1BD
:105220003204642C00D264240120DFF8EC1981F8E8
:105230004802DFF8AC0B006801F066F80005000DCD
:10524000DFF8D419C1F83802DFF8CC09D0F83802F9
:10525000000509D1DFF8C009D0F8380250F001008C
:10526000DFF8B419C1F83802200002F017F8DFF8AF
:10527000701B08600120DFF8681B81F82400DFF84C
:10528000040900F02CFE00F0AABDDFF8F408007A53
:10529000000715D5DFF8800990F86103002824D0B5
:1052A000DFF87409D0F8500300281ED1DFF8D408C5
:1052B00000F015FE0120DFF86019C1F8500314E07A
:1052C000DFF8540990F8610300280ED0DFF8480990
:1052D000D0F85003002808D1DFF8A80800F0FFFD3F
:1052E0000820DFF83419C1F8500300F078BDDFF86A
:1052F0009008007A000715D5DFF81C0990F86103C3
:10530000002824D0DFF81009D0F8500300281ED15F
:10531000DFF8700800F0E3FD0220DFF8FC18C1F8A8
:10532000500314E0DFF8F00890F8610300280ED075
:10533000DFF8E408D0F85003002808D1DFF844086B
:1053400000F0CDFD0920DFF8D018C1F8500300F0BF
:1053500046BDDFF82C08007A000715D5DFF8B8083D
:1053600090F86103002824D0DFF8AC08D0F850038F
:1053700000281ED1DFF80C0800F0B1FD0220DFF894
:105380009818C1F8500314E0DFF88C0890F8610316
:1053900000280ED0DFF88008D0F85003002808D18C
:1053A000DFF8E00700F0BAFD1120DFF86C18C1F853
:1053B000500300F014BDDFF8C807007A000715D5C8
:1053C000DFF8540890F86103002824D0DFF848087B
:1053D000D0F8500300281ED1DFF8A80700F07FFDA9
:1053E0000120DFF83418C1F8500314E0DFF8280872
:1053F00090F8610300280ED0DFF81C08D0F85003A5
:10540000002808D1DFF87C0700F088FD1220DFF8C3
:105410000818C1F8500300F0E2BCDFF86407007A16
:10542000000715D5DFF8F00790F86103002824D0B5
:10543000DFF8E407D0F8500300281ED1DFF8440756
:1054400000F04DFD0220DFF8D017C1F8500314E042
:10545000DFF8C40790F8610300280ED0DFF8B80722
:10546000D0F85003002808D1DFF8180700F056FDE7
:105470001A20DFF8A417C1F8500300F0B0BCDFF821
:105480000007007A000715D5DFF88C0790F8610354
:10549000002824D0DFF88007D0F8500300281ED160
:1054A000DFF8E00600F01BFD0120DFF86C17C1F803
:1054B000500314E0DFF8600790F8610300280ED075
:1054C000DFF85407D0F85003002808D1DFF8B406FD
:1054D00000F024FD1920DFF84017C1F8500300F058
:1054E0007EBCDFF89C06007A000715D5DFF8280798
:1054F00090F86103002847D0DFF81C07D0F850036C
:10550000002841D1DFF87C0600F0E9FC0220DFF83A
:105510000817C1F8500337E0DFF8C80890F9000019
:1055200010F10E0F2CDBDFF8C0080088002827D10F
:10553000DFF8B0080078401EDFF8A8180870DFF820
:10554000D80690F86103002814D0DFF8CC06D0F814
:10555000500300280ED1DFF82C0600F0C0FCDFF865
:105560008408007800F0FF0050F48600DFF8A816E9
:10557000C1F850034FF49670DFF86C18088003E010
:10558000DFF8000600F0ABFC00F029BCDFF8F00506
:10559000007A000715D5DFF8800690F8610300282F
:1055A00045D0DFF87406D0F8500300283FD1DFF86B
:1055B000D40500F094FC0220DFF85C16C1F850031B
:1055C00035E0DFF8200890F900000F282BDADFF82B
:1055D00018080088002826D1DFF808080078401C49
:1055E000DFF800180870DFF8300690F86103002833
:1055F00013D0DFF82406D0F8500300280DD1DFF8CF
:10560000840500F06CFCDFF8DC0790F9000050F432
:105610008600DFF80416C1F850034FF49670DFF8E7
:10562000C817088003E0DFF85C0500F058FCD6E3FB
:10563000DFF84C05007A000715D5DFF8DC0590F897
:105640006103002824D0DFF8D005D0F850030028EB
:105650001ED1DFF8300500F042FC0220DFF8B8155B
:10566000C1F8500314E0DFF8B00590F8610300289A
:105670000ED0DFF8A405D0F85003002808D1DFF8D9
:10568000040500F04BFC1320DFF88C15C1F8500323
:10569000A5E3DFF8EC04007A000715D5DFF87805FC
:1056A00090F86103002824D0DFF86C05D0F850038F
:1056B00000281ED1DFF8CC0400F011FC0120DFF837
:1056C0005815C1F8500314E0DFF84C0590F8610359
:1056D00000280ED0DFF84005D0F85003002808D18C
:1056E000DFF8A00400F01AFC1420DFF82C15C1F834
:1056F000500374E3DFF88804007A000715D5DFF85B
:10570000180590F86103002824D0DFF80C05D0F8C4
:10571000500300281ED1DFF86C0400F0E0FB0220EB
:10572000DFF8F414C1F8500314E0DFF8EC0490F84B
:10573000610300280ED0DFF8E004D0F85003002801
:1057400008D1DFF8400400F0E9FB1520DFF8C814A9
:10575000C1F8500343E3DFF82804007A000715D5A9
:10576000DFF8B40490F86103002824D0DFF8A8041F
:10577000D0F8500300281ED1DFF8080400F0AFFB7A
:105780000120DFF89414C1F8500314E0DFF8880416
:1057900090F8610300280ED0DFF87C04D0F85003A5
:1057A000002808D1DFF8DC0300F0B8FB1620DFF892
:1057B0006814C1F8500312E3DFF8C403007A00074D
:1057C00015D5DFF8540490F86103002824D0DFF8E1
:1057D0004804D0F8500300281ED1DFF8A80300F0D9
:1057E0007EFB0120DFF83014C1F8500314E0DFF82D
:1057F000280490F8610300280ED0DFF81C04D0F8CC
:105800005003002808D1DFF87C0300F087FB172045
:10581000DFF80414C1F85003E1E2DFF86403007A12
:10582000000715D5DFF8F00390F86103002824D0B5
:10583000DFF8E403D0F8500300281ED1DFF844035A
:1058400000F04DFB0220DFF8D013C1F8500314E044
:10585000DFF8C40390F8610300280ED0DFF8B80326
:10586000D0F85003002808D1DFF8180300F056FBE9
:105870001820DFF8A413C1F85003B0E2DFF80003EA
:10588000007A000718D4DFF8900390F8610300282D
:105890000ED0DFF88403D0F85003002808D1DFF8D9
:1058A000E40200F03BFB2020DFF86C13C1F850034A
:1058B0002020B349087302E0B24800F02FFB8EE2CB
:1058C000AF48007A000714D5DFF84C0390F8610365
:1058D000002825D0DFF84003D0F8500300281FD15E
:1058E000A84800F01BFB0320DFF82C13C1F850037D
:1058F00016E0DFF8240390F8610300280DD0DFF8EC
:105900001803D0F85003002807D19E4800F006FB8A
:105910002720DFF80413C1F85003272098490873A3
:105920005DE29748007A000713D5DFF8EC0290F8A3
:105930006103002821D0DFF8E002D0F850030028EE
:105940001BD1904800F0EAFA0320B349C1F8500394
:1059500013E0B14890F8610300280BD0AE48D0F8AE
:105960005003002806D1874800F0D8FA2620AA491B
:10597000C1F8500326208249087330E28048007A3B
:10598000000711D5A44890F86103002820D0A24850
:10599000D0F8500300281BD17A4800F0BFFA03204A
:1059A0009D49C1F8500313E09B4890F8610300281B
:1059B0000BD09948D0F85003002806D1714800F068
:1059C000ADFA28209449C1F8500328206C49087387
:1059D00005E26B48007A000711D58F4890F8610303
:1059E000002820D08C48D0F8500300281BD16548EF
:1059F00000F094FA03208849C1F8500313E0864868
:105A000090F8610300280BD08348D0F85003002899
:105A100006D15C4800F082FA21207F49C1F850038A
:105A2000212057490873DAE15548007A000711D55B
:105A3000794890F86103002820D07748D0F85003C7
:105A400000281BD14F4800F069FA03207249C1F8C1
:105A5000500313E0704890F8610300280BD06E48A3
:105A6000D0F85003002806D1464800F057FA22200B
:105A70006949C1F85003222041490873AFE1404809
:105A8000007A000711D5644890F86103002820D0FF
:105A90006148D0F8500300281BD13A4800F03EFA84
:105AA00003205D49C1F8500313E05B4890F861039F
:105AB00000280BD05848D0F85003002806D13148B0
:105AC00000F02CFA23205449C1F8500323202C491C
:105AD000087384E12A48007A000711D54E4890F8EF
:105AE0006103002820D04C48D0F8500300281BD177
:105AF000244800F013FA03204749C1F8500313E08B
:105B0000454890F8610300280BD04348D0F8500373
:105B1000002806D11B4800F001FA24203E49C1F8B4
:105B2000500324201649087359E11548007A0007EC
:105B300011D5394890F86103002820D03648D0F8B4
:105B4000500300281BD10F4800F0E8F90320324928
:105B5000C1F8500313E0304890F8610300280BD0DF
:105B60002D48D0F85003002806D1064800F0D6F999
:105B700025202949C1F850032520014908732EE149
:105B8000CC0E0020B40C0020600100207610002014
:105B9000214890F8610300280BD01F48D0F850032B
:105BA000002806D1914800F0B9F907201A49C1F838
:105BB000500314E18E48007A000711D5164890F87A
:105BC0006103002823D01448D0F8500300281ED1C8
:105BD000864800F0A3F907200F49C1F8500316E0EA
:105BE000824800F07CF98348807800280FD0962006
:105BF0000749814A52890C235A4311448880002066
:105C000003497D4A52890C235A4311440872E6E045
:105C10009C0B0020EC0F002068050020774890F8CE
:105C2000610300280BD07548D0F85003002806D136
:105C30006E4800F073F910207049C1F85003CEE0AF
:105C40006E4890F8610300280BD06C48D0F85003E0
:105C5000002806D1654800F061F92B206749C1F89A
:105C60005003BCE000205E4981F826005F4800F048
:105C700036F95B484068624901F020FB0CD2584875
:105C800041685FF07E5001F02BFB55494860544855
:105C900041680420FFF75AF8A1E00020504981F83C
:105CA0002600524800F01BF94D484068554901F064
:105CB00059FB0BD84A484168534801F011FB484949
:105CC0004860474841680420FFF740F887E04B48A8
:105CD00090F8610300280BD04848D0F85003002802
:105CE00006D1424800F01AF92C204449C1F850036B
:105CF00075E000203A4981F827003C4800F0EFF8B1
:105D000037488068414901F0D9FA14D23448806894
:105D100000F00CFB0A2110F10A02121A90FBF1F0BC
:105D200001FB002001F0B0FA2D4988602C48816801
:105D30000520FFF70BF852E02C4800F0D0F80020C7
:105D4000274981F8270026488068314901F00AFB7D
:105D500014D82348806800F0E9FA0A21B0F10A0259
:105D6000121A90FBF1F001FB002001F08DFA1C49A2
:105D700088601B4881680520FEF7E8FF2FE01B487C
:105D800000F0ADF82BE000BF3C0900201848007A75
:105D9000000711D5194890F8610300281FD0174853
:105DA000D0F8500300281AD1104800F0B7F80320AB
:105DB0001249C1F8500312E0104890F8610300281E
:105DC0000BD00E48D0F85003002806D1074800F049
:105DD000A5F8EDB20948C0F850530548057331BD28
:105DE000A40E00208510002072100020B40C0020AA
:105DF000CC0E0020E80E0020C80F0020680500200F
:105E000000004842FFFF47C2000080BF0080774487
:105E1000010048437047000062B38B0708D0521E50
:105E200011F8013B00F8013B00F024808B07F6D10C
:105E3000830740F0208000BF103A07D330B4B1E8A8
:105E40003810103AA0E83810F9D230BC530724BFFC
:105E5000B1E80810A0E8081044BF51F8043B40F82E
:105E6000043BD20724BF31F8022B20F8022B44BF99
:105E70000B7803707047083A07D3B1E80810083A66
:105E800040F8043B40F804CBF7D25307E4E7117025
:105E9000506000201072107A507201209072002021
:105EA000D0727047807A7047C07A7047817A002933
:105EB00001D0002011E0C17A002901D000780CE067
:105EC000017A427A914203D2417A007A081A04E0B8
:105ED0000178427A5118007A081AC0B27047417AA4
:105EE0000172012181720021C1727047C27A002AB9
:105EF00013D1427A531C43724368D2B29954417A07
:105F00000278914201D300214172417A027A914292
:105F100001D10121C172002181727047827A002A69
:105F200013D1017A4A1C02724268C9B2515C027AEA
:105F300003789A4201D300220272427A037A9A428B
:105F400001D1012282720022C2720800C0B27047E1
:105F50004168007A085C7047F8B504002000FFF73C
:105F6000A5FF060024212000FFF7C0FF002718E04E
:105F70002000FFF7D3FF0500EDB2242D05D0EDB2D0
:105F80002F2D02D0EDB23B2D05D12F212000FFF7A0
:105F9000ADFFEDB2ED432900C9B22000FFF7A6FF27
:105FA0007F1C38003100C0B2C9B28842E0D33B2127
:105FB0002000FFF79BFFF1BD70B504002000FFF744
:105FC00075FF0500002617E02000FFF7A7FFC0B20D
:105FD000242810D0C0B23B280DD0C0B22F2805D144
:105FE0002000FFF79BFFC0B2C0436D1E0100C9B285
:105FF0002000FFF77BFF761C30002900C0B2C9B239
:106000008842E1D370BD2DE9F04104000025200055
:10601000FFF74CFF0700002600E0761C3000390037
:10602000C0B2C9B288421ED22000FFF777FF804677
:106030004146C9B22000FFF759FF98EA0505002143
:1060400002E0EDB26D08491CC9B20829E5DA15F085
:106050000100C0B20028F4D095F01805EDB2680830
:1060600050F08005EFE72800C0B2BDE8F08110B520
:1060700004002000FFF7C7FFC0B200280BD1607AF0
:10608000002803D12078401E607202E0607A401E32
:106090006072012003E02000FFF721FF002010BD07
:1060A00010B504002000FFF701FF2178C0B2B1EB6A
:1060B000400F09DB2000FFF7A6FF0100C9B2200056
:1060C000FFF714FF012000E0002010BD80B54F490C
:1060D00088420AD101214FF4804001F026FA0021C4
:1060E0004FF4804001F021FA36E0494988420AD154
:1060F00001215FF4003001F028FA00215FF4003044
:1061000001F023FA28E0434988420AD101215FF4D3
:10611000802001F01AFA00215FF4802001F015FAC6
:106120001AE03D4988420AD101215FF4002001F0C4
:106130000CFA00215FF4002001F007FA0CE0374967
:10614000884209D101215FF4801001F0FEF900219D
:106150005FF4801001F0F9F901BD30B585B004009D
:106160000D000020002000210021A8890028208A9D
:1061700030F44050E98808432082A089284908402B
:10618000A9882A8911436A8911430843A081A08AFA
:1061900030F44070A9890843A082684601F023F9D1
:1061A0001A48844201D1039800E00298A1890904A9
:1061B00006D51921484329684900B0FBF1F105E0F3
:1061C0001921484329688900B0FBF1F16420B1FB33
:1061D000F0F000010209642303FB1211A2891204EA
:1061E00008D5C90032316422B1FBF2F111F0070188
:1061F000084307E0090132316422B1FBF2F111F0EA
:106200000F010843208105B030BD00000038014077
:106210000044004000480040004C00400050004056
:10622000F3E9FFFFC9B2002904D0818951F400517C
:10623000818104E081894DF6FF72114081817047B0
:10624000C905C90D818070478088C005C00D7047A1
:1062500030B4002300240024002589B240F66A13DC
:10626000994205000800C0B24309DBB289B211F0BF
:106270001F04012010FA04F4012B01D10C3504E0B5
:10628000022B01D1103500E01435D2B2002A03D020
:1062900028682043286002E02868A043286030BCBA
:1062A000704710B4002200230022002289B240F679
:1062B0006A1291420A00D2B25209D2B289B211F0E6
:1062C0001F03012414FA03F3012A02D18289134027
:1062D00006E0022A02D1028A134001E0828A1340BA
:1062E00089B20A0A92B2012111FA02F20088024030
:1062F000002B03D0002A01D0012200E00022100070
:10630000C0B210BC7047000040000DD2010E7F39B2
:106310000AD4D1F11F0104D4C00140F00040C840AC
:1063200070477FF000007047002070474100090E61
:106330007F3915D4D1F11F0114D4400007D2C00118
:1063400040F00040C84048BF6FF000407047C001B7
:1063500040F00040C8404CBF4FF000404042704702
:106360000020704700424FF0004058BFC0437047C4
:10637000DFF878070088002800D172B6DFF86C07D4
:106380000088401CDFF8641708807047DFF85C075E
:106390000088401EDFF854170880DFF85007008897
:1063A000002800D162B6704780B50020DFF84017A2
:1063B00008702220DFF83C1708700020DFF834173F
:1063C00048600020DFF82C1788760020DFF82417BB
:1063D00048766420DFF81C1708610020DFF81417E6
:1063E00048610120DFF80C1708760020DFF8081755
:1063F00008700120DFF8001708760120DFF8F81692
:1064000008770120DFF8F01681F834000220DFF869
:10641000E81681F838000120DFF8DC1681F850001A
:106420000320DFF8D41681F854000120DFF8C816E5
:1064300081F86C000420DFF8C01681F8700001209C
:10644000DFF8B41681F888000520DFF8AC1681F873
:106450008C000020DFF8A01681F8A4000620DFF8E9
:10646000981681F8A8000020DFF88C1681F8C0008B
:106470000720DFF8841681F8C4000120DFF87816C1
:1064800081F8DC000820DFF8701681F8E0000120B8
:10649000DFF8641681F8F8000920DFF85C1681F84F
:1064A000FC000120DFF8501681F814010A20DFF803
:1064B000481681F818010120DFF83C1681F83001F8
:1064C0000B20DFF8341681F834010120DFF828169C
:1064D00081F84C010C20DFF8201681F850010020D3
:1064E000DFF8141681F868010D20DFF80C1681F82A
:1064F0006C010020DFF8001681F884010E20DFF81F
:10650000F81581F888010020DFF8EC1581F8A0016A
:106510000F20DFF8E41581F8A4010020DFF8D8157A
:1065200081F8BC011020DFF8D01581F8C0010120EE
:10653000DFF8C41581F8D8011120DFF8BC1581F807
:10654000DC010120DFF8B01581F8F4011220DFF83A
:10655000A81581F8F8010020DFF89C1581F81002D9
:106560001320DFF8941581F814020020DFF8881555
:1065700081F82C021420DFF8801581F83002012008
:10658000DFF8741581F848021520DFF86C1581F8E2
:106590004C020120DFF8601581F864021620DFF854
:1065A000581581F868020120DFF84C1581F8800247
:1065B0001720DFF8441581F884020120DFF8381530
:1065C00081F89C021E20DFF8301581F84803012075
:1065D000DFF8241581F86003002012E00121DFF8C4
:1065E0001825C0B21C2303FB00F31A445176002186
:1065F000DFF80425C0B21C2303FB00F31A44917694
:10660000401C0100DFF8EC241278C9B29142E5D3B6
:106610000120DFF810170870DFF80008FFF75FFCB3
:1066200001BD38B50024DFF8C8040078DFF8C404E1
:106630000069002840F0DF80DFF8B804407E0028C1
:1066400000F0D980202000F0AFF9DFF8A8144860EE
:1066500000252CE0DFF8A004EDB21C2101FB05F1C0
:106660000844407E002810D1DFF88C04EDB21C21D4
:1066700001FB05F10844807E401CDFF87C14EDB27C
:106680001C2202FB05F211448876DFF86C04EDB29F
:106690001C2101FB05F10844807E0B2806DB01204C
:1066A000DFF8581781F82400FFF77EFE6D1CEDB26D
:1066B000202D80F29880DFF83C044068E840C00755
:1066C000C8D5DFF83404EDB21C2101FB05F1405CB4
:1066D00000F06AF9DFF82014EDB21C2202FB05F28B
:1066E00011444860DFF81004EDB21C2101FB05F1F4
:1066F00008444068DFF80014EDB21C2202FB05F2EA
:106700001144496988422CD0DFF8EC03EDB21C211A
:1067100001FB05F10844007E002822D0EDB2112DC6
:1067200002DBEDB21E2D03D10020DFF8081B4882EA
:10673000DFF8C403EDB21C2101FB05F108444069F8
:10674000DFF8B413EDB21C2202FB05F2114488609D
:106750000120DFF8A413EDB21C2202FB05F2114464
:106760004876EDB21E2D1AD10120DFF8901681F87F
:106770002400DFF88403EDB21C2101FB05F108447D
:1067800040690C280BD1DFF86C03007A000706D5AE
:10679000DFF86003007BDFF86013C1F85003EDB24F
:1067A000112D06D1DFF8900A0078002801D100F001
:1067B000BBFAD148EDB21C2101FB05F10844007E73
:1067C00000283FF473AF0120CB49EDB21C2202FB3D
:1067D00005F211444876EDB21E2D7FF467AF00201C
:1067E000C449487662E70020DFF8501A4860642008
:1067F000DFF8481A08610020BD49087083E0BE48F0
:10680000BB4909781C2251430844806800286DD098
:10681000B948B74909781C2251430844407E0028F2
:1068200064D00124B2480078153803280FD2B2484A
:10683000AF4909781C2251430844806820F0704019
:10684000AD49AB4A12781C235A431144886000209A
:10685000A949A74A12781C235A4311444876A648EE
:10686000A34909781C22514308448168A248A04AE0
:1068700012781C235A43805C50F08000C0B200F0B4
:10688000D3F89D489A4909781C225143084400696D
:106890009949974A12781C235A431144C860964874
:1068A000934909781C225143084480689249904AD0
:1068B00012781C235A43114448618D4800781E28E1
:1068C0000CD18D488A4909781C22514308448068BC
:1068D000322803D10020DFF84815087000208649CF
:1068E000834A12781C235A431144886080480078F8
:1068F000401C7F490870DFF8440900787C4909781A
:10690000884200D20124E4B2002C3FF478AF31BDBC
:1069100080B5122000F048F8764988607548806894
:10692000DFF81C19086001BDDFF81009407E00285F
:106930000BD0DFF808090069002806D0DFF8FC0852
:106940000069401EDFF8F4180861DFF8F0084069BC
:10695000002806D0DFF8E4084069401EDFF8DC18A4
:106960004861002018E06449C0B21C2202FB00F21A
:106970001144C96800290ED05F49C0B21C2202FB35
:1069800000F21144C968491E5B4AC0B21C2303FBD4
:1069900000F31A44D160401C0100DFF8A0281278EF
:1069A000C9B29142DFD3704738B504000025FFF724
:1069B000DFFC4FF48051DFF8740400F044FEE4B2D1
:1069C000210089B2DFF8600400F097FE0221DFF8B1
:1069D000580400F094FE0028F8D0DFF84C0400F0D2
:1069E0008AFE002413E00021DFF83C0400F085FE5D
:1069F0000221DFF8340400F082FE0028F8D0DFF82E
:106A0000280400F078FEC0B250EA0525641CE4B208
:106A1000042CE8DB4FF48051DFF8100400F011FE85
:106A2000FFF7B4FC280032BD38B504000D0000208B
:106A3000FFF79EFC4FF48051DFF8F00300F003FEF7
:106A4000E4B254F0800189B2DFF8DC0300F055FEB7
:106A50000221DFF8D40300F052FE0028F8D0290EFE
:106A6000C9B289B2DFF8C00300F047FE0221DFF8A7
:106A7000B80300F044FE0028F8D0290CC9B289B24E
:106A8000DFF8A40300F039FE0221DFF89C0300F0D8
:106A900036FE0028F8D0290AC9B289B2DFF8880387
:106AA00000F02BFE0221DFF8800300F028FE002812
:106AB000F8D02900C9B289B2DB4800F01EFE0221DD
:106AC000D94800F01CFE0028F9D0FFF75FFC4FF416
:106AD0008051D64800F0B5FD0020DFF86017087639
:106AE0000120DFF85817487631BD000064100020FF
:106AF0007E100020CC0E0020680500202DE9F04714
:106B000004000D0090461E00E4B2102C01D10827AD
:106B100000E008270A99B1F1E04F55D20998002802
:106B200002D051F0044901E051F08069DDF820A065
:106B3000FFB2380000F0B2FB414600F0EBFDB9496E
:106B4000896800F0E7FD8046B648C168DFF8F806BE
:106B500000F0E0FD514600F0DDFD0100404600F090
:106B600045FE8046FFB2380000F098FB290000F097
:106B7000D1FDAC49896800F0CDFD0500A948C16888
:106B8000DFF8C40600F0C6FD514600F0C3FD010069
:106B9000280000F02BFEFFF7B7FBC004C00C50EA42
:106BA00009054046FFF7B0FBB6B23018DFF89C1677
:106BB00011EA40302843DFF88C16E4B21C2202FBB5
:106BC00004F21144886009E05FF00040DFF87416B9
:106BD000E4B21C2202FB04F211448860BDE8F08795
:106BE00080B5DFF86C06DFF84C168860DFF86406C5
:106BF000DFF8401648605FF07E50DFF83816C86056
:106C00008848007CC00605D50320DFF83816C1F897
:106C10001C027CE00420DFF82C16C1F81C020420C2
:106C2000DFF8101608756420DFF80816C8824FF4E4
:106C3000C870DFF8001608834FF4FA70DFF8F41517
:106C400048834FF41670DFF8EC1588834FF4167004
:106C5000DFF8E015C8834FF41670DFF8D815088404
:106C60000020DFF8D01548860020DFF8C815888698
:106C70000020DFF8C015C8860020DFF8B8150887A7
:106C800040F21310DFF8AC15488740F21310DFF81C
:106C9000A415888740F2E510DFF89815C88740F200
:106CA0008520DFF89015A1F840000020DFF884155A
:106CB000A1F842000020DFF87C15A1F84E00012069
:106CC000DFF87015A1F850000220DFF86815A1F870
:106CD00052000320DFF85C15A1F854000720DFF80C
:106CE0005415A1F856000820DFF84815A1F85800FF
:106CF0000920DFF84015A1F85A000A20DFF8341502
:106D0000A1F85C000B20DFF82C15A1F85E00012033
:106D1000444908600120DFF82015087000F0E4FD08
:106D200001BD00007F1000203E484068001D3D4925
:106D3000096888420DD23B480068082809D3002022
:106D4000DFF8001581F8F4010120DFF8EC14087079
:106D500052E0DFF8F004D0F8E00100284CD03148D0
:106D60000068002813D1DFF8DC0490F8E001AA28BD
:106D70000DD00120DFF8C01408700020DFF8C41423
:106D8000C1F8E00146F201002649086134E0DFF86D
:106D9000C804006800280BD0DFF8C004DFF8A41492
:106DA000D1F8E011DFF8B0241268104400F8011C9B
:106DB000DFF89004D0F8E00110F47F40DFF8981479
:106DC0000968090211F50071884206D1DFF88804CC
:106DD0000068401CDFF880140860DFF87C0400685D
:106DE000000210F50070DFF85C14C1F8E401002027
:106DF000DFF85014C1F8E00170470000A40E002035
:106E0000DFF83004408A002806D0DFF82804408AE2
:106E1000401EDFF82014488270470000B40C0020A8
:106E2000600100203C0900200038004000040240BE
:106E30002DE9F0438BB0DFF82004C068DFF81814A8
:106E4000896800F0D3FC8046FFF762FDDFF8EC03B1
:106E50008068C0F30314DFF8080490F824000028C9
:106E600000F0E5810020DFF8F81381F82400DFF856
:106E7000F00390F82500002801D0002501E05FF024
:106E800000555FF0D846DFF8DC03DFF8B013097A6D
:106E900011F0030150F82110DFF8BC03806800F006
:106EA00039FCDFF89013C96800F034FC0700DFF804
:106EB000A803C168DFF8A803006800F02BFC0100FC
:106EC000380000F093FCFFF71FFAD0F5F877DFF8F1
:106ED0006403408FF904C90C3143DFF8702312EAD0
:106EE00040300843DFF85C13DFF84823B2F856203F
:106EF0001C235A43114488605FF0D846DFF86403CE
:106F0000DFF83813097A11F0030150F82110DFF887
:106F10004803806800F0FEFBDFF81813C96800F032
:106F2000F9FB0700DFF83003C168DFF834030068BD
:106F300000F0F0FB0100380000F058FCFFF7E4F926
:106F4000D0F5F877DFF8EC02808FF904C90C3143F3
:106F5000DFF8F82212EA40300843DFF8E812DFF8E1
:106F6000D422B2F858201C235A4311448860DFF819
:106F7000F002C069DFF8F01200F0F4F904D8DFF88D
:106F8000EC02DFF8DC12C861DFF8D402C069DFF878
:106F9000E01200F093F903D2DFF8D402B049C861DF
:106FA00055F04066AE48C069FFF7C0F90521484377
:106FB000D0F596774046AF4900F0D4F91BD840F29F
:106FC0003329A8489D49097A11F0030150F821108E
:106FD000A148806800F09EFB00F0AEFDA64AA74BDA
:106FE00000F0D2FD0022A64B00F0A0FE00F028FF2A
:106FF000B9EB000015E040F233299A480168964841
:10700000806800F087FB00F097FD9B4A9B4B00F0E7
:10701000BBFD00229A4B00F089FE00F011FFB9EB96
:107020000000F904C90C3143884A12EA4030084391
:107030008449804AB2F85A201C235A43114488607C
:1070400055F040668648C069FFF770F9052148434E
:1070500010F596774046874900F084F919D88148A1
:107060007649097A11F0030150F821107A488068B6
:1070700000F050FB00F060FD7F4A804B00F084FD83
:1070800000227F4B00F052FE00F0DAFE00F23320C7
:1070900013E0744801687048806800F03BFB00F022
:1070A0004BFD754A754B00F06FFD0022744B00F0EC
:1070B0003DFE00F0C5FE00F23320F904C90C314357
:1070C000624A12EA403008435E495A4AB2F85C20EC
:1070D0001C235A431144886000253EE05E48E4B218
:1070E000242101FB04F1084410F1140182B0684628
:1070F0002422FEF7A1FE0CBC16001F004D48ADB2C5
:1071000000EB4500C08A00F0C9F8010032003B00E6
:1071100007A800F0E3FE9DF8240000281CD05FF0D3
:10712000C0400290002001904248ADB200EB450003
:10713000C08A00F0B3F800903E48ADB200EB4500C5
:10714000438E089A07993B48ADB200EB4500B0F872
:107150004E00C0B2FFF7D2FC6D1C28003549097DF6
:1071600080B289B2884223D23D480068454900F088
:10717000F9F8B3D85FF0E0400290002001902D486C
:10718000ADB200EB4500C08A00F088F800902948B5
:10719000ADB200EB4500438E089A07992548ADB281
:1071A00000EB4500B0F84E00C0B2FFF7A7FCD3E7F4
:1071B0002248007A000712D52748E4B2242101FBB7
:1071C00004F1084410F1140182B068462422FEF74D
:1071D00033FE0CBC1C4907A800F080FE12E01E48DC
:1071E000E4B2242101FB04F1084410F1140182B03F
:1071F00068462422FEF720FE0CBC1948016807A847
:1072000000F06CFE9DF8240000280DD05FF0C04017
:107210000290012001901248006800900023089A13
:1072200007991020FFF76AFC6420024948820BB0DE
:10723000BDE8F083C40C002081100020CC0E00209B
:1072400058100020680500200000C84200E0FF033D
:1072500096438B3CCDCC4A423C090020400900209B
:10726000A40E0020C80000200100F0410000F04101
:107270000000F0C173335C3976E09C11A5BDF13F8D
:10728000000024400100C842002840F10980F44673
:10729000404200F005F850F000406047002800BF71
:1072A0000AD0B0FA80F18840D1F19D01C9050206EB
:1072B00072F1004241EB1020704700004FF0807CDB
:1072C0001CEB400F94BF1CEB410F05E040EA010CA2
:1072D0005FEA4C0C01D28842704718BF8142704768
:1072E00090EA010F44BF81F0004101F087B900BF6F
:1072F000421A3CBF801A89184FF0004CC0F3C752A5
:10730000FF2A24D0C1F3C75313B3D21AD2F1190301
:1073100027DD4CEA01214CFA03F321EA0303D140B3
:10732000C20D4CEA0020401834BF20EA0C004CEAA1
:107330005000D20553EA006373EB0C0C52EB1020A3
:10734000420012F1807F38BF7047C00DC005704702
:10735000490212BF9A4200EB5120F8E7D2F117031D
:10736000D9D570474FF0807C1CEB400F94BF1CEBCD
:10737000410F05E040EA010C5FEA4C0C01D281426A
:10738000704718BF88427047C0B2DFF8E811086044
:10739000704711430843DFF8E01108707047C0B22E
:1073A000DFF8D811086070470021DFF8C0110968C4
:1073B000890889000143DFF8B401016070470021AA
:1073C000DFF8A811096831F0F00101436748016056
:1073D000704700216549096831F4605151EAC001E4
:1073E0006248016070470021002100220023002133
:1073F00000215E49096811F00C01002906D004291A
:1074000011D0082912D00C2914D033E0584909684A
:10741000C1F342310122491C12FA01F14FF400423A
:107420005143016032E0564901602FE05FF4610191
:1074300001602BE04D49096811F470114B4A126844
:1074400012F440024F4B890C595C920D521C474B71
:107450001B6813F48033002B05D1494B5943B1FB12
:10746000F2F1016005E05FF461035943B1FBF2F111
:1074700001600BE03E490968C1F342310122491C19
:1074800012FA01F14FF40042514301603749096893
:1074900011F0F00109093C4A515C0268CA4042609F
:1074A0003249096811F4E061090A374A515C4268BF
:1074B000CA4082602D49096811F46051C90A324AF4
:1074C000515C4268CA40C2607047C9B2002905D009
:1074D0002E49096808432D49086005E02B490968D1
:1074E00031EA0000294908607047C9B2002905D077
:1074F0002749096808432649086005E024490968C6
:1075000031EA0000224908607047C9B2002905D05D
:107510002049096808431F49086005E01D490968BA
:1075200031EA00001B4908607047C9B2002905D044
:107530001949096808431849086005E016490968AF
:1075400031EA0000144908607047C9B2002905D02B
:107550001249096808431149086005E00F490968A4
:1075600031EA00000D490860704700000838024009
:1075700004380240000047420A3802406000474297
:107580000024F400200100202C0100201C380240BF
:107590002038024024380240143802401838024093
:1075A00030B4002200230024002246E0012393404F
:1075B0000C681C409C423FD1036803241500EDB2C7
:1075C0006D00AC40A343036003680C791500EDB275
:1075D0006D00AC40234303600B79012B02D00B7983
:1075E000022B19D1836803241500EDB26D00AC4065
:1075F000A343836083684C791500EDB26D00AC4005
:1076000023438360838801249440A3438380838839
:107610008C79944023438380C36803241500EDB222
:107620006D00AC40A343C360C368CC791500EDB2D4
:107630006D00AC402343C360521C102AB6D330BC4B
:107640007047018370474183704770B40023002363
:10765000D2B211F00703DBB29B0012FA03F389B236
:10766000CA1000EB820289B2CC1000EB8404246AB9
:107670000F2511F00706F6B2B600B540AC43146210
:1076800089B2CA1000EB8202126A134389B2C91090
:1076900000EB8100036270BC7047000010B4002250
:1076A000028812F441520B884C8823438C88234370
:1076B000CC8823430C8923434C8923438C8923435F
:1076C000CC8923431A430280828B4FF2FF731A4006
:1076D0008283098A018210BC7047C9B2002904D094
:1076E000018851F04001018004E001884FF6BF722B
:1076F0001140018070478089704781817047002266
:107700000089084201D0012200E000221000C0B22E
:1077100070470000FF2212EAD05C1DBF12EAD1536D
:10772000944593422BE09C44D30780EA01021A401F
:1077300043EA002043EA0121A1FB0030410038BFA9
:1077400040007CF17F010BDBFE294ADA5B0842EA4C
:10775000C15153EA006373F1004C51EB10207047A4
:10776000D1F1080CDCF120012FDB5B0810FA01F1EC
:107770000B4373F1004120FA0CF0504170479445DF
:107780001CBF02EAD153934280EA010202F0004298
:107790001DD0400019D0490017D05BB9634514D003
:1077A0000902B1FA81F39940BCEB030CC00140F02F
:1077B0000040C1E70002B0FA80FC10FA0CF0B3EB15
:1077C0000C0CC90141F00041B6E7100070474000C1
:1077D0000AD0490008D010F1807F94BF11F1807F5A
:1077E00002E042F0FF407047D043704710B5FF23DE
:1077F00013EAD0541DBF13EAD1529C429A4239E099
:10780000A41ADA0780EA0103134042EA012142EA9E
:107810000020421A3CBF641E01EB4202090AB2FB7F
:10782000F1FE01FB1E221202B2FBF1F001FB10225D
:107830006EF30F201202B2FBF1FE4EEA00207F34FD
:1078400006DDFE2C24DA53EA500050EBC45010BD84
:10785000D4F1020401FB1E2240F08071192C1DDCC2
:1078600021FA04F0C4F12004A140114371F1004257
:10787000584110BD9C421ABF03EAD1529A420FE010
:1078800080EA010E0EF00043400004D0490016D1FA
:1078900043F0FF4010BD490008BFD343180010BD9E
:1078A0009C4205D1D21AF7D001F00041484010BDEA
:1078B0004A0212BF0846484000F0004010BD4AB9D5
:1078C0000902B1FA81F2914044B1A418C00140F01C
:1078D00000409EE7C90141F0004152420002B0FA67
:1078E00080F4A040141B94E783488449886084484E
:1078F0008249C86000208149486182487F49886187
:1079000081487E49C86181487C49086280487B493A
:1079100008638048794948637F48784948627F48CE
:107920007649C8627E487549886201207349886338
:1079300074487249C86374487049086473486F4951
:10794000486473486D49486572486C498865724857
:107950006A49886471486949086571486749C8641B
:1079600002206649C8656F48644908666E486349E5
:1079700048666E4861498866654860498867654819
:107980005E49C86764485D49C86664485B494867A2
:1079900063485A49086703205849C1F8800059488C
:1079A0005649C1F8840058485449C1F888005748DE
:1079B0005249C1F88C0056485049C1F89C005C48B7
:1079C0004E49C1F8A00054484C49C1F890005348B2
:1079D0004A49C1F8980052484849C1F89400042027
:1079E0004649C1F8A4004F484449C1F8A800464898
:1079F0004249C1F8AC0045484049C1F8B00044488C
:107A00003E49C1F8C0004A483C49C1F8C400424858
:107A10003A49C1F8B40041483849C1F8BC0040486F
:107A20003649C1F8B80005203449C1F8C8004148BA
:107A30003249C1F8CC0034483049C1F8D00033484D
:107A40002E49C1F8D40032482C49C1F8E400384826
:107A50002A49C1F8E80030482849C1F8D8002F4821
:107A60002649C1F8E0002E482449C1F8DC00062070
:107A70002249C1F8EC002B482049C1F8F000224807
:107A80001E49C1F8F40021481C49C1F8F8002048FB
:107A90001A49C1F8080126481849C1F80C011E48C6
:107AA0001649C1F8FC001D481449C1F804011C48DE
:107AB0001249C1F800011F481049C1F814011248C9
:107AC0000E49C1F8180111480C49C1F81C011048B1
:107AD0000A49C1F82C0116480849C1F830010E487E
:107AE0000649C1F820010D480449C1F828010C4895
:107AF0000249C1F82401704700009A423C09002065
:107B00008FC2753C00C04B446666164160E5D03EAE
:107B1000000070430000BC420000C84200803B44AB
:107B20000000704100404E449A991941AAF1D23E9A
:107B30000000B242000043445FF0FF0C1CEAD05149
:107B400014BF614506E0C110400721F0E04101F19A
:107B50006051704779B900F0004100020AD0B0FAD4
:107B600080FC00FA0CF001F16051A1EB0C5101EB2B
:107B7000D0214005704741020CBF40F4E0016FF096
:107B80000001002070470000B0B581EA030C0CF042
:107B9000004C40F2FF7515EA11541DBF15EA13574A
:107BA000AC42AF4239E0E41923EA455343F4801371
:107BB000C90241F0004141EA505EC7021100A7FB33
:107BC000020200284FF00000EEFB01204FF0000100
:107BD000E3FB072118BF42F0010240180021494190
:107BE000E3FB0E01A4F580640F0302D25200404172
:107BF000494154F101046CDD470872F1004250F133
:107C0000000051EB0451A1F580115CBF41EA0C0169
:107C1000B0BD4CEA05510020B0BD05EA1357AC4297
:107C200014BFAF4241E050EA410E1CBF52EA430E7E
:107C300002E061460020B0BD24423C441BD15FEA13
:107C4000070EF6D0090302BF01460020AEF1140E64
:107C5000B1FA81F7AEEB070401FA07FE0C37C7F162
:107C6000200100FA07F7C8404EEA000E23EA455308
:107C700043F48013A2E733F00043B3FA83F704BF61
:107C8000B2FA82FE77440B3FE41BB7F1200E2FBF00
:107C900002FA0EF3BB40C7F1200E22FA0EFE38BFE7
:107CA00043EA0E03BA40641C82E750EA410E14BF57
:107CB00052EA430E6FF000014FF4001717EB430F29
:107CC0008ABF194617EB410FB5E74CEA0551002072
:107CD000B0BDD4F10104B4F120070FDAC4F12007DC
:107CE000520828BF42F0010210FA07F501FA07F71F
:107CF000E1BF2A43E0403843E1400FE0352C98DCF7
:107D0000C7F1200452EA400220FA07F218BF42F0FD
:107D1000010231FA07F0A1400A43002172F100424A
:107D200050F1000051EB0C01B0BD0000F0B44FF079
:107D3000004591EA030C44BF6B4000F0D5BC00BF86
:107D4000841A71EB030603D2001BB141121973416F
:107D50004FF4001C1CEB410F34BF7CEB430443E0A9
:107D60000C0DA4EB1356352E50DC45EAC323DB0A79
:107D700045EAC121C912B6F120050DDD63FA05F609
:107D8000EB4086EA0305124218BF45F00105C01812
:107D900051F100010CD213E062FA06F5F2405540B1
:107DA000F3415A40B340F3405A408018594107D339
:107DB00049085FEA30005FEA350528BF45F0010554
:107DC00001F58011420875F1004250F1000041EBCD
:107DD0000451F0BC4FF4001C1CEB410F38BF70473E
:107DE0000020090D090570471CEB410F10D252EA23
:107DF00043060BD0BCEB410F05D80C0DAB43661E00
:107E0000342EB5DD02E0AB4380185941F0BC704719
:107E1000F0BC7047F446400D40EAC120490006D24C
:107E200000F014F8004248BF6FF00040604700F0D7
:107E30000DF84FF0004188428CBF08464042604731
:107E4000400D40EAC120490080F00D8040F0004024
:107E5000490DA1F58061491C05D4D1F11F0154BF22
:107E6000C840C01770474FF000007047DFF8880621
:107E7000DFF888160860DFF88806DFF880164860AB
:107E8000DFF88006DFF8801648605FF08140DFF899
:107E90007C16C860DFF87806DFF870160861DFF836
:107EA0007406DFF868164860DFF86C06DFF85816CD
:107EB0000860DFF86806DFF850160861DFF8600632
:107EC000DFF844168860DFF85C06DFF8401688604B
:107ED000DFF83006DFF83416086070470DB42DE97E
:107EE000F04F90B008000021FFF726FEDFF838269B
:107EF000DFF8383600F0AEFC00F0D8FD04901B9897
:107F0000FFF71AFEDFF82826DFF8283600F0A2FC7B
:107F100000F0CCFD06901D9C00200C901E98FFF7F1
:107F20000BFEDFF80426DFF8043600F093FC00F0C7
:107F3000BDFD0590DFF8D405C068FFF7FDFDDFF853
:107F4000F825DFF8F83500F085FC00F0AFFD0B9068
:107F5000DFF8B8050069FFF7EFFD0022DFF8E03534
:107F600000F078FC00F0A2FD0A90DFF8A005476859
:107F7000DFF89055DFF894058068FFF7DDFDDFF846
:107F8000C425DFF8C43500F065FC00F08FFD8346A2
:107F90002298FFF7D1FD5FF06632DFF8B03500F0D0
:107FA00059FC00F083FD08902198FFF7C5FDDFF82C
:107FB000A025DFF8A03500F04DFC00F077FD09901A
:107FC000DFF8940507902098FFF7B6FDDFF87425D9
:107FD000DFF8743500F03EFC00F068FD8246DFF803
:107FE0007C85DFF818050068FFF7A6FD0022DFF8A2
:107FF0007035FFF79BFE0022DFF8683500F02AFCA1
:108000000022DFF86435FFF791FE00F097FDFFF7DF
:1080100001FF06002000FFF78FFDDFF85025DFF895
:108020005035FFF783FE0022DFF84835FFF7ACFD3F
:108030000022DFF83435FFF779FE00F07FFDFFF70F
:10804000E9FEDFF83415142202FB06F2114451F860
:1080500020603800FFF770FDDFF82025DFF82035BD
:10806000FFF792FD0022DFF81C35FFF75FFE00F0FE
:108070001DFD070020004146FFF74CFBFFF75CFDAC
:10808000CDE900013000FFF757FD02000B009046DC
:1080900099460698FFF750FD42464B4600F08CFF8C
:1080A000DDE90023FFF770FD00F000FDFFF744FD60
:1080B000804689463800FFF73FFD0022DFF8C834CC
:1080C000FFF734FE42464B46FFF75EFD06000F0009
:1080D0002800FFF731FD0022DFF8B03400F0BAFBD2
:1080E00002000B000020DFF8A81400F0F3FA0200F1
:1080F0000B003000390000F0ADFB06000F00280037
:10810000FFF71AFD0022DFF88C3400F0A3FB01F02A
:108110006BF932003B00FFF737FD04000D005846B5
:108120005146FFF763FBFFF707FD02000B0000203D
:108130005FF0804100F0CEFA22002B00FFF724FD13
:1081400000F0B4FC04000698FFF7F6FC02000B00F8
:10815000DFF84404DFF8441400F07CFBCDE90001B3
:108160000598FFF7E9FC02000B000020DFF830144F
:1081700000F070FB82468B462000FFF7DDFC804656
:1081800089460598FFF7D8FCDFF81824DFF8183483
:10819000FFF7FAFC0022DFF81434FFF7C7FD0022D6
:1081A000DFF8C433FFF7F0FC06000F000598FFF777
:1081B000C3FC32003B00FFF7E7FC02000B00404627
:1081C000494600F087FA02000B000020DFF8D013C8
:1081D00000F040FB02000B005046594600F07AFACE
:1081E00002000B00DDE9000100F034FB02000B008F
:1081F000FFF7CAFC00F05AFC8046049D0698FFF782
:108200009BFC02000B00DFF89003DFF8901300F0F6
:1082100021FBCDE902012800FFF78EFC02000B00D4
:108220000020DFF87C1300F015FBCDE900012000F1
:10823000FFF782FC82468B462800FFF77DFCDFF8C3
:108240006423DFF86433FFF79FFC0022DFF85C3320
:10825000FFF76CFD0022C44BFFF796FC06000F00F1
:108260002800FFF769FC32003B00FFF78DFC02009D
:108270000B005046594600F02DFA02000B0000207A
:10828000C74900F0E7FA02000B00DDE9000100F049
:1082900021FA02000B00DDE9020100F0DBFA020026
:1082A0000B0010001900FFF76FFC00F0FFFB060049
:1082B00008984146FFF714F80C99FFF711F82900C8
:1082C000FFF728FA0599FFF791FA0700089831009F
:1082D000FFF706F80100380000F088F990F0004040
:1082E0002900FFF783FA0799FFF780FAFFF724FCCC
:1082F00000229C4BFFF748FC00F0D8FB060028004A
:10830000FFF71AFC9D4AAA4BFFF73EFC80468946C0
:108310000B98FFF711FC42464B46FFF735FC8046B1
:1083200089460698FFF708FC02000B0040464946C4
:1083300000F090FA8046894620002900FFF756FA9F
:10834000FFF7FAFB00229B4BFFF7F0FC00229A4B51
:10835000FFF7ECFC02000B004046494600F07AFAB9
:10836000804689462800FFF7E7FB02000B004046E5
:10837000494600F06FFA04000D000798FFF7DCFB98
:1083800002000B002000290000F064FA0022754B67
:10839000FFF7FAFB04000D000A98FFF7CDFB00225F
:1083A000864B00F057FA00225FF08043FFF7ECFBAA
:1083B000834A844BFFF7E8FB01F03EF822002B00D4
:1083C000FFF7E2FB00F072FB07000498FFF7B4FB35
:1083D000554A564B00F03EFA02000B0010001900FF
:1083E000FFF7D2FB04000D0009985FF08141FFF711
:1083F000FDF90100744800F0F9F8FFF79DFB220039
:108400002B00FFF7C1FB0022704B00F023FA00F0B5
:108410004DFB04000498002101F012F802D100265F
:108420000027002430006A49FEF79CFF00D8694EFF
:1084300030006949FEF742FF00D2674E3000FFF777
:108440007BFB664A664BFFF79FFB374A374BFFF7CC
:108450009BFB804689460498FFF76EFB42464B46DD
:10846000FFF792FB00F022FB0D905E4800683100A0
:1084700000F0E6FF00D001215A48066038002100D4
:10848000FEF72EFF060030005149FEF76BFF00D8C3
:10849000504E30005049FEF711FF00D24E4E3000D2
:1084A000FFF74AFB4D4A4E4BFFF76EFB1E4A1F4B30
:1084B000FFF76AFB04000D000498FFF73DFB220064
:1084C0002B00FFF761FB00F0F1FA0E9046480068C0
:1084D000310000F0B5FF02D001208DF83C00424889
:1084E000066019980DA91CC91CC00C390C3810B0B5
:1084F000BDE8F00F5DF810FB00006644340F00206B
:108500006666E63E0000C842040F0020A40E00206C
:108510000000F041000070410000204200002041B6
:1085200000803B4400003C44FBCBEEC9C342ED3F1E
:10853000FD87F4DBD781D33FEA3E00A94D9CDC3FA9
:1085400000003E40E25817B7D100E83F6666394068
:1085500052B81E85EB5104406666863F00007643A4
:1085600000C072C0000059400000E03F9A999999FC
:108570009999C9BF0000244000000020CDCCCCCC8C
:10858000CCCCFC3F0000404000C07C4000807140EB
:108590000038804080E9DE40D7A3703D0AD74440D0
:1085A0000000F03F691D554D10750F3F0000E83F7A
:1085B000CCCC53400000F0BF0000E0BF00002840DA
:1085C0004AD8124DFB2109400000C040A431464169
:1085D000013C1C46003C1C46003C1CC62475A7E020
:1085E00095C99D3F541000205010002090EA010FC3
:1085F00044BF81F00041FEF77BBE00BF431A4FF03D
:1086000000423EBF5340C01AC91800BFD3095FEAF9
:10861000D05C13EB400F34BFB3EB410F40E07CEB79
:10862000D1530CD342EA012122D8D1EB402009D307
:10863000400A28BF5FEA500140EBCC507047401A17
:1086400015D04002B0FA80F2521C9040400A4FEA26
:108650003C23B3EB026384BF00EB730007E040F4FC
:1086600000001A16DB07C2F10102D0401843704720
:10867000182BFCDC31FA03F202FA03F3591A38BF63
:1086800042F00102D2EB40203CBF4000ACF1010CB3
:108690005FEACC5CC20572F100414CEB50207047A0
:1086A00013EB400F0FD24B0009D0ACEBD153022B90
:1086B00003DB4902172BDDDD70479143401A43006D
:1086C000D5D10020704713EB410FD0D36FF00000DD
:1086D00070470000F0B44FF0004591EA030F44BF2B
:1086E0006B40FFF72DBB00BF841A71EB030604D269
:1086F0006E40001BB141121973414FF4001C1CEB7A
:10870000410F34BF7CEB430684E00C0DA4EB135601
:10871000362E7DDC012E43DC45EAC32343EA525367
:1087200012BFD20292025B08240545EAC12141EA48
:108730005051D2EBC020994125D407D1B0FA80F630
:1087400010FA06F164D00020203608E0B1FA81F674
:10875000B140C6F1200220FA02F21143B0404FEAC4
:10876000F474B4EB465434F001064FEA74040AD8AA
:10877000D6F50016760D04F00044F04061FA06F2DA
:108780005040F1404840C00A40EA415021F00041C9
:1087900028BF5FEA500550F1000044EBD12137E0DB
:1087A00045EAC323DB0A45EAC121C90AB6F120051F
:1087B0000EDD42EA0242120CC5F1200603FA06F66B
:1087C000EB4042EA06056D42984161F100010DE07F
:1087D00062FA06F5F240554063FA06FC82EA0C02A2
:1087E000F3405A406D42904161EB030111F4801F48
:1087F00005D1641E620502D06D004041494121F45B
:108800008011430875F1004350F1000041EB045121
:10881000F0BC70471CEB410F15D223F0004352EA25
:1088200043060BD04FEA4C0CBCEB410F04D80C0DA7
:10883000661E342EB7DDEBE7801A994150EA4106F7
:1088400008BF0021E4E708BF1CEB430F28BF6FF00F
:108850000001DDE72DE9F04140F2FF7581EA030CEC
:108860000CF0004C15EA11541DBF15EA1357AC4229
:10887000AF42E9E0BC41C1F31301C3F31303801A13
:10888000994143F4801304D2641E4000494180188A
:108890005941C90241EA5051B1FBF3F603FB1611ED
:1088A000A2FB0675D7EBC020A94102D2761E801824
:1088B0005941C90241EA5051B1FBF3FE03FB1E11BD
:1088C000A2FB0E75D7EBC020A94103D2AEF1010E79
:1088D00080185941890241EA9051760546EA8E2E68
:1088E000B1FBF3F603FB1611A2FB0675D7EB802054
:1088F000A94102D2761E80185941C90241EA50515D
:108900004EEA060EB1FBF3F603FB1611A2FB067549
:10891000D7EBC020A94102D2761E80185941C90266
:1089200041EA5051B1FBF3F703FB1711A2FB0735E6
:10893000D3EBC020A94167F100070CBF004247F00C
:10894000010766F3D5274FEA1E31B80814F5806495
:1089500014DDBD0775F1004250EB0E5051EB045190
:1089600011F5801F5CBF41EA0C01BDE8F0814CF0BD
:108970007F6141F0E0410020BDE8F081BD076D0856
:1089800040EA0E5041F48011D4F10104B4F1200604
:108990000ADAC4F120060200E04001FA06F3E140E1
:1089A0001843B24015430EE0342C14DCC6F1200409
:1089B00045EA40056D0820FA06F2154321FA06F053
:1089C000A1400D43002175F1004250F1000051EB30
:1089D0000C01BDE8F08100205FEA0C01BDE8F081E8
:1089E000CFB992185B41B3FA83F704BFB2FA82F6AB
:1089F000BF190B3FB7F120062FBF02FA06F3BB40A9
:108A0000C7F1200622FA06F638BF3343BA401CB13C
:108A1000E419641E2FE77F4231F00041B1FA81F47E
:108A200004BFB0FA80F6A4190B3CB4F120062FBFA6
:108A300000FA06F1A140C4F1200620FA06F638BF7C
:108A40003143A0403C1B16E7AC421ABF05EA13575E
:108A5000AF4214E050EA41061CBF52EA4306BFE7AA
:108A600050EA4107304661461CBF41EA0551BDE866
:108A7000F08152EA430C08BFC143BDE8F0810020F9
:108A80004FF4001616EB410F98BF16EB430F08BFCB
:108A900016EB410F24BFC14305E016EB430F0CBF9B
:108AA00061464CEA0551BDE8F08100004FEAF17CD7
:108AB000BCF1E04C2CBFBCF5001F11E05FEA4C0C90
:108AC00034BFBCF17F5F2EE05FEA9C0C4FEA0C1CC8
:108AD0004FEA3C0CC10071F100414CEB5070704703
:108AE000C90241EA5051C00218BF41F0010141F0F2
:108AF00000414FEA6C50C0F10900212810D240EA31
:108B0000CC7CCCF1200C11FA0CF070F10040CCF1CF
:108B1000200C21FA0CF00CF0004C40EB0C007047DC
:108B20004FEACC707047490011F5001F04D84FEA96
:108B3000CC10FF30C0057047C817704740F2FF7C6B
:108B40001CEA115240F2FE33D21ACCBFD2F13503E7
:108B500016E0B2F1150309DA6FEA4C53D34009422B
:108B600001D5401E59410020994370476FF0000223
:108B7000DA40094202D5801851F100019043704754
:108B8000352A09DA50EA41031CBF4FEA0C5101F1C2
:108B9000804138BF00210020704700000000000025
:108BA0002DE9FF4D86B0DDE90801CDE90401079804
:108BB000C0F30A5040F2FF71884208D1079800279D
:108BC000000305BF069800280224012412E00128B2
:108BD00007DA06A800F042FC012802DB0027002487
:108BE00008E0079A40F2FE3161F31E520792471ADD
:108BF0004FF0FF34002104A800F052FC0546129803
:108C000010B112990020088035B9DDE90823002051
:108C1000002100F083FC11D0002C11D53FB2012FB0
:108C200013D1DDE906230020C94900F077FC05D007
:108C3000012D0AD1C74900F071FC2ED1C649B8E117
:108C4000022C04D1DDE90601B3E1012D59DB022D2F
:108C500008BFDDE9080100F0AC81012C1BD10798A9
:108C60000028099802D4002848D532E0002809D409
:108C7000002D43D14FF0FF3104A800F011FC002873
:108C80003CD538E02DBB4FF0FF3104A800F008FCC4
:108C900000281ED519E0012D09D1099800283FB2FE
:108CA00002D4012F2ADA14E0012F12DA26E0099803
:108CB000002811D46DB94FF0FF3104A800F0F0FB8B
:108CC000002844BF0798002803D500204FF000413A
:108CD0006FE1002000216CE100F030FC22210160F6
:108CE00065B94FF0FF3104A800F0DAFB002844BF5B
:108CF0000798002802D5002098495AE10020984999
:108D000057E10798002848BF002D08D500F016FC51
:108D1000212101604FF0FF306FF0004149E1DDE9B2
:108D200006010022002300F00FFC38BF019209D396
:108D300081F00041CDE906014FF0FF3104A800F0B9
:108D4000AFFB0190012F13D1DDE90601854A864B67
:108D500000F012FC0CD2DDE9062300204FF0804128
:108D6000FEF712FFCDE90601002600247A4D1CE033
:108D7000DDE9062300207D49754DFEF705FF002241
:108D80002B46FEF7D3FFFFF745F8A0F1200630464B
:108D900000F00AFC0022764BFEF7F6FE00222B467E
:108DA000FEF7C4FF04460D4676010FF21C20304446
:108DB00000902246DDE906012B46FFF78BFC824638
:108DC0008B46DDE9060122462B46FEF7AFFF024641
:108DD0000B4650465946FFF73DFDCDE90401DDE95C
:108DE0000423FEF7D1FECDE906AB0646884600F027
:108DF000F1FB32464346FEF7C7FEDDE90623FFF7E7
:108E000069FC064688460020534922462B46FFF758
:108E100061FC00224FF08043FEF7B6FE3246434627
:108E2000FEF784FFDDE90423FEF7AEFE02460B46A3
:108E3000DDE90601FEF77AFF04460D464D4A4E4B2A
:108E4000FFF708FDCDE90401384600F0ADFB009ABC
:108E500007468B46D2E900013A465B46FEF766FFBD
:108E6000DDE90423FEF762FFCDE90401DDE9082313
:108E7000FEF78AFE0022414BCDE9020100F07CFBA7
:108E8000C0F0808001223E4B00F05EFB40F27E800D
:108E90000022002300F070FBDDE9022339BF00202F
:108EA0002C4900202A49FEF741FFFEF7B3FF064692
:108EB000DDE9080122462B46FEF766FECDE90201F8
:108EC000009A2C4C2C4DD2E902019046D8E904239B
:108ED000FEF72CFFDDE90823FEF756FE22462B465F
:108EE000FEF752FEDDE90223FEF720FFCDE9020185
:108EF000DDF800803A46D8E900015B46FEF716FF30
:108F0000DDE90823FEF740FE07468B46304600F0B9
:108F10004BFB02460B4638465946FFF7DBFB224621
:108F20002B46FEF731FEDDE90223FEF7FFFECDE919
:108F30000201129808B10680002600960022064B16
:108F400002A800F09DFBE8B101281FD02AE000BF75
:108F50000000E03F0000E0BF0000F03F0000F0FF35
:108F60000000F07FCD3B7F669EA0E63F00005040B2
:108F70000000903FEF39FAFE422EE63F0000E0C0CD
:108F80000000E0400020CDE9020007E00020014998
:108F900002E000BF0000F07FCDE9020100F0CEFA50
:108FA0002221016001980028DDE9020118BF81F04B
:108FB00000410AB0BDE8F08D10B582B000240094E5
:108FC000FFF7EEFD1CBD0000000000000000F0BF38
:108FD0000000000000000080000000000000008091
:108FE0000000000000000000000000C05294EEBF2E
:108FF00000000048204E51BE000000F86467BCBC71
:109000000000000000000000000000208133EDBFE0
:1090100000000080B3DB14BE000000506706A3BC54
:109020000000000000000000000000D0E9DCEBBF01
:1090300000000008C39259BE00000080B0D3B8BC45
:10904000000000000000000000000070F98FEABF7F
:10905000000000C0A51028BE000000E8BFC0B0BCE2
:10906000000000000000000000000070284CE9BF74
:1090700000000060134B42BE000000C03D20B8BCA1
:10908000000000000000000000000050FA10E8BFDF
:10909000000000C05FF62BBE000000905C71A7BC12
:1090A000000000000000000000000020FCDDE6BF22
:1090B000000000C0F8F154BE00000018E9F6B9BC89
:1090C0000000000000000000000000D0C3B2E5BFB7
:1090D00000000070E43254BE00000050DB06B4BC57
:1090E000000000000000000000000010EF8EE4BF50
:1090F00000000020F36252BE000000C02A879ABC24
:109100000000000000000000000000B02272E3BF79
:10911000000000F0E8E056BE00000028352DBDBC80
:109120000000000000000000000000000A5CE2BF38
:10913000000000B0FA8E41BE00000040AE6FBDBC22
:10914000000000000000000000000000564CE1BFDD
:10915000000000F015CD5FBE00000000141C90BCA4
:10916000000000000000000000000040BD42E0BF21
:1091700000000030F93457BE000000E06C1E93BCC4
:109180000000000000000000000000E0F57DDEBFF0
:10919000000000B08A535EBE00000080DA77AABCEF
:1091A0000000000000000000000000C09D81DCBF46
:1091B00000000000FFA226BE0000006057E2B0BC25
:1091C000000000000000000000000060F98FDABF1E
:1091D000000000580A8151BE000000F05F60B8BC7A
:1091E00000000000000000000000000098A8D8BFA8
:1091F000000000607A7F45BE000000D05433A3BC5D
:109200000000000000000000000000600FCBD6BF8F
:10921000000000D091CB40BE000000406D1BA0BC00
:109220000000000000000000000000A0FBF6D4BF1A
:1092300000000098C5CE52BE000000003A397EBC46
:109240000000000000000000000000E0FE2BD3BF83
:109250000000004073872BBE00000000926879BCBC
:10926000000000000000000000000040C069D1BF05
:1092700000000058F16353BE00000080438D7CBCA9
:10928000000000000000000000000080D85FCFBF99
:10929000000000181F8354BE000000B03F42A2BC73
:1092A00000000000000000000000008067FCCBBF51
:1092B00000000060FAFF53BE00000050E00DB8BC93
:1092C00000000000000000000000000098A8C8BFD7
:1092D000000000607A7F35BE000000C0543393BCAC
:1092E000000000000000000000000000DC63C5BFBB
:1092F00000000058D6FF54BE00000000396490BC46
:109300000000000000000000000000C0AD2DC2BF42
:1093100000000080A45915BE000000E0484BABBC23
:109320000000000000000000000000801A0BBEBF1B
:1093300000000050BF3C5ABE000000A0B364B6BCA1
:1093400000000000000000000000008004D6B7BF4D
:1093500000000040BBCF36BE0000008076CEA8BC27
:1093600000000000000000000000008032BBB1BF20
:10937000000000402A0043BE00000028C60CBDBC0F
:109380000000000000000000000000009473A7BF70
:10939000000000182B3B59BE000000C0E55DA5BCD5
:1093A000000000000000000000000000EE4397BF36
:1093B000000000A0E6C340BE00000020958DB5BCB3
:1093C000000000000000000000000000000000801D
:1093D000000000000000008000000000000000808D
:1093E000000000000000000083B5C1F30A5240F203
:1093F000FF739A4282B007D08AB9C1F313010843C0
:109400000DD10C4905B000BDC1F3130108430DD1C6
:10941000039800280AD50020002105B000BD0020D7
:1094200000900022034B02A800F02AF9DDE90201B6
:1094300005B000BD0000F03F002200F07FBA000040
:1094400040EA010C5FEA4C0C07D0884205D14FEA94
:10945000400C1CF1807F98BF8042704730B4436855
:1094600003F000420121C3F313034360002B04BF48
:109470000368002B08D10DE00368DD0F45EA4404C2
:1094800044605B000360491E4468E302F4D5C4F302
:109490001303436043681A434260084630BC704778
:1094A0004268C2F30A5240F2FF739A4207D1416800
:1094B000090303BF006800280120022070474368A9
:1094C0005B0004BF0368002B25D040F233439A1A97
:1094D000521A012A1FDB352A06DB416801F00041E0
:1094E00041600021016013E0012102F01F03994057
:1094F000491E920607D5426811404A404260026800
:109500001143002202E0026811404A40026011B19A
:109510004FF0FF30704700207047000090420CD1A0
:1095200041EA030C50EA4C0C07D0994205D14FF4A4
:10953000001C1CEB410F38BF89427047014800F006
:109540000EBC00005C0100204FF4001C1CEB410F1E
:1095500094BF1CEB430F09E041EA030C50EA4C0CAA
:1095600052EA0C0C03D28B4208BF8242704714BFF0
:1095700099429042704700004FF4001C1CEB410FD1
:1095800094BF1CEB430F09E041EA030C50EA4C0C7A
:1095900052EA0C0C03D2994208BF9042704714BFA4
:1095A0008B42824270470000010040F10780F44680
:1095B000404200F003F851F00041604709D0B0FA92
:1095C00080F18840C91CC1F58461090501EBD021F7
:1095D0004005704738B504460D461B481B492246D6
:1095E0002B46FEF7D1FA1A4A1A4BFEF79FFB22468A
:1095F0002B46FEF7C9FA184A184BFEF797FB22468E
:109600002B46FEF7C1FA164A164BFEF78FFB224691
:109610002B46FEF7B9FA144A144BFEF787FB224695
:109620002B46FEF7B1FA124A124BFEF77FFB224699
:109630002B46FEF7A9FA01B0BDE830400E4A0F4BA9
:10964000FEF774BB00000000F7DE29BFD8F8C23F68
:10965000F4B3FECC1A99C33F62CB68D96F46C73FBB
:10966000C6C912DAC471CC3F4AE98A942449D23F70
:10967000F75F97999999D93FBC5555555555E53F91
:109680002DE9F04D804686B0D8E9006714461D46A6
:109690003046394600F064FB82462046294600F0F9
:1096A0005FFBBAF1000F06D500284DD4022806D181
:1096B000C8E900453FE1BAF1020FF7D121E050B906
:1096C0000022524B30463946FFF728FF0FD0C8E939
:1096D000004500202FE1012815D100224C4B3046D7
:1096E0003946FFF71BFF18BFC8E900454FD1FFF708
:1096F00025FF212101604FF0FF306FF00041C8E9E4
:109700000001022017E1BAF1000F0FD1C8E90045AE
:109710000E99404600F03EFB040018BF012C40F0BB
:109720000981FFF70BFF2221016003E10022374B83
:1097300030463946FFF7F2FE0DD120462946FEF7A6
:1097400023FAC8E9000122E0304639460022314BB5
:10975000FFF712FF0AD2002320462946FEF714FA2B
:10976000C8E9000106B00020BDE8F08D01222A4BB7
:10977000FFF7EAFE0DD80022244B20462946FEF7CB
:1097800003FAC8E90001FFF7D9FE22210160012098
:10979000D1E0224A224BFEF7F7F900220023FFF71F
:1097A000EBFE34BF1F4B414BFEF7C0FAFEF732FB16
:1097B0000290FFF7F9FE82468B464FF078421A4B33
:1097C000FEF7E2F902460B4630463946FEF782FFC5
:1097D00006460F46154A164B50465946FEF7D4F931
:1097E00002460B4630463946FEF774FF4FF0FF3213
:1097F000104BFFF7A9FE06460F461FD800220E4B5E
:10980000FFF7BAFE1AD22046294683E00000F07F17
:109810000000F0FF00C89CC000C89C40FE822B6581
:109820004715F73F0000E0BF422EE63FF2E4D5BC0B
:10983000E7E84B3EFFFF8FBC0000903C32463B46C2
:10984000FEF7A2F982468B46194A1A4BFEF79CF99D
:10985000194A1A4BFEF76AFA02460B465046594619
:10986000FEF792F9CDE90401154A164B50465946C8
:10987000FEF78AF9144A154BFEF758FA02460B46D2
:1098800050465946FEF780F90022084BFEF74EFA83
:1098900002460B4630463946FEF776F9DDE90423E9
:1098A00006468B46FEF742FA094F13E00000E03F00
:1098B000112E5781A03F503F5843128C8F71BC3FEF
:1098C0004BE8A541B752013F0BBDF3DAE8708C3F7E
:1098D0000000F03F02460B4600203946FEF726FA0C
:1098E000CDE900013246DDE904015B46FEF7F2FEF8
:1098F00002460B4600203946FEF718FA02460B4690
:10990000DDE90001FEF7A6FF02460B462046294688
:10991000FEF73AF9C8E9000102980E990918404685
:1099200000F038FA040018BF012C03D1FFF706FE3F
:1099300022210160204606B0BDE8F08D2DE9F04CF3
:1099400004460D46164683B0DFF87403DFF874133F
:1099500022462B46FEF718F98B4621F00041DFF82E
:109960006823DFF86833FFF707FE074680F0F180D1
:10997000594600220023FFF7E7FD104694BFDFF8A9
:109980005013DFF850133A465B46FEF7CFF9FEF767
:1099900041FA070051D0FFF707FE0022CE4BFEF739
:1099A000F3F882468B464FF0A040CC4952465B46C6
:1099B000FEF7EAF802460B4620462946FEF78AFEE5
:1099C00004460D464FF0C040C54952465B46FEF77F
:1099D000DBF802460B4620462946FEF77BFE04468E
:1099E0000D464FF00050BF4952465B46FEF7CCF89B
:1099F00002460B4620462946FEF76CFE04460D46FD
:109A00000020B94952465B46FEF7BEF802460B46B7
:109A100020462946FEF75EFE04460D464FF00050F4
:109A2000B24952465B46FEF7AFF802460B46204667
:109A30002946FEF74FFE04460D46BE19204629462C
:109A40004FF0FF32AA4BFFF77FFD0BD800224FF0FB
:109A50007953FFF791FD05D2F00740F12A810024E8
:109A6000A44D26E122462B46FEF78EF80746F00766
:109A70008B4631D5A048A1493A465B46FEF784F8AB
:109A80009F4AA04BFEF752F93A465B46FEF77CF838
:109A90009D4A9E4BFEF74AF93A465B46FEF774F83C
:109AA0009B4A9C4BFEF742F93A465B46FEF76CF840
:109AB000994A9A4BFEF73AF93A465B46FEF764F844
:109AC0006FF05102964BFEF731F93A465B46FEF7CE
:109AD0005BF80022874B37E03A465B462046294632
