:020000040800F2
:1000000010140020411000086F0D00086D0F00084B
:100010006F0D00086F0D00086F0D00080000000054
:100020000000000000000000000000006F0D00084C
:100030006F0D0008000000006F0D0008610300084C
:100040006F0D00086F0D00086F0D00086F0D0008A0
:100050006F0D00086F0D00086F0D00086F0D000890
:100060006F0D00086F0D00086F0D00086F0D000880
:100070006F0D00086F0D00086F0D00086F0D000870
:100080006F0D00086F0D00086F0D00086F0D000860
:100090006F0D00086F0D00086F0D00086F0D000850
:1000A0006F0D00086F0D00086F0D00086F0D000840
:1000B0006F0D00086F0D00086F0D00086F0D000830
:1000C0006F0D00086F0D00086F0D00086F0D000820
:1000D0006F0D00086F0D00086F0D00086F0D000810
:1000E0006F0D00086F0D00086F0D00086F0D000800
:1000F0006F0D00086F0D00086F0D00086F0D0008F0
:100100006F0D00086F0D00086F0D00086F0D0008DF
:100110006F0D00086F0D00086F0D00086F0D0008CF
:100120006F0D00086F0D00086F0D00086F0D0008BF
:100130006F0D00086F0D00086F0D00086F0D0008AF
:100140006F0D00086F0D00086F0D00086F0D00089F
:100150006F0D00086F0D00086F0D00086F0D00088F
:100160006F0D00086F0D00086F0D00086F0D00087F
:100170006F0D00086F0D00086F0D00086F0D00086F
:080180006F0D00086F0D00086F
:10018800016851F0010101607047426832F4405241
:100198000A4342607047826832F440720A438260C0
:1001A8007047816851F480518160704770B4B2F52E
:1001B800004F0FD15E0816EB4106B6FBF3F6B6B258
:1001C80034004FF6F07626403500C4F34206354336
:1001D800C56005E011EB5306B6FBF3F6B6B2C66090
:1001E80070BC7047816851F48041816070478268B3
:1001F80032F400420A4382607047416831F490410A
:100208004160816831F02A018160704730B4036829
:1002180091FAA1F4B4FA84F40325E4B2640015FA5F
:1002280004F4A34391FAA1F4B4FA84F4E4B26400A8
:1002380012FA04F42343036030BC704710B44368D7
:100248008B4302FB01F42343436010BC704730B476
:10025800836891FAA1F4B4FA84F40325E4B2640043
:1002680015FA04F4A34391FAA1F4B4FA84F4E4B2BD
:10027800640012FA04F42343836030BC704730B43E
:10028800C36891FAA1F4B4FA84F40325E4B26400D3
:1002980015FA04F4A34391FAA1F4B4FA84F4E4B28D
:1002A800640012FA04F42343C36030BC704730B4CE
:1002B800036A91FAA1F4B4FA84F40F25E4B2A40015
:1002C80015FA04F4A34391FAA1F4B4FA84F4E4B25D
:1002D800A40012FA04F42343036230BC704730B41C
:1002E800436A0C0A94FAA4F4B4FA84F40F25E4B22D
:1002F800A40015FA04F4A3430C0A94FAA4F4B4FA7B
:1003080084F4E4B2A40012FA04F42343436230BC38
:10031800704781B08C49096801438B4A11608A494A
:10032800096801400091009901B0704781B0874980
:1003380009680143854A11608449096801400091B0
:10034800009901B070478249096831EA104182B2C8
:1003580011437F4A116070477E480068401C7D4900
:100368000860704780B55FF40030FFF7DFFF0120B9
:10037800FFF7CFFF022202215FF09040FFF746FF10
:10038800032202215FF09040FFF761FF0022022163
:100398005FF09040FFF752FF002202215FF090408B
:1003A800FFF76DFF072202215FF09040FFF77FFF04
:1003B800022204215FF09040FFF728FF0322042166
:1003C8005FF09040FFF743FF002204215FF0904068
:1003D800FFF734FF002204215FF09040FFF74FFF42
:1003E800072204215FF09040FFF761FF02224FF4DB
:1003F80000415FF09040FFF709FF03224FF40041EE
:100408005FF09040FFF723FF00224FF400415FF0B8
:100418009040FFF713FF00224FF400415FF0904037
:10042800FFF72DFF03224FF400415FF09040FFF7E4
:1004380056FF5FF40030FFF779FF4748FFF783FF67
:10044800464800684649084050F00C004349086097
:1004580000214248FFF799FE00214048FFF79BFE24
:100468005FF4E13300223F493C48FFF79FFE3B48D9
:10047800FFF7B8FE00213948FFF7B9FE3748FFF704
:10048800BCFE3648FFF78DFE3448FFF779FE01BD04
:100498003548006850F48070334908603348006874
:1004A80050F00100314908602F48006840084000BA
:1004B8002D490860704743F67F602D4908602C4835
:1004C80000682C49086007202B49086070472148BC
:1004D800006870471F4909681E4A1268521A82420A
:1004E800FAD3704780B5FFF7D3FFFFF7E4FFFFF7B4
:1004F80039FF01BD80B52148006850F480701F495C
:1005080008601F48006850F003001D4908601D4836
:10051800006850F400301B4908600220FFF7DAFF3A
:100528000020164908600020154908600020154978
:10053800086000200E49086000200E49086000206D
:100548000D49086001BD00004C10024058100240DF
:10055800881002400004002004000C000044004001
:10056800F369FFEF0024F400001002400810024075
:1005780014E000E018E000E010E000E0281002407D
:100588002C100240381002400178427851EA0221CA
:10059800827851EA0241C07851EA00607047884287
:1005A80003D3824201D3012000E00020C0B270478B
:1005B8007CB504000D0000F09FF92900200000F030
:1005C800A6F900F0D0F9684600F07AFA00260198FA
:1005D800864205D20098305C00F0AFFA761CF6E748
:1005E80073BD70B582B004000D0016008DF8004090
:1005F8008DF801508DF8026003216846FFF7D8FF97
:1006080073BD7CB504000D00160068460021002269
:1006180006C008388DF800408DF8015030008DF87C
:100628000200300A8DF80300300C8DF80400300EFB
:100638008DF8050006216846FFF7BAFF73BD70B450
:100648000200002000238B4215D29D5C2C00E4B2EE
:1006580060400025082D0CDAC60705D590F0180073
:10066800400850F0800002E0400830F080006D1C27
:10067800F0E75B1CE7E770BC704710B5040020008A
:10068800C0B200F0B5F910BD1CB5040000F003FAC3
:10069800002804D100200021C4E9000108E06846D0
:1006A80000F006FA00F000FADDE90001C4E90001F3
:1006B80016BD2DE9F04F85B0002400F0F5F900F0E3
:1006C800EAF9002805D100F028FAC0B200F090F944
:1006D800F5E702A800F0ECF902980578EDB22800D9
:1006E8003F2804D069280ED0FF2806D01DE001223B
:1006F8003F210020FFF785FF1AE00122FF2100209B
:10070800FFF77FFF14E0E4B2002C07D100F0D5FA20
:10071800002803D1012062490870BDE001200400CF
:10072800012269210020FFF76CFFE4B2002CC4D03D
:100738000398401E01900298461CEDB228006328D9
:1007480007D0652828D0772834D0782800F09B80F7
:10075800A1E001980C28B0D33000FFF715FF07007F
:10076800301DFFF711FF804616F10800FFF70CFF58
:10077800814641463800FFF762FF8246CA4505D1E7
:10078800524663210020FFF73CFF04E0FF2263216B
:100798000020FFF726FF90E700F040FA002803D179
:1007A80002203F49087088E7002265210020FFF7F2
:1007B80018FF82E701980C28FFF47FAF3000FFF79D
:1007C800E3FE0700301DFFF7DFFE804616F1080044
:1007D80000900420B8FBF0F101FB1081002915D02E
:1007E8000420B8FBF0F101FB1081D1F10409B9F143
:1007F800000F0BD04FF0FF0A009818EB000B524681
:100808004946584600F07CFA19EB0808254A26495B
:100818003800FFF7C4FE002807D0224A224918EB07
:100828000700FFF7BCFE002808D104201C49087007
:100838000022BA210020FFF7D4FE3EE7DDF8009041
:10084800BA4618EB0700824517D24846FFF79CFEC8
:1008580083465946504600F003FA002808D1032081
:100868000F4908700022BA210020FFF7BAFE13E0F2
:1008780019F104091AF1040AE3E70022772100209C
:10088800FFF7AFFE19E700F011FA032278210020E4
:10089800FFF7A7FE00E010E705B0BDE8F08F000005
:1008A8000F040020FFDF03080000000889490968D9
:1008B800B1F5007F08D28849864A126850548549A4
:1008C8000968491C834A1160704784490968B1F571
:1008D800007F08D28249814A126850547F490968CA
:1008E800491C7E4A1160704700207A4908607047A9
:1008F80000207A490860704780B5FFF7F5FF24208B
:10090800FFF7D4FF002077490870012002BDF8B531
:1009180006000C00002005006DB2A54221D23778F0
:10092800761C71486F490978FFB27940085C6D49B7
:100938000870FFB2242F05D0FFB22F2F02D0FFB2CC
:100948003B2F08D12F20FFF7B1FFFFB2F843C0B209
:10095800FFF7ACFF03E03800C0B2FFF7A7FF6D1C3C
:10096800DAE70120F2BD80B55E480078242807D078
:100978005C4800782F2803D05A4800783B2809D1D2
:100988002F20FFF793FF57480078C043C0B2FFF706
:100998008DFF03E053480078FFF788FF3B20FFF7FF
:1009A80085FF012002BDC0B200280BD14E494F4A35
:1009B8001278C0B24240515C4C4A117003214C4A33
:1009C800117002E000214A4A1170704710B5040006
:1009D8002000C0B2FFF779FF434844490978E4B2E0
:1009E8006140085C4149087003204149087010BD06
:1009F80010B504003E480078002808D002281ED010
:100A080011D304283CD020D305283FD03FE0E4B2DE
:100A1800242C07D1FFF76CFF00203449087001200F
:100A28003349087036E0E4B22F2C03D10220304954
:100A3800087003E02000C0B2FFF7B5FF2AE0E4B277
:100A4800E043C0B2FFF7AFFF24E0E4B22F2C03D19C
:100A580004202749087012E0E4B23B2C0BD123484C
:100A68000078002803D105202149087007E00020FC
:100A78001F49087003E02000C0B2FFF7A7FF09E094
:100A8800E4B2E043C0B2FFF7A1FF03E002E00020B8
:100A98001749087010BD16480078052801D10120B3
:100AA80000E00020C0B2704700201149087070476C
:100AB8000B490A00094909680B00C0E9002370477F
:100AC80010B405490A00034C24682300C0E9002338
:100AD80010BC704704040020000000200804002017
:100AE800000200200E040020700D00080D040020F4
:100AF8000C040020C069400910F001007047C0696B
:100B0800C00910F001007047082101627047808C0D
:100B1800C0B27047C9B20185704710B57048FFF779
:100B2800E9FF0028FAD06E48FFF7F1FF04006C488F
:100B3800FFF7EAFF2000C0B210BD10B504006848F6
:100B4800FFF7DDFF0028FAD02100C9B26448FFF79B
:100B5800E1FF10BD38B50400FFF7B9FC0500614896
:100B68000068C00306D5FFF7B2FC401B8442F6D2EA
:100B7800002034E05B480068C00705D55948006884
:100B880050F001005749086056480068800723D490
:100B98005448006800041FD45248006840041BD41D
:100BA80050480068800517D44E480068C00513D423
:100BB8004C48006800060FD44A48006840060BD429
:100BC80048480068800607D446480068C00603D431
:100BD80044480068000701D5002000E0012032BD2C
:100BE8004149096831F4FF61C2B251EAC2013E4A83
:100BF80011603D49096851F002013B4A11603A49C8
:100C0800096851F48031384A11607047364A1268D1
:100C180052F00102344B1A600160704710B564202D
:100C2800FFF798FF002801D1002018E000202F4985
:100C380008600424802C11DA2000FFF7D1FF64201B
:100C4800FFF788FF002801D1002008E02648006847
:100C58002749084024490860641CEBE7012010BDBF
:100C680038B504000D006420FFF774FF002801D197
:100C780000201AE000201D49086029002000FFF725
:100C8800C5FF6420FFF766FF002807D116480068F3
:100C98004008400014490860002006E01248006837
:100CA8004008400010490860012032BD0E48006825
:100CB80050F000400C49086070470B480068002855
:100CC80005D50C480C4908600C480B4908600648D3
:100CD8000068002801D5002000E0012070470000CE
:100CE800004400401020024014200240002002402E
:100CF80005F8FFFF2301674508200240AB89EFCDC7
:100D080062F30F2262F31F42401810F0030308D069
:100D1800C91A1FD3DB0748BF00F8012D28BF20F8E8
:100D2800022D130030B414461546103928BF20E9A7
:100D38003C00FAD8490728BF20E90C0048BF40F812
:100D4800042D890028BF20F8022D48BF00F8012D86
:100D580030BC7047C91818BF00F8012DCB0728BF51
:100D680000F8012D7047FEE7005EBCE2613FDD83BD
:100D7800C29C7E20A3FD1F419DC3217FFCA2401E73
:100D88005F01E3BD3E6082DC237D9FC1421CFEA063
:100D9800E1BF5D0380DE3C62BEE0025CDF81633D53
:100DA8007C22C09E1D43A1FF4618FAA427799BC543
:100DB80084DA3866E5BB5907DB856739BAE4065833
:100DC8001947A5FB7826C49A653BD987045AB8E623
:100DD800A7F91B45C6987A24F8A6441A99C7257B13
:100DE8003A6486D85B05E7B98CD2306EEDB3510F03
:100DF8004E10F2AC2F7193CD114FADF3702ECC92F3
:100E0800D38D6F31B2EC0E50AFF1134DCE90722CE2
:100E18006D33D18F0C52B0EE326C8ED0530DEFB1D2
:100E2800F0AE4C1291CF2D73CA947628ABF51749C2
:100E38000856B4EA6937D58B5709EBB536688AD4B2
:100E480095CB2977F4AA4816E9B7550B88D6346AA2
:100E58002B7597C94A14F6A8742AC896154BA9F792
:100E6800B6E80A54D7896B35C069400910F001000B
:100E78007047808CC0B2704710B50400FFF727FB9D
:100E8800001BB0F5C87F01D9012000E00020C0B2E6
:100E980010BD30B583B0FFF71AFB04002000FFF740
:100EA800EBFF002822D11C48FFF7DEFF002806D1FF
:100EB8002000FFF7E1FF0028F5D0002017E01648D2
:100EC800FFF7D7FF05002800C0B2FFF7D6FB68463A
:100ED800FFF7DAFB01980028E0D001980028DDD060
:100EE800009800783F28D9D1012000E000203EBDBD
:100EF80038B50A4CFFF7F6FAFFF7CBFF002801D008
:100F0800FFF7D7FBFFF7F6FA6568206885460448BF
:100F18000460A847002032BD0044004000200008BB
:100F280008ED00E019E050F8041BCB0744BFA9F115
:100F380001035918121F0023042A41F8043BF9D26F
:100F48005FEA827C0B4604D54FF0000CA1F800C084
:100F58009B1CD10744BF0021197050F8042B002AAC
:100F6800E1D17047F0B5D0F800E07146D0F804E060
:100F78007246D0F808E07346D0F80CE07446D0F812
:100F880010E07546D0F814E07646D0F818E07746B9
:100F9800D0F81CE0F446FEE710B50749794418314B
:100FA800064C7C44163404E00A68081D511888472A
:100FB8000146A142F8D110BD2C0000003800000005
:100FC8004EF68851CEF20001086840F470000860BF
:100FD800BFF34F8FBFF36F8F4FF00070E1EE100A31
:100FE8007047000041FFFFFF1004000000000020D0
:100FF8000000000000F00BF8002801D0FFF7CCFF3C
:101008000020C046C046FFF773FF00F002F8012039
:10101800704700F001B800000746384600F002F8B3
:10102800FBE7000080B5C046C046024A1100182000
:10103800ABBEFBE726000200C046C046FFF7C0FF74
:04104800FFF7D8FFD7
:04000005080010419E
:00000001FF
