:020000040800F2
:10200000681100201D690108B99C00086566010877
:10201000835E0008835E0008835E00080000000005
:10202000000000000000000000000000294401083A
:10203000835E000800000000D143010835670108F5
:10204000835E0008835E0008835E0008835E0008EC
:10205000835E0008835E0008835E0008835E0008DC
:10206000835E0008835E00083D670108835E000808
:10207000835E0008835E0008835E0008835E0008BC
:10208000835E0008835E0008835E0008835E0008AC
:10209000835E0008835E0008835E0008835E00089C
:1020A000835E0008835E0008835E0008835E00088C
:1020B000835E0008835E0008835E0008D3B20008D8
:1020C000DDB20008835E0008835E0008835E0008BE
:1020D000835E0008835E000849C00008835E000834
:1020E000835E0008835E0008835E0008835E00084C
:1020F000835E0008835E0008835E0008835E00083C
:10210000835E0008835E0008835E0008835E00082B
:10211000835E0008835E000847670108835E00084D
:10212000835E0008835E0008835E0008835E00080B
:10213000835E0008835E0008835E0008835E0008FB
:10214000835E0008835E0008835E0008835E0008EB
:10215000835E0008835E0008835E0008835E0008DB
:10216000835E0008835E0008835E0008835E0008CB
:10217000835E0008835E0008835E0008835E0008BB
:08218000835E0008835E000885
:10218800F8B504000D005026DFF8E07B320021008E
:10219800380003F0EBFCDFF8D40B90F84800002877
:1021A8000ED0DFF8C80B90ED111ADFF8C00BD0ED98
:1021B800100ADFF8B80B90ED0F0A03F0B3FA0DE040
:1021C800DFF8A80B90ED011ADFF8A00BD0ED020A9A
:1021D800DFF8980B90ED000A03F0A4FA00F0DCF9A0
:1021E80000F06EFBDFF8840B90ED011ADFF87C0B32
:1021F800D0ED020ADFF8740B90ED000A03F092FAB2
:1022080000F0CAF901F026FE00F0F6F92426DFF8FE
:10221800607B32003900280003F0A8FCF1BD000003
:1022280081B0F0EE400AF5EE400AF1EE10FA02D560
:10223800B7EE001A01E09FED2E1A9FED2E0AF4EE7C
:10224800400AF1EE10FA02D5DFED2A1A01E0F0EEAD
:10225800601ABDEEE12AB8EEC20A31EEC00A70EE8D
:10226800012A9FED250A31EE800A9FED243A33EECC
:10227800623ADFED233A83EE833A30EE030A9FEDAC
:10228800DA3A02EEC30ABFEEE40A8DED000A9DEDCC
:10229800000A01B07047000082B0F0EE400ACDEDB0
:1022A800010A01984002400A50F07C5000909DEDD0
:1022B800010AB8EE400A9FED131A20EE010A9FEDBD
:1022C800121A30EE010A9DED001ADFED101A01EE28
:1022D800610A9DED001ADFEDAF1A31EE211ADFED2C
:1022E800C31A81EE811A30EE410A02B0704700002D
:1022F800000000000000FCC2518CF242F8F59A4040
:10230800FED2DD41000000347773F8C275BFBF3FCD
:1023180080B52DED028BF0EE408AB0EE608AB0EE0B
:10232800680AFFF7B9FF28EE000AFFF779FFBDEC4E
:10233800028B01BD80B52DED048BB0EE408A18EEFE
:10234800100A03F0A1FCDFF82C2ADFF82C3A03F07E
:10235800C3FC03F093FD08EE900A9FEDA50AF4EE86
:10236800408AF1EE10FA40F1FF80F5EE408AF1EE76
:1023780010FA0FD1DFF8040ADFF8041A0160DFF859
:10238800040ADFF8041A0160DFF8000A5FF07E51E2
:102398000160F8E0F5EE408AF1EE10FA40F386802D
:1023A8000020DFF8EC1951F8201000EE101AB8EEF2
:1023B800C00AF4EE408AF1EE10FA01DB401CF0E7A7
:1023C800DFF8CC1951F82010DFF8C42912EB80028D
:1023D80052F8042C891A00EE101ADFF8B81911EB1C
:1023E800800151F8041C00EE901ADFF8A41911EBD3
:1023F800800151F8041C01EE101AB8EEC11A38EE2B
:10240800C11ADFF8901911EB8001D1ED001A70EEB6
:10241800E11AB8EEC02AC1EE821AB0EE602A01EEC7
:10242800C12ADFF8601981ED002ADFF86C1911EB79
:102438008001091FD1ED001ADFF85C1911EB80014A
:1024480091ED002A71EEC21AB8EEC02AC1EE821AC6
:10245800DFF8441911EB8001091F91ED002A01EE04
:10246800C12ADFF8181981ED002ADFF8301911EBBD
:102478008001D1ED001ADFF8241911EB8001091F42
:1024880091ED002A71EEC21AB8EEC00A81EE800AF8
:10249800DFF8081911EB8000001FD0ED001A40EE9C
:1024A800011ADFF8E808C0ED001A6CE018EE900A8F
:1024B80003F0EAFB31F0004103F0E0FC09EE100AFA
:1024C80019EE100A03F0E0FBDFF8D428DFF8D4385F
:1024D80003F002FC03F0D2FC09EE900A19EE900A10
:1024E80003F0D2FB0022DFF8C03803F00FFD03F041
:1024F800C5FCDFF89018086019EE100A03F0C4FB59
:10250800DFF8A828DFF8A83803F0E6FBDFF8A428EE
:10251800DFF8A43803F0FAFC03F0B0FCDFF85C182D
:10252800086018EE900A03F0AFFBDFF89028DFF898
:10253800903803F0D1FB03F0A1FC00EE900A9FED68
:102548002D0AFFF7E5FE10EE100A03F09DFB0200CE
:102558000B000020DFF86C1803F04CFD03F08EFC34
:10256800DFF8281808600EE0DFF81008DFF85818C0
:102578000160DFF81008DFF854180160DFF80C0874
:10258800DFF84C180160DFF8040890ED000ABDEC94
:10259800048B01BDF944B43E80B5DFF8D00790ED57
:1025A8000B0AF2EE040AB4EE600AF1EE10FA04D552
:1025B800DFF8B807DFF81C18C162DFF8B007C06A97
:1025C80003F062FBDFF81028DFF8103803F084FB13
:1025D8000022DFF80C3803F00DFD03F04FFCDFF8A4
:1025E800DC1C086001BD00008DBCBE3FA3E9DC3FD8
:1025F80001606A4654F82D4038B52DED028BDFF89E
:102608006C0790ED050AB5EE400AF1EE10FA00F0FD
:102618005481DFF8D00790ED000AB5EE400AF1EEDC
:1026280010FA00F04A81DFF8BC0790ED000ADFEDF0
:10263800E80AB4EE600AF1EE10FA20DBDFF8A8072A
:10264800DFF8CC1B0160DFF8A007DFF8A0174160B6
:10265800DFF89C07006803F017FB5FF06632DFF8CD
:10266800943703F039FB03F009FCDFF87C17886026
:10267800DFF8F80690ED050A02F06EFA24E0DFF8BC
:1026880068075FF07E510160DFF85C070021416058
:10269800DFF85C07006803F0F7FADFF85C27DFF87B
:1026A8005C3703F019FB03F0E9FBDFF83C1788609F
:1026B800DFF81C0C90ED000A00F0A2FBDFF8AC0676
:1026C80090ED050A00F088F9DFF8080C90ED000A93
:1026D800B5EE400AF1EE10FA00F0EF80F7EE000ACE
:1026E800DFF8F40B90ED000A02F0F0F8DFF880064E
:1026F80080ED050ADFF87406D0ED050ADFF8D80B7F
:1027080090ED000A02F09EF8F0EE000A02F0DEF802
:10271800DFF85C0680ED040AF0EE000ADFF8B80B7B
:1027280090ED000AB2EE041A20EE010ADFF83C062A
:1027380090ED051A80EE010A02F0C8F8DFF83006BD
:1027480080ED060AF7EE000ADFF8240690ED040A89
:10275800DFF8180690ED0D1A80EE010A02F0B6F8BF
:10276800DFF80C0680ED070ADFF8000690ED030A93
:10277800DFED980AB4EE600AF1EE10FA0BDBDFF831
:102788005C0B90ED000AFFEE000A20EE200ADFF84D
:102798004C0B80ED000ADFF8D40590ED130AB5EE76
:1027A800400AF1EE10FA42DDDFF8C005D0ED050A67
:1027B800B0EE608ADFF8B40590ED050ADFF8AC05E5
:1027C800D0ED050A20EE200A10EE100A03F05CFA9C
:1027D80004000D00DFF89405C06C03F055FADFF82B
:1027E800002BDFF8003B03F077FA02000B00002013
:1027F800DFF8F41A03F02AFD22002B0003F06CFA2C
:102808000022DFF8E83A03F0F5FB03F037FB00EEAF
:10281800100AF0EE480A02F041F8DFF8C00AD0EDDD
:10282800000A30EE800ADFF8B40A80ED000AF7EEFD
:10283800000ADFF8A80A90ED000A02F047F8DFF86E
:10284800300580ED010ADFF82405D0ED050ADFF830
:102858008C0A90ED000A01F0F5FFF0EE000A02F094
:1028680035F8DFF80C0580ED000AF0EE000ADFF815
:102878006C0A90ED000AB2EE041A20EE010ADFF8A5
:10288800EC0490ED051A80EE010A02F01FF8DFF85B
:10289800E00480ED020AF7EE000ADFF8D40490EDB8
:1028A800000ADFF8C80490ED0E1A80EE010A02F063
:1028B8000DF8DFF8BC0480ED030ABDEC028B31BDD6
:1028C80038B5DFF8A80490ED050AB5EE400AF1EE38
:1028D80010FA7CD0DFF80C0590ED000AB5EE400A3E
:1028E800F1EE10FA73D0DFF8FC0490ED000ADFED8A
:1028F800380AB4EE600AF1EE10FA24DBDFF8E804D7
:10290800DFF80C190160DFF8E004DFF8E01441603B
:10291800DFF8DC04006803F0B7F95FF06632DFF82F
:10292800D43403F0D9F903F0A9FADFF8BC148860AD
:10293800DFF8380490ED0B0A02F00EF9DFF8B00961
:1029480080ED000A28E0DFF8A0045FF07E51016006
:10295800DFF8940400214160DFF89404006803F074
:1029680093F9DFF89029DFF8903903F0B5F903F00F
:1029780085FADFF874148860DFF8540990ED000ACE
:1029880000F03EFADFF8E40390ED0B0A00F024F8BB
:10299800DFF85C0980ED000ADFF85409006803F0ED
:1029A80073F9DFF85829DFF8583903F023FB0400DE
:1029B8000D00DFF85009006803F066F922002B00CB
:1029C80003F0A4FA03F05AFADFF82419086031BDBD
:1029D8000100164401003443F8B52DED088BB0EE24
:1029E800408A18EE100A03F04FF9DFF8EC23DFF8FD
:1029F800EC3303F071F90022DFF80C3903F06CF9BD
:102A080003F03CFA08EE900ADFF8DC0390ED020AC6
:102A180088EE800AF448D0ED000A80EE200ADFF83C
:102A2800EC08D0ED000A30EE209AB0EE490A00F02A
:102A38008DFCDFF8FC0D90ED000ADFF8F40DD0ED09
:102A4800000A60EE209ADFF8E80D90ED000AFFEE2C
:102A5800000A20EE200A10EE100A03F015F906000D
:102A68000F0019EE900A03F00FF904000D00DFF8CB
:102A7800C80D90ED000A30EE490ADFF81C0ED0EDC3
:102A8800000A20EE200A10EE100A03F0FDF80022DA
:102A9800DFF87C3803F020F902000B002000290041
:102AA80003F0D4FB41EC100B03F090FC53EC102B1B
:102AB8003000390003F0CAFB04000D00DFF8D80D20
:102AC80090ED000ADFF8D00DD0ED000A30EE200AB4
:102AD80010EE100A03F0D8F802000B0020002900BD
:102AE80003F088FA04000D00DFF8B80D006803F061
:102AF800CBF822002B0003F009FA03F0BFF90AEE25
:102B0800100ADFF8D00780ED00AADFF8C40790EDBF
:102B1800000A8AEE000A10EE100A03F0B5F8DFF892
:102B2800F427DFF8F43703F0F1F903F0A7F909EE19
:102B3800900ADFF8700D90ED000A7AEE40AA2AEEAE
:102B4800AA0ADFF8CC0DD0ED000A20EE200ADFF843
:102B5800C40DD0ED000A0AEEA00ADFF8200ED0ED71
:102B6800000A30EE200ADFF8B407D0ED000A30EE94
:102B7800600A9D48D0ED020A20EE200A9A48D0ED5E
:102B8800000A80EE20BA2BEE0B0A10EE100A03F0B2
:102B98007BF806000F0019EE900A03F075F80400A0
:102BA8000D0019EE900A03F06FF8DFF87427DFF8CC
:102BB800743703F091F802000B00DFF86C07DFF8B8
:102BC8006C1703F043FB22002B0003F085F8DFF8B5
:102BD8006027DFF8603703F099F932003B0003F013
:102BE8007BF80022DFF8503703F076F803F046F957
:102BF8000BEE900ADFF8D80690ED000A88EE800AFE
:102C08003BEE400ADFF83407D0ED000A20EE200A38
:102C180010EE100A03F038F80022DFF8243703F02A
:102C28005BF80022DFF81C3703F0E4F9DFF8CC2664
:102C3800DFF8CC3603F050F803F020F9DFF89C16E3
:102C48000860B5EE408AF1EE10FA07D19FED460A0A
:102C5800F0EE40BADFF88406002101601BEE900A0E
:102C680003F012F804000D004048806A03F00CF8E5
:102C78005FF06632DFF8D03603F0BCF941EC100B98
:102C880003F024FC51EC100B22002B0003F024F875
:102C980004000D00DFF86C06006802F0F5FF220062
:102CA8002B0003F033F906000F0018EE900A02F02B
:102CB800EBFF0022DFF8503603F09CF904000D000A
:102CC800DFF82C06006802F0DFFF22002B0003F07B
:102CD80003F804000D00DFF8E405006802F0D4FFF3
:102CE80000223F4B02F0F8FF02000B0020002900F1
:102CF80003F080F902000B003000390003F0A6FA57
:102D0800DFF8F825DFF8F83502F0E6FF03F0B6F84B
:102D1800DFF8C4150860B5EE40AAF1EE10FA03D545
:102D2800DFF8B00500210160DFF8A805006802F0AF
:102D3800ABFF104A104B03F05DF903F09FF8DFF882
:102D4800941508601BEE900A02F09EFFDFF8AC2590
:102D5800DFF8AC3502F0C0FF03F090F800EE100A7F
:102D6800BDEC088BF1BD000000000000F8620020F7
:102D7800B0640020217FA3FC283F0A400866002099
:102D8800713DEC410466002000006C420C66002096
:102D980014650108586501089C650108E06501088B
:102DA800865AD3BCE3146D3F00804D4066BD18CAF7
:102DB8008976553F48E17A14AE873D401D2EA48997
:102DC800988E00BF0000F03F52B886410000B04026
:102DD8006822943F000020415B1756A8707FF13F9E
:102DE800000059401C660020E0650020A470BD3E2C
:102DF800186600206666EE3F1EA7E8482EFFEF3FE4
:102E080080B52DED048BB0EE408ADFED0D0AB0EEF3
:102E1800480A01F05BFDF0EE408A9FED099AF5EE55
:102E2800408AF1EE10FA06D99FED060AF4EE408AC0
:102E3800F1EE10FA08DB9FED020AB0EE409A07E0C7
:102E4800000000000080C7439FEDC10AB0EE409A21
:102E58009FEDD00AF4EE408AF1EE10FA0ADB9FEDFE
:102E6800CE0AF4EE408AF1EE10FA03D59FEDCB0AB4
:102E7800B0EE409A9FEDCA0AF4EE408AF1EE10FADD
:102E88000ADB9FEDC80AF4EE408AF1EE10FA03D58A
:102E98009FEDC50AB0EE409A9FEDC40AF4EE408A51
:102EA800F1EE10FA0ADB9FEDC20AF4EE408AF1EE69
:102EB80010FA03D59FEDBF0AB0EE409A9FEDBE0A07
:102EC800F4EE408AF1EE10FA0ADB9FEDBC0AF4EE4C
:102ED800408AF1EE10FA03D59FEDB90AB0EE409A98
:102EE8009FEDC80AF4EE408AF1EE10FA0ADB9FED76
:102EF800C60AF4EE408AF1EE10FA03D59FEDC30A34
:102F0800B0EE409A9FEDC20AF4EE408AF1EE10FA54
:102F18000ADB9FEDC00AF4EE408AF1EE10FA03D501
:102F28009FEDBD0AB0EE409A9FEDBC0AF4EE408AD0
:102F3800F1EE10FA0ADB9FEDBA0AF4EE408AF1EEE0
:102F480010FA03D59FEDB70AB0EE409A9FEDB60A86
:102F5800F4EE408AF1EE10FA0ADB9FEDB40AF4EEC3
:102F6800408AF1EE10FA03D59FEDB10AB0EE409A0F
:102F78009FEDB00AF4EE408AF1EE10FA0ADB9FEDFD
:102F8800AE0AF4EE408AF1EE10FA03D59FEDAB0AD3
:102F9800B0EE409A9FEDAA0AF4EE408AF1EE10FADC
:102FA8000ADB9FEDA80AF4EE408AF1EE10FA03D589
:102FB8009FEDA50AB0EE409A9FEDA40AF4EE408A70
:102FC800F1EE10FA0ADB9FEDA20AF4EE408AF1EE68
:102FD80010FA03D59FED9F0AB0EE409A9FED9E0A26
:102FE800F4EE408AF1EE10FA0ADB9FED9C0AF4EE4B
:102FF800408AF1EE10FA03D59FED990AB0EE409A97
:103008009FED980AF4EE408AF1EE10FA0ADB9FED84
:10301800960AF4EE408AF1EE10FA03D59FED930A72
:10302800B0EE409A9FED920AF4EE408AF1EE10FA63
:103038000ADB9FED900AF4EE408AF1EE10FA03D510
:103048009FED8D0AB0EE409A9FED8C0AF4EE408A0F
:10305800F1EE10FA0ADB9FED8A0AF4EE408AF1EEEF
:1030680010FA03D59FED870AB0EE409A9FED860AC5
:10307800F4EE408AF1EE10FA0ADB9FED840AF4EED2
:10308800408AF1EE10FA03D59FED810AB0EE409A1E
:103098009FED800AF4EE408AF1EE10FA0ADB9FED0C
:1030A8007E0AF4EE408AF1EE10FA03D59FED780A15
:1030B800B0EE409A9FED790AF4EE408AF1EE10FAEC
:1030C8000ADB9FED770AF4EE408AF1EE10FA03D599
:1030D8009FED740AB0EE409A9FED730AF4EE408AB1
:1030E800F1EE10FA0ADB9FED710AF4EE408AF1EE78
:1030F80010FA03D59FED6E0AB0EE409A9FED6D0A67
:10310800F4EE408AF1EE10FA0ADB9FED6B0AF4EE5A
:10311800408AF1EE10FA03D59FED690AB0EE409AA5
:103128009FED680AF4EE408AF1EE10FA0ADB9FED93
:10313800660AF4EE408AF1EE10FA03D59FED630AB1
:10314800B0EE409AB0EE490A00F000F9604801E09C
:1031580000F8274790ED000ADFF84807D0ED000A8D
:1031680030EE600AB0EE409A29EE090ADFF8280727
:10317800D0ED000A20EE200ADFF8B406D0ED000AF0
:1031880000EE890ADFF8B006D0ED000A30EE200A1A
:103198005E4817E00100C8430080F94300A00C47CF
:1031A8000000FA4301C015440030F24600001644FE
:1031B80001C02E4400F0D24600002F4401C047440D
:1031C80000B0B34680ED000A29EE090ADFF840078F
:1031D800D0ED000A20EE200ADFF83807D0ED000A0B
:1031E80009EE200ADFF89407D0ED000A30EE200A35
:1031F8004A4880ED000A494890ED000ABDEC048B6E
:1032080001BD00BF0000484401C0604400409C4626
:103218000000614401C0794400D0844600007A442B
:103228000120834400007A460040834401408644DC
:1032380000A07046006086440160894400F06B4637
:103248000080894401A08A440040674600C08A443F
:1032580001E08B440078664600008C4401208D44D0
:1032680000B0654600408D4401A08F4400206446AC
:1032780000C08F4401209C440000614600409C44EB
:103288000160BB44001056460080BB4401E0F9448D
:10329800003040460000FA4401301C4500401C45FF
:1032A80001703B4500B0014600803B4501B05A45DE
:1032B8000040CE4500C05A4501F0794528660020F7
:1032C8000080A24500007A4500A08C4500C07345E7
:1032D80020660020386600202C6600203466002016
:1032E8000E15E3FC4D28843F00001840A4314641E8
:1032F800306600202B8716D9CEF7EF3F52B81E85CF
:10330800EB51044014660020000008405866002075
:1033180000001040CDCCCCCCCCCCE4BF5C66002007
:10332800B1F9B836540CFF3F02BC0512145F1A40BD
:103338004FAF946588032C40000028401066002099
:10334800000066400000244066A64C40DFEDBF0A3E
:10335800B4EE600AF1EE10FA2BDBDFEDD30AB4EE1F
:10336800600AF1EE10FA24D5DFF83805DFF87C188A
:103378000160DFF8C404DFF878180160DFF8B004F2
:10338800DFF870180160DFF81005DFF86C180160CD
:10339800DFF8E805DFF864180160DFF87805DFF882
:1033A80060180160DFF86805DFF85818016000F060
:1033B800FCBBDFEDBE0AB4EE600AF1EE10FA2ADBC0
:1033C800DFEDBB0AB4EE600AF1EE10FA23D5DFF8A0
:1033D800D404DFF834180160DFF85C04DFF82C1837
:1033E8000160DFF84C04DFF828180160DFF8A80452
:1033F800DFF820180160DFF88405DFF81C18016089
:10340800DFF81005DFF814180160DFF80405DFF8AD
:1034180010180160C9E3DFEDBD0AB4EE600AF1EEF1
:1034280010FA2ADBDFEDBA0AB4EE600AF1EE10FA00
:1034380023D5DFF87004DFF8EC170160DFF8F80334
:10344800DFF8E4170160DFF8E803DFF8E017016050
:10345800DFF84404DFF8D8170160DFF82005DFF84B
:10346800D4170160DFF8AC04DFF8CC170160DFF88F
:10347800A004DFF8C817016097E3DFEDBC0AB4EEDB
:10348800600AF1EE10FA2ADBDFEDB90AB4EE600A41
:10349800F1EE10FA23D5DFF80C04DFF8A417016069
:1034A800DFF89403DFF89C170160DFF88403DFF886
:1034B80098170160DFF8E003DFF890170160DFF884
:1034C800BC04DFF88C170160DFF84804DFF88417C4
:1034D8000160DFF83C04DFF88017016065E3DFED89
:1034E800BB0AB4EE600AF1EE10FA28DBDFEDB80A89
:1034F800B4EE600AF1EE10FA21D5DFF8A803DFF880
:103508005C170160CC48DFF858170160C848DFF83D
:1035180054170160DFF88003DFF84C170160DFF80B
:103528005C04DFF848170160DFF8E803DFF84017AC
:103538000160DFF8DC03DFF83C17016035E3DFEDFD
:10354800BB0AB4EE600AF1EE10FA27DBDFEDB90A28
:10355800B4EE600AF1EE10FA20D5DFF84803DFF880
:1035680018170160B448DFF814170160B048DFF895
:1035780010170160C848DFF80C170160DFF8FC037A
:10358800DFF804170160DFF88C03DFF8001701602B
:10359800DFF87C03DFF8F816016006E3DFEDBF0A09
:1035A800B4EE600AF1EE10FA24DBDFEDBD0AB4EEEA
:1035B800600AF1EE10FA1DD5BA48DFF8D816016096
:1035C8009D48DFF8D41601609948DFF8D0160160ED
:1035D800B148DFF8CC160160DFF8A003DFF8C416A5
:1035E8000160CC48DFF8C0160160C948DFF8BC1696
:1035F8000160DAE2DFEDC40AB4EE600AF1EE10FA17
:1036080026DBDFEDC20AB4EE600AF1EE10FA1FD530
:10361800A448DFF89C1601608748DFF89816016017
:103628008348DFF8941601609B48DFF89016016024
:10363800DFF84803DFF888160160B648DFF884161B
:103648000160B348DFF880160160AEE236380F47F4
:10365800DFEDCB0AB4EE600AF1EE10FA2ADBDFEDFB
:10366800C90AB4EE600AF1EE10FA23D58D48DFF8E6
:103678005C1601607048DFF8581601606C48DFF886
:10368800541601608448DFF850160160BB48DFF823
:103698004C1601609F48DFF8481601609C48DFF827
:1036A8004416016081E200BF0150C3473901F64664
:1036B80034380F47DFEDCD0AB4EE600AF1EE10FAA8
:1036C80028DBDFEDCB0AB4EE600AF1EE10FA21D563
:1036D8007448DFF8141601605748DFF810160160C7
:1036E8005348DFF80C1601606B48DFF808160160D4
:1036F800A248DFF8041601608648DFF8001601606A
:103708008348DFF8FC1501604FE200BF39E9D34672
:103718003401F646DFEDCF0AB4EE600AF1EE10FA96
:1037280028DBDFEDCD0AB4EE600AF1EE10FA21D500
:103738005C48DFF8D01501603F48DFF8CC15016020
:103748003B48DFF8C81501605348DFF8C41501602D
:103758008A48DFF8C01501606E48DFF8BC150160C3
:103768006B48DFF8B81501601FE200BF39EEB646B6
:1037780034E9D346DFEDCD0AB4EE600AF1EE10FA73
:1037880028DBDFEDCB0AB4EE600AF1EE10FA21D5A2
:103798004448DFF88C1501602748DFF88815016078
:1037A8002348DFF8841501603B48DFF88015016085
:1037B8007248DFF87C1501605648DFF8781501601B
:1037C8005348DFF874150160EFE100BF06CB9E4651
:1037D80034EEB646DFEDC90AB4EE600AF1EE10FA2F
:1037E8002CDBDFEDC70AB4EE600AF1EE10FA25D53E
:1037F8002C48DFF8481501600F48DFF844150160D0
:103808000B48DFF8401501602348DFF83C150160DC
:103818005A48DFF8381501603E48DFF83415016072
:103828003B48DFF830150160BFE100BFD2AF8B46DF
:103838004466002001CB9E4640660020DFEDC30AA7
:10384800B4EE600AF1EE10FA2EDBDFEDC10AB4EE39
:10385800600AF1EE10FA27D51248DFF8FC1401606F
:10386800DFF8F804DFF8F8140160DFF8F804DFF88F
:10387800F81401600848DFF8F41401603F48DFF8E5
:10388800F01401602348DFF8EC1401602048DFF8E9
:10389800E814016089E100BF48660020717E7B461C
:1038A800CDAF8B463C660020DFEDC00AB4EE600A5F
:1038B800F1EE10FA30DBDFEDBE0AB4EE600AF1EE8D
:1038C80010FA29D5DFF8B404DFF8B4140160DFF882
:1038D8008C04DFF8B0140160DFF88804DFF8A8145E
:1038E8000160DFF8A804DFF8A81401602348DFF8B6
:1038F800A41401600748DFF8A01401600448DFF849
:103908009C14016051E100BF3E257146677E7B46ED
:103918005466002050660020DFEDA60AB4EE600A67
:10392800F1EE10FA30DBDFEDA40AB4EE600AF1EE36
:1039380010FA29D5DFF84404DFF864140160DFF8D1
:103948001C04DFF860140160DFF81804DFF858146D
:103958000160DFF83804DFF8541401600748DFF825
:1039680050140160DFF84C04DFF84C140160DFF8F4
:103978004C04DFF84C14016017E100BF4C660020CE
:103988003EB96C4634257146DFED8C0AB4EE600A08
:10399800F1EE10FA2EDBDFED8A0AB4EE600AF1EEE2
:1039A80010FA27D5DFF8D403DFF818140160DFF820
:1039B800AC03DFF814140160DFF8A803DFF80C1477
:1039C8000160DFF8C803DFF808140160DFF80404B9
:1039D800DFF804140160DFF8DC03DFF8001401608D
:1039E800DFF8D803DFF8F8130160DEE03EB9684677
:1039F80034B96C46DFED730AB4EE600AF1EE10FAE2
:103A08002CDBDFED710AB4EE600AF1EE10FA25D571
:103A1800DFF86803DFF8CC130160D048DFF8C8137B
:103A28000160D048DFF8C4130160D848DFF8C0133C
:103A38000160DFF8A003DFF8BC130160DFF874034E
:103A4800DFF8B4130160DFF87403DFF8B013016026
:103A5800ABE000BF0B3A674634B96846DFED5B0A56
:103A6800B4EE600AF1EE10FA24DBDFED590AB4EE89
:103A7800600AF1EE10FA1DD5C048DFF88413016022
:103A8800B648DFF880130160B648DFF87C130160A0
:103A9800BE48DFF878130160CE48DD490160C548AB
:103AA800DC490160C548DC4901607EE0D8C865464C
:103AB800013A6746DFED470AB4EE600AF1EE10FA04
:103AC80020DBDFED450AB4EE600AF1EE10FA19D5F5
:103AD800AA48D2490160A148D1490160A148D14909
:103AE8000160AA48D0490160BA48D0490160B1488C
:103AF800CF490160B148CF49016056E0A4636446EC
:103B0800CDC86546DFED350AB4EE600AF1EE10FA6D
:103B180020DBDFED330AB4EE600AF1EE10FA19D5B6
:103B28009648C54901608D48C44901608D48C4491B
:103B380001609648C3490160A648C34901609D4891
:103B4800C24901609D48C24901602EE067BC6146D8
:103B58009A636446DFED230AB4EE600AF1EE10FAC8
:103B680023DBDFED210AB4EE600AF1EE10FA1CD572
:103B78008248DFF8C01C01607848DFF8BC1C01608F
:103B88007848DFF8B81C01608048DFF8B41C016091
:103B98009048DFF8001D01608648DFF8FC1C0160D2
:103BA8008648DFF8EC1D0160FFE770470B62564658
:103BB80001BC61463EA940460162564671E01E4678
:103BC80034A940465333024667E01E466958D1453A
:103BD800523302469CEBA3456758D145C7617745E8
:103BE8009AEBA345A8C42F45C36177450000AF43AE
:103BF80000EF1A476F127FC288519B3D0EAD4642B7
:103C080091ED3CBE18EAFC390000E1431AA60447CE
:103C180025064FC21CCE413D75130D42F851EDBD2E
:103C2800163B7639008009446645E4465C8F2EC20F
:103C3800FB04103D8CDBCD418714A3BDC9550F395A
:103C48000080224400D0C446486114C26D17FF3C6E
:103C580057EC9741A6B86ABD960FC13800803B441F
:103C68000040AA46022BF7C1FB48003D95D46141AC
:103C7800925D29BDA48091380080544433989446BD
:103C88009FABC3C1C84A073D832F2A417F5CECBC68
:103C9800FF576A3800806D4400158446DDB58EC133
:103CA800C52C053D3676044158569ABCB54039387E
:103CB80000208044CD0C764676E053C13D93E23C2B
:103CC8007C44E34083D753BCFD430B3800D0844485
:103CD80066E06E46C21735C11C40BF3CAD2FD540CB
:103CE80067872EBC2073E13700F08744CDAC6A4665
:103CF80014D023C10280A33CB62DCD4042491ABC42
:103D0800C1ACBD3700208A4400F86746404D19C150
:103D18000400873CF71EC84048060EBC1418AB3791
:103D280000608B449A7F6646A8B313C1EEEF873CC8
:103D38000569C54050B807BCF0BF993700A08C444E
:103D4800CD1465465EE10EC117E0713C0FD1C2404B
:103D58008CF401BC0A708F3700808E4440660020C6
:103D6800660A63464466002047B607C1308B3F3C6D
:103D7800B020BF40D23BF4BBD2417D373C66002027
:103D88000000964400BA5B46B537E8C04866002094
:103D9800A0430B3C1E50B2403082C6BB6B5A213741
:103DA80000E0AB4400C64A461C7CB1C003AD483BAA
:103DB800DF37974050660020E4EC84BB546600204F
:103DC800CA097A3600C0DA4466D42E46C51B8AC0B2
:103DD80076BF7B3A4C660020CD756440AF3B23BB71
:103DE800A0F2AA3500A00C453C18104684D36AC03E
:103DF8003108EE391EFE244012D7D6BA9C9A1835DF
:103E080000E02B45D725EA45EF1B51C067B9C239F9
:103E180055FBF03F4E4A9CBA506CBD3400204B45D0
:103E28009AF3B945F20C3AC08DEAB63970EBAE3F59
:103E38006A296BBA5705843400606A450A338F458E
:103E4800B6BE24C0D3CDA2390476793F1B5B34BA01
:103E580005D33B34F8B52DED048BDFF8480CDFF8BB
:103E6800481C0160DFF83C0CDFF8401C4160DFF8BB
:103E7800400C006801F008FF5FF06632DFF8343C60
:103E880001F02AFF01F0FAFFDFF8181C8860F7EE4E
:103E9800008A9FEDE69ADFEDE59A0026DFF8180C18
:103EA80090ED050AB5EE400AF1EE10FA00F0BE8476
:103EB800DFF8080C90ED000AB5EE400AF1EE10FAB2
:103EC80000F0B484DFF8F40B90ED000ADFEDE60AA9
:103ED800B4EE600AF1EE10FAC0F24784DFF8C40BC2
:103EE800DFF8C41B0160DFF8BC0BDFF8C01B4160C2
:103EF800DFF8BC0B006801F0C7FE5FF06632DFF840
:103F0800B43B01F0E9FE01F0B9FFDFF8981B8860C7
:103F1800B7EE000AF0EE408A9FEDC40AB0EE409A70
:103F28009FEDC20AF0EE409A00200600DFF8900BE1
:103F3800DFF8901B0160DFF8880BDFF88C1B41600D
:103F4800DFF87C0BDFF8841B8160DFF8740BDFF887
:103F5800801BC160DFF84C0B90ED000ADFEDDF0A33
:103F680080EE200A10EE100A01F08EFE0022DFF823
:103F7800643B01F0CBFF04000D00DFF8280B40681C
:103F880001F082FE0022DFF8503B01F0A5FE02009E
:103F98000B002000290002F059F904000D00DFF899
:103FA800040B90ED010ADFF8FC0AD0ED000A20EEC0
:103FB800200A10EE100A01F067FE0022DFF81C3B11
:103FC80002F018F822002B0001F0A0FF04000D00F9
:103FD800DFF8D00A806801F057FE22002B0001F0BC
:103FE8007BFE01F04BFFDFF8F81A0860DFF8F00AF3
:103FF80000214160DFF8E80A00218160DFF8E00A6B
:104008000021C160DFF89C0A4068DFF8D81A086010
:10401800DFF8D00ADFF8D01A4160DFF8C80ADFF805
:10402800CC1A8160DFF8BC0ADFF8A41AC160DFF897
:10403800780E00210160DFF8700E00214160DFF882
:10404800680E00218160DFF8600E0021C160DFF892
:10405800580E00210161DFF8980A00210160DFF89D
:10406800940A002101609FED710AF0EE409ADFF892
:10407800880A00210160DFF8840ADFF8841A0160E9
:104088009FEDDB0AB0EE408ADFF82C0A90ED0A0AB1
:10409800B5EE400AF1EE10FA00F00E82DFF8180AC9
:1040A800806A01F0F1FD31F000410122DFF8543A55
:1040B80002F016FA0DD818EE100A01F0E5FD5FF0CF
:1040C8003332DFF8443A01F021FF01F0D7FE08EE61
:1040D800100ADFF8E409806A01F0D6FD31F00041EA
:1040E8000122DFF8283A02F0FBF90DD818EE100A81
:1040F80001F0CAFD5FF03332DFF80C3A01F006FF39
:1041080001F0BCFE08EE100ADFF8AC09806A01F085
:10411800BBFD31F000410122DFF8F43902F0E0F98B
:104128000DD818EE100A01F0AFFD5FF03332DFF85A
:10413800D83901F0EBFE01F0A1FE08EE100ADFF815
:104148007809806A01F0A0FD31F000410122DFF812
:10415800C43902F0C5F90DD818EE100A01F094FD23
:104168005FF03332DFF8A03901F0D0FE01F086FEAF
:1041780008EE100ADFF84009806A01F085FD31F089
:1041880000410122DFF8903902F0AAF90DD818EEA3
:10419800100A01F079FD5FF03332DFF86C3901F075
:1041A800B5FE01F06BFE08EE100ADFF80C09806A14
:1041B80001F06AFD31F000410122DFF8603902F0B8
:1041C8008FF90DD818EE100A01F05EFD5FF033325A
:1041D800DFF8343901F09AFE01F050FE08EE100ABB
:1041E800DFF8D408806A01F04FFD31F00041012268
:1041F800DFF82C3902F074F90DD818EE100A01F026
:1042080043FD5FF03332DFF8003901F07FFE01F043
:1042180035FE08EE100ADFF8A008806A01F034FDC8
:1042280031F000410122DFF8FC3801E00000000015
:1042380002F056F90DD818EE100A01F025FD5FF0CE
:104248003332DFF8C43801F061FE01F017FE08EEE2
:10425800100ADFF86408806A01F016FD31F00041A9
:104268000122DFF8C43801E00100164402F038F9F1
:104278000DD818EE100A01F007FD5FF03332DFF8B1
:10428800883801F043FE01F0F9FD08EE100ADFF866
:104298002808806A01F0F8FC31F000410122DFF8BB
:1042A800343802F01DF90DD818EE100A01F0ECFCB4
:1042B8005FF03332DFF8503801F028FE01F0DEFD00
:1042C80008EE100ADFF8F007806A01F0DDFC31F033
:1042D80000410122DFF8543802E000BF0000924399
:1042E80002F0FEF80DD818EE100A01F0CDFC5FF0D0
:1042F8003332DFF8143801F009FE01F0BFFD08EE93
:10430800100ADFF8B407806A01F0BEFC31F0004102
:104318000122DFF81C3802F0E3F80DD818EE100A75
:1043280001F0B2FC5FF03332DFF8DC3701F0EEFD6C
:1043380001F0A4FD08EE100ADFF87C07806A01F09E
:10434800A3FC31F000410122DFF8E83702F0C8F899
:104358000DD818EE100A01F097FC5FF03332DFF841
:10436800A83701F0D3FD01F089FD08EE100ADFF847
:104378004807806A01F088FC31F000410122DFF82B
:10438800B83702F0ADF80DD818EE100A01F07CFC31
:104398005FF03332DFF8703701F0B8FD01F06EFDE1
:1043A80008EE100ADFF81007806A01F06DFC31F0A2
:1043B80000410122DFF8203702F092F80DD818EEFC
:1043C800100A01F061FC5FF03332DFF83C3701F08E
:1043D8009DFD01F053FD08EE100ADFF8DC06806A47
:1043E80001F052FC31F000410122DFF8503701E0C2
:1043F8009A99993F02F074F80DD818EE100A01F056
:1044080043FC5FF03332DFF8003701F07FFD01F045
:1044180035FD08EE100ADFF8A006806A01F034FCCA
:1044280031F000410122DFF8183702F059F80DD8B1
:1044380018EE100A01F028FC5FF03332DFF8C836B6
:1044480001F064FD01F01AFD08EE100ADFF86806B5
:10445800806A01F019FC31F000410122DFF8E436EE
:1044680002F03EF80DD818EE100A01F00DFC5FF0CE
:104478003332DFF8943601F049FD01F0FFFC08EE15
:10448800100ADFF83406806A01F0FEFB31F00041C3
:104498000122DFF8B43602F023F80DD818EE100A1E
:1044A80001F0F2FB5FF03332DFF85C3601F02EFDED
:1044B80001F0E4FC08EE100A00277F1CDFF83C0638
:1044C80090ED000AFFEE000A70EE200ADFF82C06D5
:1044D800C0ED000AF7EE000AB4EE600AF1EE10FA39
:1044E80001D1012000E00020C0B200EE100AB8EEB1
:1044F800400ADFF8580680ED000ADFF8E80510EBFF
:104508008700D0ED000ADFF8B80510EB870090EDC2
:10451800000AFDF7FDFEDFF8A80510EB8700D0EDD7
:10452800010A80EE800ADFF8B80510EB8700001F4B
:10453800D0ED000A20EE200ADFF8140680ED000A0C
:10454800DFF89C05DFF80816096840F82710DFF83F
:10455800900510EB8700001F90ED000ADFF8F005CA
:10456800D0ED000A30EE600A10EE100A01F08CFB64
:104578000022DFF8683E01F03DFD04000D00DFF881
:10458800640550F8270001F07FFB02000B002000B3
:10459800290001F02FFD01F071FCDFF80C1911EB77
:1045A800870141F8040CDFF8A40590ED000AB5EE88
:1045B800400AF1EE10FA3FF480AF0020DFF8201E29
:1045C800086000200700DFF81C0E90ED000ADFF8F5
:1045D800F00410EB8700D0ED000AB4EE600AF1EEAB
:1045E80010FA0CDADFF8F80D0068401CDFF8F01D4F
:1045F80008607F1CDFF8E80D00680428E3DBDFF8BB
:10460800C004DFF8DC1D096850F82100DFF8D81D68
:104618000860DFF8AC04DFF8C81D096810EB8100FA
:104628004068DFF8881E0860DFF8B804DFF8B01DBE
:10463800096850F82100DFF8781E0860DFF8A40444
:10464800DFF89C1D096810EB81004068DFF89C1DAD
:104658000860DFF89004DFF8881D096810EB810016
:104668008068DFF8501E0860DFF87804DFF8701DF6
:10467800096810EB8100D0ED000ADFF8680D90EDB5
:10468800000ADFF83C04DFF8581D096810EB8100C8
:1046980090ED001A80EE010AFDF73AFEDFF84004BB
:1046A800DFF83C1D096810EB8100D0ED000A20EE10
:1046B800200ADFF8040E80ED000ADFF8000EDFF8AC
:1046C800F81D09680160DFF81804DFF8141D09688F
:1046D80050F82100DFF8181D0860DFF80404DFF83F
:1046E800001D096810EB81004068DFF8081D0860AC
:1046F800B0EE680A00F030FADFF8580490ED000ACE
:10470800B5EE400AF1EE10FA06D5F5EE409AF1EE54
:1047180010FA01DD01200600DFF8380490ED000AE8
:10472800F4EE409AF1EE10FA06D5F4EE499AF1EE5D
:1047380010FA01D5002E79D0DFF8180490ED000AA0
:10474800B5EE400AF1EE10FA04DDF5EE409AF1EE0E
:1047580010FA6BD4B0EE699ADFF8F80390ED000A0E
:10476800F0EE409A78EE888AC2E7CE485FF07E5134
:104778000160CF48006801F087FADFF87C2CDFF889
:104788007C3C01F0A9FA01F079FBC6498860DFF8A2
:10479800700C90ED000AFEF733FBB7EE000AF0EE5E
:1047A800408AB0EE680AFEF717F9EA4890ED000A69
:1047B800B5EE400AF1EE10FA06D5F5EE409AF1EEA4
:1047C80010FA01DD01200600E24890ED000AF4EE3F
:1047D800409AF1EE10FA06D5F4EE499AF1EE10FA85
:1047E80001D5002E22D0DB4890ED000AB5EE400A34
:1047F800F1EE10FA04DDF5EE409AF1EE10FA15D458
:10480800B0EE699AD34890ED000AF0EE409A18EE9F
:10481800900A01F039FA5FF03332DFF8B03E01F068
:1048280075FB01F02BFB08EE900ABAE7BDEC048B90
:10483800F1BD000000D084457191524583A312C098
:104848001E1D873938B52DED028BB0EE608A10EE4B
:10485800100A01F019FADFF8682CDFF8743E01F04D
:104868003BFADFF8602CDFF8143D01F0C3FB0400CD
:104878000D0018EE100A01F007FA02000B002000E4
:10488800290001F0B7FB01F0F9FA00EE100ABDECBF
:10489800028B31BD179E2B3F5B940DBA80B520EE7D
:1048A800200A10EE100A01F0EFF9DFF8182CDFF8F3
:1048B800CC3C01F011FADFF8082CDFF8143E01F0C7
:1048C80099FB01F0DBFA00EE100A01BDF8B52DEDF9
:1048D800048BF0EE408AB0EE608AB7EE009ABDEE27
:1048E800C80A10EE106AB5EE408AF1EE10FA16D535
:1048F800B1EE480ABDEEC00A10EE100A07007F1E8E
:1049080019EE100A01F0C0F90022DFF8743C01F03A
:1049180071FB01F0B3FA09EE100A002FEFD1B5EEE2
:10492800408AF1EE10FA0FD0761E19EE100A01F047
:10493800ABF90022DFF8483C01F0CEF901F09EFA0D
:1049480009EE100A002EEFD129EE280A10EE100AFF
:1049580001F09AF90022DFF87C3D01F0D7FA41EC2A
:10496800100B01F0D5FD51EC100B04000D0019EEF1
:10497800100A01F089F902000B002000290001F05B
:1049880039FB01F07BFA00EE100ABDEC048BF1BD97
:10499800FE86053438B52DED068BF0EE408AB0EE74
:1049A800609AF0EE419AB0EE61AAB0EE428A19EE32
:1049B800900A01F069F90022DFF81C3D01F08CF93A
:1049C80004000D001AEE100A01F05EF922002B0017
:1049D80001F082F904000D001AEE100A01F054F9F2
:1049E80022002B0001F078F904000D0029EE090AD5
:1049F80010EE100A01F048F902000B00200029000F
:104A080001F0F8FA0022DFF8D43C01F07FFA040044
:104A18000D00F0EE4A1AB0EE691AF0EE490AB0EE4F
:104A2800680A00F0FCFDF0EE000A20EE200A10EE05
:104A3800100A01F029F922002B0001F04DF90400B9
:104A48000D001AEE100A01F01FF902000B002000F9
:104A5800290001F0CFFA04000D008AEE090A10EED1
:104A6800100A01F011F902000B000020DFF86C1C9D
:104A780001F0ECFB02000B002000290001F0BAFA5B
:104A880004000D0018EE100A01F0FEF822002B00B9
:104A980001F022F901F0F2F900EE100ABDEC068BE4
:104AA80031BD0000E065002000006144A470BD3EF7
:104AB800186600206666EE3FF86200201C6600203B
:104AC800C0650020000010410AD74B41CDCC1441ED
:104AD8000AD7233C00C052400000554000003B402C
:104AE8000C650020D0650020CDCCCCBD000040C0B6
:104AF8006466002068660020706600207C660020DE
:104B08000000404000002E403333D33F00003940BE
:104B180000804140008046400000494000804B40F2
:104B280000004E400040504000805140000054407A
:104B3800004054400080544000C05440004055405C
:104B48000080554000C05540000056407466002063
:104B5800786600202C660020F8B52DED108B82B009
:104B6800B0EE40FA0020DFF878180860DFF848094E
:104B780090ED000ADFF8680BDFF86418096810EB9D
:104B88008100D0ED000A30EE600A10EE100A01F044
:104B98007BF80022DFF8443801F02CFA04000D00FD
:104BA800DFF8400BDFF83818096850F8210001F0E9
:104BB8006BF802000B002000290001F01BFA01F03D
:104BC8005DF9DFF8241B0860B748DFF81418096896
:104BD80010EB8100DFF8101B09680161DFF80C0B8E
:104BE800DFF8041B09680160AF48DFF8F4170968AB
:104BF80050F82100DFF8F81A0860AB48DFF8E01732
:104C0800096810EB81004068DFF8E81A0860DFF8EF
:104C1800E80A00210160DFF8E40A00210160DFF8FA
:104C2800E00A00210160DFF8DC0A00210160DFF8FA
:104C3800D80A00210160DFF8D40A00210160DFF8FA
:104C4800D00A00210160DFF8B00A00210160DFF816
:104C5800AC0A00210160DFF8A80A00210160DFF832
:104C6800A40A00210160DFF8A00A00210160DFF832
:104C78009C0A00210160DFF8980A002101601FEEFC
:104C8800100A01F001F8DFF88C2ADFF88C3A01F0FD
:104C980023F80022DFF8843A01F0ACF901F0EEF8CD
:104CA800DFF87C1A0860DFF8780A90ED008ADFF8F0
:104CB800700A90ED000ADFF8340AD0ED000AB4EE6D
:104CC800600AF1EE10FAC0F2BE81DFF8340ADFF8AC
:104CD800141709680160DFF82C0ADFF8E017096883
:104CE8000160DFF8240ADFF8C81709680160DFF8F7
:104CF8001C0ADFF8F81909680160DFF8EC06D0ED46
:104D0800008ADFF8EC0990ED000ADFF8E009D0ED41
:104D1800000A30EE209ADFF8D40990ED000A78EE08
:104D2800409AB0EE692ADFF8E409D0ED001ADFF8FE
:104D3800D80990ED001ADFF8CC09D0ED000ADFF8A9
:104D4800C00990ED000AFFF725FEB0EE40AADFF893
:104D5800BC09D0ED001ADFF8B00990ED001ADFF8B1
:104D6800A409D0ED000ADFF8980990ED000A00F0D8
:104D780056FC3AEE00AAF0EE681ADFF88C0990EDBE
:104D8800001ADFF88009D0ED000ADFF8740990ED09
:104D9800000A00F099FBF0EE408ADFF85C09C0EDEC
:104DA800008AB4EE498AF1EE10FAC0F21D81DFF8EC
:104DB800440990ED000A79EE00AADFF84409DFF80B
:104DC800281609680160DFF83C09DFF8241609682D
:104DD8000160DFF83409DFF8141609680160DFF8AC
:104DE8002C09DFF80C1909680160DFF82009D0EDFB
:104DF800001ADFF8140990ED001ADFF80809D0ED61
:104E0800000ADFF8FC0890ED000A00F008FCB0EE9C
:104E180040BA78EE49BAB0EE6B2ADFF8F008D0ED68
:104E2800001ADFF8E40890ED001ADFF8D808D0ED92
:104E3800000ADFF8CC0890ED000AFFF7ABFD30EE72
:104E48000BCADFF8680690ED00EAF0EE4E1ADFF8BC
:104E5800B80890ED001ADFF8AC08D0ED000ADFF8CA
:104E6800A00890ED000A00F02FFBB0EE40EADFF852
:104E78009008DFF8381609680160DFF88808DFF85D
:104E8800741509680160DFF88008DFF828160968DA
:104E98000160B4EE6A8AF1EE10FAC0F28080DFF8A1
:104EA8006C08DFF8501801E02065002009680160EF
:104EB800DFF85808D0ED001ADFF84C0890ED001A1A
:104EC800DFF84008D0ED000ADFF8340890ED000A5A
:104ED80000F0A5FBF0EE40CA38EE6A2ADFF82C088D
:104EE800D0ED001ADFF8200890ED001ADFF814085A
:104EF800D0ED000ADFF8080890ED000AFFF74AFD38
:104F080030EE2CDADFF89C0BD0ED02DAF0EE6D1AF9
:104F1800DFF8F40790ED001ADFF8E807D0ED000A93
:104F2800DFF8DC0790ED000A00F0CEFAF0EE40DA88
:104F3800DFF8C807C0ED00DADFF8680B8068DFF833
:104F4800C0170860DFF898078068DFF8B8170860AE
:104F5800DFF89007C068DFF8B017086038EE6A0A13
:104F6800DFF8A80780ED000ADFF8A007D0ED001AE7
:104F7800DFF8940790ED001ADFF88807D0ED000AF3
:104F8800DFF87C0790ED000A00F049FB8DED000A80
:104F98003CEE0A0A30EE0D0AF0EE40FA1BE0DFF8AC
:104FA8006C07C0ED00BADFF86407D0ED001ADFF82F
:104FB800580790ED001ADFF84C07D0ED000ADFF82B
:104FC800400790ED000A00F02AFB8DED000A3CEE48
:104FD8000A0AF0EE40FA9DED000A30EE2F0ADFF8DB
:104FE800C80A80ED000A5BE0DFF81407DFF8F81361
:104FF80009680160DFF80C07DFF8F413096801603D
:10500800DFF80407DFF8E41309680160DFF8FC063D
:10501800C0ED009ADFF8F406D0ED001ADFF8E806D4
:1050280090ED001ADFF8DC06D0ED000ADFF8D006B4
:1050380090ED000A00F0F3FA30EE0A0ADFF8680A89
:1050480080ED000A2CE0DFF8B806E649096801603F
:10505800DFF8B006DFF8641409680160DFF8A80615
:10506800DFF84C1409680160DFF8A006DFF8B01615
:1050780009680160DFF89406D0ED001ADFF88806A9
:1050880090ED001ADFF87C06D0ED000ADFF8700614
:1050980090ED000A00F0C3FADFF80C0A80ED000A70
:1050A800DFF86806D0ED001ADFF85C0690ED001A0C
:1050B800DFF85006D0ED000ADFF8440690ED000A4C
:1050C80000F060FADFF8E40980ED000ADFF8400636
:1050D800DFF8D81909680160DFF8D009D0ED001AA7
:1050E800DFF8240690ED001ADFF81806D0ED000A64
:1050F800DFF80C0690ED000A00F0E6F9DFF8AC09DD
:1051080080ED000ADFF8A00990ED000ADFF89809A1
:10511800D0ED000A20EE200ADFF88C09D0ED000A55
:1051280020EE200A68EE080A80EE200A10EE100A27
:1051380000F0AAFD0022DFF8783900F05BFF0022BA
:10514800DFF8703900F056FF04000D00DFF8580949
:10515800006800F099FD22002B0000F0D7FE060041
:105168000F00DFF8440990ED000ADFF83C09D0EDA4
:10517800000A20EE200A10EE100A00F085FD002239
:10518800DFF8503500F0A8FD04000D00CB4890ED85
:10519800000A80EE080A10EE100A00F075FD0022E1
:1051A800DFF8143900F0B2FE02000B0020002900DD
:1051B80000F020FF0022DFF8FC3800F01BFF02009F
:1051C8000B003000390001F041F800F057FE08EEFE
:1051D800900A18EE900A00F057FD04000D00DFF861
:1051E800DC08806A00F050FD5FF06632DFF8D038E6
:1051F80000F000FF41EC100B01F068F951EC100BC6
:1052080022002B0000F068FD04000D00DFF8B40850
:10521800006800F039FD22002B0000F077FE040042
:105228000D00DFF8A40890ED000ADFF8A008D0ED23
:10523800000A80EE200A20EE080A10EE100A00F09C
:1052480023FD02000B002000290000F0FFFFDFF81B
:105258008028DFF8803800F03FFD00F00FFEDFF80F
:1052680078180860DFF8A80490ED000AB5EE400A47
:10527800F1EE10FA03D5DFF8980400210160DFF899
:105288009004006800F000FD0022DFF8903400F080
:1052980023FDDFF84828DFF8483800F0ABFE00F0BF
:1052A800EDFD0EEE900ADFF83C08C0ED00EADFF8ED
:1052B800FC0790ED000ADFF84004D0ED000A30EE5C
:1052C800200ADFF83804D0ED000A30EE209ADFED2E
:1052D800A99A9FEDA90AF4EE40EAF1EE10FA13DB61
:1052E800734890ED002A7548D0ED001ADFF8F807EA
:1052F80090ED001AF0EE480A3A4890ED000A00F0E6
:1053080081F8F0EE409A3EE019EE100A00F0BCFC7D
:1053180006000F001FEE100A00F0B6FCDFF8F423B9
:10532800DFF8F43300F0D8FC00222C4B00F0D4FC5A
:1053380004000D00DFF8B407006800F0A5FC0200C7
:105348000B002000290000F055FE02000B00300081
:10535800390000F07BFF04000D00DFF88C070068BF
:1053680000F092FC22002B0000F0B6FC0022DFF8CF
:10537800803700F0B1FC0022814B00F03BFE00F0CA
:105388007DFD09EE900AF5EE40EAF1EE10FA03D53C
:10539800DFF850070021016019EE900A00F074FC54
:1053A800DFF82C27DFF82C3700F096FC00F066FDBC
:1053B800DFF84017086018EE900A00F065FCDFF887
:1053C8001027DFF8103700F087FC00F057FD00EEDB
:1053D800100A02B0BDEC108BF1BD000000000840BF
:1053E800CC66002024660020806600208C660020A1
:1053F800986600209C6600202B8716D9CEF7EF3FD1
:1054080060660020F8B52DED048BB0EE408AF0EE12
:10541800608AB0EE619AF0EE429A11EE100A00F03E
:1054280033FC0022DFF8D03600F056FC04000D00F3
:1054380018EE900A00F028FC22002B0000F04CFC2B
:1054480004000D0018EE100A00F01EFC02000B000C
:105458002000290000F0CEFD06000F0089EE280A82
:1054680010EE100A00F010FC0022DFF8903600F071
:105478004DFD04000D0019EE900A00F005FC020035
:105488000B002000290000F0E1FE02000B003000B4
:10549800390000F0AFFD0022394B00F0ABFD00F001
:1054A800EDFC00EE100ABDEC048BF1BD8466002013
:1054B80088660020906600206C66002094660020B4
:1054C800B30C71AC766A1B8E38B52DED048BB0EE3B
:1054D800409AF0EE609AB0EE418AF0EE618A18EEDA
:1054E800100A00F0D1FB02000B0000207B4900F0FD
:1054F800ADFE00F0C3FC00EE900A89EE280AFCF726
:1055080007FF10EE100A00F0BFFB0022DFF8EC35B1
:1055180000F0FCFC04000D0019EE900A00F0B4FB4A
:1055280022002B0000F0D8FB04000D0019EE100A31
:1055380000F0AAFB02000B002000290000F05AFD31
:1055480004000D0018EE100A00F09EFB02000B008C
:105558000020624900F07AFE02000B0020002900BA
:1055680000F048FD00F08AFC00EE100ABDEC048B48
:1055780031BD0000000000000000AF43E3380640E2
:105588000000244038B52DED068BF0EE409AB0EEC1
:1055980060AAB0EE418AF0EE618A18EE100A00F0B7
:1055A80073FB02000B0000204C4900F023FD00F0C3
:1055B80065FC00EE900AB0EE609A18EE900A00F0D2
:1055C80063FB0022DFF8383500F086FB04000D008D
:1055D8001AEE100A00F058FB02000B002000290008
:1055E80000F008FD04000D0018EE100A00F04CFB56
:1055F80022002B0000F070FB02000B00002037494E
:1056080000F024FE00F03AFC00EE100AF0EE490A21
:10561800FCF77EFE20EE290ABDEC068B31BD38B5BD
:105628002DED048BF0EE409AB0EE608AF0EE418AE0
:10563800B0EE619A18EE900A00F026FB0022264B85
:1056480000F04AFB04000D0088EE090A10EE100A6B
:1056580000F01AFB02000B002000290000F0F6FD04
:1056680002000B0000201D4900F0C4FC00221B4B67
:1056780000F04CFC02000B000020184900F0BAFCB6
:1056880004000D0019EE100A00F0FEFA22002B00AB
:1056980000F022FB04000D0019EE900A00F0F4FA65
:1056A80002000B002000290000F0A4FCDFF85424BD
:1056B800DFF8543400F010FB00F0E0FB00EE100AB5
:1056C80020EE000ABDEC048B31BD00003333E33F0C
:1056D8008BDF57400000E03F0000E83F0000F03F4C
:1056E8000C650020D0650020A0660020A46600207C
:1056F800A8660020AC660020B0660020B4660020D2
:10570800B8660020BC660020C0660020C466002081
:10571800C86600205B1756A8707FF13F000059400B
:1057280068660020F8B52DED0A8BB0EE409AB0EE11
:10573800608AF0EE418ADFF88403C06800F0A4FABA
:10574800DFF8C823DFF8C83300F054FC41EC100B35
:1057580000F0BCFE00F09CFF51EC100B00F08EFB3B
:1057680009EE900A19EE900A00F08EFA41EC100B3F
:1057780000F096FFB0EE40AAF0EE60AACF480069AC
:1057880000F082FA04000D0053EC1A2B33F00043AA
:105798000020DFF8801300F09FFA41EC100B00F0B6
:1057A800B7FE51EC100B22002B0000F095FA0022F6
:1057B800D84B00F01FFCD84AD84B00F08DFA00F007
:1057C8005DFBC9490860BD4890ED070ADFEDAC0AEA
:1057D800B4EE600AF1EE10FA02D5B848D049C161BA
:1057E800B64890ED0A0ADFEDA70AB4EE600AF1EEBA
:1057F80010FA02DBB148A3498162B04890ED0A0A69
:10580800DFEDA10AB4EE600AF1EE10FA02D5AB485A
:10581800C44981629FED9D0AB4EE409AF1EE10FAF8
:1058280003DB9FED9B0AB0EE409A9FED9A0AB4EE17
:10583800409AF1EE10FA03D59FED960AB0EE409A21
:105848009FED950AF4EE408AF1EE10FA03DB9FED26
:105858008D0AF0EE408A18EE900A00F015FAB24A66
:10586800B24B00F039FA0022B14B00F04FFB00F0C8
:1058780005FB0AEE100A18EE100A00F005FA5FF0B0
:105888006632AC4B00F0B6FB00F0F8FA0AEE900A6C
:105898008A48006B00F0F8F98D4A8E4B00F0AAFB9D
:1058A80000F0ECFA87490860B0EE490AFCF742FDBF
:1058B800B0EE40BA9FED790AB4EE40BAF1EE10FAB4
:1058C8000BDB1BEE100A00F0DFF99B4A9B4B00F044
:1058D80003FA00F0D3FA0BEE100A1BEE100A00F0E0
:1058E800D3F906000F00964890ED000A3AEE400AF8
:1058F80010EE100A00F0C8F904000D009048006886
:1059080000F0C2F98F4A904B00F000FB02000B0038
:105918002000290000F06EFB00228C4B00F0F6FA04
:1059280004000D008A4890ED000A3AEEC00A884843
:10593800D0ED000A80EE200A10EE100A00F0A4F95B
:1059480002000B002000290000F080FC32003B0020
:1059580000F0C2F904000D005848C06900F094F93D
:1059680022002B0000F0B8F900F088FA79490860A5
:10597800524890ED060ADFED4A0AB4EE600AF1EEED
:1059880010FA02D54D484649816119EE900A00F097
:105998007BF941EC100B00F099FDB0EE40CAF0EE37
:1059A80060CA464890ED080A38EEC00A4348D0ED70
:1059B800090A20EE200A10EE100A00F065F900220C
:1059C800654B00F017FB0022644B00F09FFA0400BF
:1059D8000D003A48806900F057F922002B0000F0CA
:1059E8007BF900225D4B00F005FB06000F003348F1
:1059F800006900F049F904000D0053EC1C2B00204D
:105A0800444900F069F941EC100B00F081FD51ECBC
:105A1800100B22002B0000F05FF90022504B00F021
:105A2800E9FA32003B0000F071FA00F027FA4D491C
:105A380008604C48006800F027F9284A284B00F015
:105A48004BF900F01BFA29490860284890ED000A34
:105A5800DFED130AB4EE600AF1EE10FA02D523481E
:105A68000F490160214890ED000ADFED0D0A80EE34
:105A7800200A3D4880ED000ABDEC0A8BF1BD00BF4D
:105A88000BD7A33B0000B442FFFFB3C201C0DA4505
:105A980000C0DA450000FAC30100B4420100803FAB
:105AA8000000C842C06500206466002070660020BF
:105AB80000002A4080842E410000E0BFF8620020E8
:105AC80066A64C4014660020306600202866002038
:105AD80052B81E85EB5104402C660020217FA3FCA0
:105AE800283F0A4038660020106600202066002003
:105AF800000066403466002000C088400000F0BF07
:105B080000000840D7A3703D0AD74440F8C1631A83
:105B1800DCA54C40006AF84026CAE8C441E50140CB
:105B28000AD7A33B0000B4C2CDCCCCCCCCCCFC3F34
:105B3800000040406666394048E17A14AE47F13FBC
:105B4800046600209A99999999B97C400000F03F21
:105B5800086600201866002000002E40000059400A
:105B6800006AF8C01C6600202466002062B38B0718
:105B780008D0521E11F8013B00F8013B00F02480C8
:105B88008B07F6D1830740F0208000BF103A07D377
:105B980030B4B1E83810103AA0E83810F9D230BC67
:105BA800530724BFB1E80810A0E8081044BF51F813
:105BB800043B40F8043BD20724BF31F8022B20F8FD
:105BC800022B44BF0B7803707047121F17D35B007A
:105BD80009D151F8043B20F8023B1B0C121F20F896
:105BE800023BF6D20BE051F8043B00F8013B1B0ADC
:105BF80020F8023B1B0C121F00F8013BF3D238BF00
:105C0800121D521E24BF11F8013B00F8013BF8D8C1
:105C18007047F0B4016844688368091801EB5402BE
:105C2800E40748BF4B440C3091422BD011F8014B8C
:105C380014F0030504BF11F8015BED1C26090F2EB3
:105C480007D111F8016B0F3603E011F8017B03F857
:105C5800017B6D1EF9D1002EE6D0A40811F8015B76
:105C680004F00304032C08BF11F8014B05EB0424CE
:105C78001C1BB51CD8D014F8016B03F8016B6D1E02
:105C8800F9D1D1E7F0BC70475FF0FF0C1CEAD051A6
:105C980014BF614506E0C110400721F0E04101F161
:105CA8006051704779B900F0004100020AD0B0FA9B
:105CB80080FC00FA0CF001F16051A1EB0C5101EBF2
:105CC800D0214005704741020CBF40F4E0016FF05D
:105CD8000001002070470100B0B581EA030C0CF008
:105CE800004C40F2FF7515EA11541DBF15EA135711
:105CF800AC42AF4239E0E41923EA455343F4801338
:105D0800C90241F0004141EA505EC7021100A7FBF9
:105D1800020200284FF00000EEFB01204FF00001C6
:105D2800E3FB072118BF42F0010240180021494156
:105D3800E3FB0E01A4F580640F0302D25200404138
:105D4800494154F101046CDD470872F1004250F1F9
:105D5800000051EB0451A1F580115CBF41EA0C0130
:105D6800B0BD4CEA05510020B0BD05EA1357AC425E
:105D780014BFAF4241E050EA410E1CBF52EA430E45
:105D880002E061460020B0BD24423C441BD15FEADA
:105D9800070EF6D0090302BF01460020AEF1140E2B
:105DA800B1FA81F7AEEB070401FA07FE0C37C7F129
:105DB800200100FA07F7C8404EEA000E23EA4553CF
:105DC80043F48013A2E733F00043B3FA83F704BF28
:105DD800B2FA82FE77440B3FE41BB7F1200E2FBFC7
:105DE80002FA0EF3BB40C7F1200E22FA0EFE38BFAE
:105DF80043EA0E03BA40641C82E750EA410E14BF1E
:105E080052EA430E6FF000014FF4001717EB430FEF
:105E18008ABF194617EB410FB5E74CEA0551002038
:105E2800B0BDD4F10104B4F120070FDAC4F12007A2
:105E3800520828BF42F0010210FA07F501FA07F7E5
:105E4800E1BF2A43E0403843E1400FE0352C98DCBD
:105E5800C7F1200452EA400220FA07F218BF42F0C4
:105E6800010231FA07F0A1400A43002172F1004211
:105E780050F1000051EB0C01B0BDFEE74FEAF17C98
:105E8800BCF1E04C2CBFBCF5001F11E05FEA4C0CE4
:105E980034BFBCF17F5F2EE05FEA9C0C4FEA0C1C1C
:105EA8004FEA3C0CC10071F100414CEB5070704757
:105EB800C90241EA5051C00218BF41F0010141F046
:105EC80000414FEA6C50C0F10900212810D240EA85
:105ED800CC7CCCF1200C11FA0CF070F10040CCF124
:105EE800200C21FA0CF00CF0004C40EB0C00704731
:105EF8004FEACC707047490011F5001F04D84FEAEB
:105F0800CC10FF30C0057047C8177047F0B44FF089
:105F1800004591EA030C44BF6B4000F0A1B900BFF3
:105F2800841A71EB030603D2001BB14112197341A5
:105F38004FF4001C1CEB410F34BF7CEB430443E0DF
:105F48000C0DA4EB1356352E50DC45EAC323DB0AAF
:105F580045EAC121C912B6F120050DDD63FA05F63F
:105F6800EB4086EA0305124218BF45F00105C01848
:105F780051F100010CD213E062FA06F5F2405540E7
:105F8800F3415A40B340F3405A408018594107D36F
:105F980049085FEA30005FEA350528BF45F001058A
:105FA80001F58011420875F1004250F1000041EB03
:105FB8000451F0BC4FF4001C1CEB410F38BF704774
:105FC8000020090D090570471CEB410F10D252EA59
:105FD80043060BD0BCEB410F05D80C0DAB43661E36
:105FE800342EB5DD02E0AB4380185941F0BC704750
:105FF800F0BC70472DE9F04140F2FF7581EA030CCF
:106008000CF0004C15EA11541DBF15EA1357AC42A9
:10601800AF42E9E0BC41C1F31301C3F31303801A93
:10602800994143F4801304D2641E4000494180180A
:106038005941C90241EA5051B1FBF3F603FB16116D
:10604800A2FB0675D7EBC020A94102D2761E8018A4
:106058005941C90241EA5051B1FBF3FE03FB1E113D
:10606800A2FB0E75D7EBC020A94103D2AEF1010EF9
:1060780080185941890241EA9051760546EA8E2EE8
:10608800B1FBF3F603FB1611A2FB0675D7EB8020D4
:10609800A94102D2761E80185941C90241EA5051DD
:1060A8004EEA060EB1FBF3F603FB1611A2FB0675CA
:1060B800D7EBC020A94102D2761E80185941C902E7
:1060C80041EA5051B1FBF3F703FB1711A2FB073567
:1060D800D3EBC020A94167F100070CBF004247F08D
:1060E800010766F3D5274FEA1E31B80814F5806416
:1060F80014DDBD0775F1004250EB0E5051EB045111
:1061080011F5801F5CBF41EA0C01BDE8F0814CF03D
:106118007F6141F0E0410020BDE8F081BD076D08D6
:1061280040EA0E5041F48011D4F10104B4F1200684
:106138000ADAC4F120060200E04001FA06F3E14061
:106148001843B24015430EE0342C14DCC6F1200489
:1061580045EA40056D0820FA06F2154321FA06F0D3
:10616800A1400D43002175F1004250F1000051EBB0
:106178000C01BDE8F08100205FEA0C01BDE8F08168
:10618800CFB992185B41B3FA83F704BFB2FA82F62B
:10619800BF190B3FB7F120062FBF02FA06F3BB4029
:1061A800C7F1200622FA06F638BF3343BA401CB1BD
:1061B800E419641E2FE77F4231F00041B1FA81F4FF
:1061C80004BFB0FA80F6A4190B3CB4F120062FBF27
:1061D80000FA06F1A140C4F1200620FA06F638BFFD
:1061E8003143A0403C1B16E7AC421ABF05EA1357DF
:1061F800AF4214E050EA41061CBF52EA4306BFE72B
:1062080050EA4107304661461CBF41EA0551BDE8E6
:10621800F08152EA430C08BFC143BDE8F081002079
:106228004FF4001616EB410F98BF16EB430F08BF4B
:1062380016EB410F24BFC14305E016EB430F0CBF1B
:1062480061464CEA0551BDE8F0810101F0B44FF018
:10625800004591EA030F44BF6B40FFF761BE00BFE2
:10626800841A71EB030604D26E40001BB141121967
:1062780073414FF4001C1CEB410F34BF7CEB430609
:1062880084E00C0DA4EB1356362E7DDC012E43DC86
:1062980045EAC32343EA525312BFD20292025B0873
:1062A800240545EAC12141EA5051D2EBC020994169
:1062B80025D407D1B0FA80F610FA06F164D0002090
:1062C800203608E0B1FA81F6B140C6F1200220FA82
:1062D80002F21143B0404FEAF474B4EB465434F080
:1062E80001064FEA74040AD8D6F50016760D04F0B4
:1062F8000044F04061FA06F25040F1404840C00ABC
:1063080040EA415021F0004128BF5FEA500550F1B2
:10631800000044EBD12137E045EAC323DB0A45EA14
:10632800C121C90AB6F120050EDD42EA0242120C6B
:10633800C5F1200603FA06F6EB4042EA06056D426F
:10634800984161F100010DE062FA06F5F24055400E
:1063580063FA06FC82EA0C02F3405A406D4290410F
:1063680061EB030111F4801F05D1641E620502D0A0
:106378006D004041494121F48011430875F1004303
:1063880050F1000041EB0451F0BC70471CEB410F89
:1063980015D223F0004352EA43060BD04FEA4C0CC7
:1063A800BCEB410F04D80C0D661E342EB7DDEBE7AD
:1063B800801A994150EA410608BF0021E4E708BF66
:1063C8001CEB430F28BF6FF00001DDE751EC100B09
:1063D80010B500F003F841EC100B10BD40F2FF7C43
:1063E8000B0D4DD0634566D230B421EA035141F418
:1063F800801103F2FD3C5FEA5C0C01D300184941AF
:10640800890041EA907180004FF440140023E202B1
:10641800D50AB1F5100107D46D081DD2091B6419FE
:1064280000184941491BF7D56D080AD20919641BA0
:1064380000184941491BEFD56D08F7D301E0520810
:1064480017D0C01861419B1AAC4100184941801A05
:10645800A941F4D452080AD0C01AA1419B186C4132
:1064680000184941801AA941E9D45208F4D15B1CAB
:106478006C4161084FEA330001EB0C5130BC7047A6
:1064880050EA0103FBD030B4B1FA81F311B9B0FA84
:1064980080F41B190B3BB3F120042FBF00FA04F161
:1064A8009940C3F1200420FA04F438BF21439840EE
:1064B800D3F101039DE76345E1D011F5801FDED8D4
:1064C80050EA4101DBD0D94300F0F4B880B501228D
:1064D80051EC100B00F0F4F841EC100B01BD010178
:1064E8004FF4001C1CEB410F94BF1CEB430F09E059
:1064F80041EA030C50EA4C0C52EA0C0C03D28B42D2
:1065080008BF8242704714BF994290427047010108
:1065180051EC100B10B500F003F841EC100B10BD56
:1065280040F2FF7C1CEA115240F2FE33D21ACCBF73
:10653800D2F1350316E0B2F1150309DA6FEA4C53CC
:10654800D340094201D5401E594100209943704764
:106558006FF00002DA40094202D5801851F10001BB
:1065680090437047352A09DA50EA41031CBF4FEAC5
:106578000C5101F1804138BF002100207047000014
:10658800D0B52DED048B82B041EC180B8DED008B4E
:10659800DDE90023C3F30A5140F2FF72914206D1AC
:1065A800190350EA113018BF51EC180B61D151ECA6
:1065B800180B0022002300F0ABFA3DBF81F0004128
:1065C80041EC180B0424022451EC180B2B4A2C4BD9
:1065D80000F09EFA1CD29FED2C9B51EC190B53EC4A
:1065E800182BFFF733FE06460F4653EC182B51ECD9
:1065F800190BFFF78BFC32463B46FFF76DFBFFF7A5
:10660800EDFE41EC100B51EC180B53EC102B1EE077
:1066180001221C4B00F07CFA23D29FED1B9B51EC0E
:10662800190B53EC182BFFF711FE06460F4653ECD7
:10663800182B51EC190BFFF769FC32463B46FFF764
:106648004BFBFFF7CBFE84F0020453EC182BFFF74B
:10665800D1FC02B02246BDEC048BBDE8D04000F06E
:106668006FBA00F065FB212101604FF0FF306FF039
:10667800004102B0BDEC048BD0BD0000CE3B7F666C
:106688009EA0E63F0000F03F000000000000F03F41
:1066980080B551EC100BFFF773FF41EC100B01BDF7
:1066A80080B5002251EC100B00F00AF841EC100BF9
:1066B80001BD00001FB500F03BFB212101601FBD9B
:1066C800F8B52DED048B41EC180B154682B053EC50
:1066D800182BDFF8A003DFF8A013FFF7FDFA41EC51
:1066E800190B21F00041DFF89423DFF8943300F010
:1066F8000FFA80F0F68051EC190B00220023FFF707
:10670800EFFE53EC192B99BF0020DFF87813002017
:10671800DFF87413FFF7FAFB00F010FB040052D007
:1067280000F032FB0022DFF86433FFF7D5FA41ECC2
:10673800190B53EC192B4FF0A040D549FFF7CCFAB1
:1067480002460B4651EC180BFFF780FD06460F4634
:1067580053EC192B4FF0C040CE49FFF7BDFA024663
:106768000B4630463946FFF771FD06460F4653EC97
:10677800192B4FF00050C849FFF7AEFA02460B46F6
:1067880030463946FFF762FD06460F4653EC192B93
:106798000020C249FFF7A0FA02460B4630463946A8
:1067A800FFF754FD06460F4653EC192B4FF00050E7
:1067B800BB49FFF791FA02460B4630463946FFF7C8
:1067C80045FD41EC180B04F00300451951EC180B7A
:1067D8006FF00102B34BFFF783FE0BD800224FF096
:1067E800795300F095F905D2E80740F134819FED1F
:1067F800C68B30E153EC182BFFF76EFA41EC190BFE
:10680800E80731D553EC192BA748A849FFF764FAD4
:10681800A74AA84BFFF77AFB53EC192BFFF75CFA52
:10682800A54AA64BFFF772FB53EC192BFFF754FA56
:10683800A34AA44BFFF76AFB53EC192BFFF74CFA5A
:10684800A14AA24BFFF762FB53EC192BFFF744FA5E
:106858006FF051029E4BFFF759FB53EC192BFFF7D2
:106868003BFA00229B4B37E053EC182B51EC190BE9
:10687800FFF732FA06460F4653EC192B964897490C
:10688800FFF72AFA964A974BFFF740FB53EC192B70
:10689800FFF722FA944A954BFFF738FB53EC192B74
:1068A800FFF71AFA924A934BFFF730FB53EC192B78
:1068B800FFF712FA904A914BFFF728FB53EC192B7C
:1068C800FFF70AFA8E4A8F4BFFF720FB32463B460A
:1068D800FFF702FA53EC182BFFF718FB41EC180BE3
:1068E800B9E08DED008BDDE90001DDE90023C3F39C
:1068F8000A5140F2FF7291420BD0002904BF1903DC
:1069080050EA113016D1002D00F0AD809FED7E8B3E
:10691800A9E0190350EA113040F0A58000F008FA08
:106928002121016002B04FF0FF30BDEC048B6FF005
:106938000041F4BD8DED008B684600F03BFA451927
:106948009DED008B574B51EC180B6FF00102FFF7D0
:10695800C7FD0AD800224FF0795300F0D9F804D2C5
:10696800E80778D59FED688B75E053EC182BFFF797
:10697800B3F941EC190BE80731D553EC192B4A4808
:106988004A49FFF7A9F94A4A4A4BFFF7BFFA53ECBD
:10699800192BFFF7A1F9484A484BFFF7B7FA53EC10
:1069A800192BFFF799F9464A464BFFF7AFFA53EC14
:1069B800192BFFF791F9444A444BFFF7A7FA53EC18
:1069C800192BFFF789F96FF05102414BFFF79EFA37
:1069D80053EC192BFFF780F900223E4B37E053ECBC
:1069E800182B51EC190BFFF777F906460F4653ECB5
:1069F800192B39483949FFF76FF9394A394BFFF7ED
:106A080085FA53EC192BFFF767F9374A374BFFF72D
:106A18007DFA53EC192BFFF75FF9354A354BFFF731
:106A280075FA53EC192BFFF757F9334A334BFFF735
:106A38006DFA53EC192BFFF74FF9314A314BFFF739
:106A480065FA32463B46FFF747F953EC182BFFF738
:106A58005DFA41EC180BA80705D551EC180B81F02D
:106A6800004141EC180B02B051EC180BBDEC048B43
:106A7800F4BD000083C8C96D305FE43F0000A0FF8B
:106A8800FFFFDF410000E03F0000E0BF0000303EB4
:106A9800FB21B941B410114026A6513E5C14D33CE9
:106AA8009A833B3BFFFF3FBE09260A1039BA213EB5
:106AB8003BA861C6F97D92BE63AC30909F01FA3E57
:106AC800F6FB51166CC156BFB10255555555A53F39
:106AD800FFFFDFBF0000F03FB08F2FC310D8E53DA8
:106AE8008F0C73A1E1E55ABE4DADE44FE31DC73EDF
:106AF8003EE3B519A0012ABFFAF010111111813F28
:106B0800425555555555C5BF000000000000F03FDF
:106B18004FF4001C1CEB410F94BF1CEB430F09E022
:106B280041EA030C50EA4C0C52EA0C0C03D299428D
:106B380008BF9042704714BF8B42824270470000E2
:106B4800D0B51446544A554B2DED048BFFF7C8FCBD
:106B580041EC180B1DD89FED529B53EC182B51ECB0
:106B6800190BFFF7B9F800224F4BFFF7CFF906468C
:106B78000F4653EC182B51EC190BFFF7C7F90246D7
:106B88000B4630463946FFF735FA41EC180B44F00E
:106B9800010451EC180B0022444BFFF7B9FF05D351
:106BA80001224FF07953FFF79BFC51D853EC182B77
:106BB800FFF792F841EC190B53EC182BFFF78CF800
:106BC80006460F4653EC192B39483A49FFF784F823
:106BD800394A3A4BFFF79AF953EC192BFFF77CF82F
:106BE800374A384BFFF792F932463B46FFF774F8BD
:106BF80053EC182BFFF78AF906460F4653EC192B6E
:106C080031483249FFF768F8314A324BFFF77EF9CD
:106C180053EC192BFFF760F82F4A304BFFF776F942
:106C280053EC192BFFF758F82D4A2E4BFFF76EF946
:106C380053EC192BFFF750F800222B4BFFF766F99E
:106C480002460B4630463946FFF7D4F941EC180B9B
:106C5800A00705D551EC180B81F0004141EC180B49
:106C680014F007020BD00FF2880303EBC20251ECB9
:106C7800180B53681268FFF749F941EC180B200705
:106C880005D551EC180B81F0004141EC180B51EC83
:106C9800180BBDEC048BD0BD57CD9E5E1426D13F9A
:106CA800AA4C58E87AB6FB3F0000F0BF000040BE8F
:106CB800845D57134B57B03FB2934C19ED5EE43FD8
:106CC800BEDE02B90240F83FDE39028FC7C0743F0A
:106CD8008AAB1283000CC83F24D7E508B6D8F03F2A
:106CE8000F34580E5895FD3F0000F03F000000009B
:106CF800000000000000000066732D3852C1E03F1C
:106D0800182D4454FB21F93F66732D3852C1F03FCA
:106D1800182D4454FB21F93F66732D3852C10040A9
:106D2800182D4454FB2109403FD038C6A6F1044031
:106D3800014800F0F3B800005C010020F446400D63
:106D480040EAC120490006D200F00EF8004248BFD0
:106D58006FF00040604700F007F84FF000418842AC
:106D68008CBF08464042604740F00040490DA1F5FD
:106D78008061491C05D4D1F11F0154BFC840C01718
:106D880070474FF000007047010040F10780F4465B
:106D9800404200F003F851F00041604709D0B0FAD2
:106DA80080F18840C91CC1F58461090501EBD02137
:106DB80040057047D0B52DED048B044682B094EDA4
:106DC800008B4748474953EC182BFEF785FFCDE960
:106DD800000100220023FFF783FBDDE9002399BFB0
:106DE8000020414900204149FFF790F8CDE9000112
:106DF8000021684600F093F8DDE900230020002117
:106E080000F0CAF84ED03A49FEF766FF41EC190B7C
:106E180053EC192B4FF0A0403649FEF75DFF0246B0
:106E28000B4651EC180BFFF711FA06460F4653ECC8
:106E3800192B4FF0C0403049FEF74EFF02460B4673
:106E480030463946FFF702FA06460F4653EC192B2F
:106E58004FF000502949FEF73FFF02460B463046E7
:106E68003946FFF7F3F906460F4653EC192B002075
:106E78002349FEF731FF02460B4630463946FFF7F5
:106E8800E5F906460F4653EC192B4FF000501D4903
:106E9800FEF722FF02460B4630463946FFF7D6F981
:106EA80041EC180B84ED008BDDE90001164A174B05
:106EB800FFF72EFE04D3164A164BFFF711FB05D831
:106EC8000022154B00F078F8CDE90001DDE900015A
:106ED800FFF734FF02B000F00300BDEC048BD0BD17
:106EE80083C8C96D305FE43F0000E03F0000E0BFA9
:106EF8000000303EFB21B941B410114026A6513E96
:106F08005C14D33C9A833B3B0000C0FFFFFFDFC10A
:106F18000100C0FFFFFFDF410000E0417047426809
:106F2800C2F30A5240F2FF739A4207D1416809033B
:106F380003BF0068002801200220704743685B00F7
:106F480004BF0368002B25D040F233439A1A521A23
:106F5800012A1FDB352A06DB416801F00041416048
:106F68000021016013E0012102F01F039940491E2E
:106F7800920607D5426811404A40426002681143B0
:106F8800002202E0026811404A40026011B14FF04D
:106F9800FF3070470020704790420CD141EA030C43
:106FA80050EA4C0C07D0994205D14FF4001C1CEB59
:106FB800410F38BF8942704770B540F2FF7601F043
:106FC800004C5B0006EA11545D0D1ABFB442B5428D
:106FD80078E0B3EB410F08BF82424BD2C3F35303AF
:106FE80043F48013C1F3130141F48011641B0B3C7B
:106FF80013D9C90241EA5051B1FBF3FE03FB1E113C
:10700800A2FB0EE6DEEBC020B14101D28018594147
:1070180050EA010653D00B3CEBD80B34C4F12006E0
:10702800A14020FA06F6A0403143B1FBF3FE03FB72
:107038001E11A2FB0EE6B0EB0E00B14101D2801882
:10704800594102BF0146203D0020C1B3B1FA81F386
:107058009940C3F1200220FA02F211439840ED1A38
:107068000A3509DBC00A40EA41504CEAD12101EB5C
:10707800055170BD23D070BDD5F10B05B5F12002C7
:107088000DDAC5F120020300E84001FA02F6E940F2
:10709800934073F10043704151EB0C0170BD402DDA
:1070A8000DDC430821FA02F0C2F1200511FA05F6B9
:1070B800334373F1004370415CF1000170BD6146D8
:1070C800002070BD53EA020E1ABFB442B54237E041
:1070D800B3EB410F08BF8242CCD25B08B3FA83F509
:1070E80004BFB2FA82F6AD190B3DB5F1200624BFF4
:1070F80002FA06F305E0AB40C5F1200622FA06F6CF
:107108003343AA40D5F1010524427FF46BAF31F037
:107118000041B1FA81F404BFB0FA80F6A4190B3C1F
:10712800B4F1200624BF00FA06F105E0A140C4F13D
:10713800200620FA06F63143A040D4F1010455E7B1
:107148004FF4001515EB410F2CBF6FF00041EB42D7
:1071580018BF6FF00041BDE87040FFF4ABAA70475C
:10716800816851F0010181607047826832F018022D
:107178000A438260704741617047016070470200AE
:1071880011807047006880B2704781B0054909686E
:107198000143044A116003490968014000910099BC
:1071A80001B07047481002402DE9F34F89B05FF0F5
:1071B800050800240025002600275FF0000B5FF07B
:1071C800000A002003900020029000200490002074
:1071D8000021CDE906015FF000090020ADF80400A8
:1071E80002F04AF8002802D00E2000F02BBF01F070
:1071F8008BFF0998002802D1082000F023BF0998C6
:10720800DFF83C1C086000200600102E15D2DFF8BD
:10721800340C0660DFF8280C006830F816000028E7
:1072280008D0DFF81C0C006830F816004FF6FF7124
:10723800884200D101E0761CE7E7DFF80C0C006813
:107248004FF6FF71884202D15FF4801005E0DFF845
:10725800F80B00680005000D8002DFF8F01BB1FB99
:10726800F0F200FB1210C40ADFF8DC0B00684FF6DE
:10727800FF71884202D15FF4801005E0DFF8C80B87
:1072880000680005000D8002DFF8C01BB1FBF0F2BA
:1072980000FB1210C00A001D844238D2DFF8A80B88
:1072A80000684FF6FF71884202D15FF4801005E054
:1072B800DFF8940B00680005000D8002DFF8881BDA
:1072C80009684FF6FF72914202D15FF4801105E020
:1072D800DFF8741B09680905090D89024FF400627B
:1072E800DFF8683BB3FBF0F0484302FB040010F101
:1072F800006500200600B6F5006F06D27219D2E9C3
:107308000001CDE906010836F5E7641CACE7DFF8B3
:10731800380B00684FF6FF71884202D15FF4801085
:1073280005E0DFF8240B00680005000D8002DFF897
:107338001C1BB1FBF0F200FB1210C40ADFF8080BAB
:1073480000684FF6FF71884202D15FF4801005E0B3
:10735800DFF8F40A00680005000D8002DFF8EC1A77
:10736800B1FBF0F200FB1210C00A001D844249D2A2
:10737800DFF8D40A00684FF6FF71884202D15FF443
:10738800801005E0DFF8C00A00680005000D8002E3
:10739800DFF8B41A09684FF6FF72914202D15FF420
:1073A800801105E0DFF8A01A09680905090D8902AE
:1073B8004FF40062DFF8943AB3FBF0F0484302FB65
:1073C800040010F10065280001F055FE80465FFAC0
:1073D80088F8B8F1020F04D05FFA88F8B8F1010F05
:1073E80002D11BF1010B0BE05FFA88F8B8F1030F2B
:1073F80006D1BAF1000F00D1029403941AF1010AE0
:10740800641C9BE7BBF1000F40F0BC80BAF1000F91
:1074180000F0B380DFF8300A00684FF6FF71884249
:1074280002D15FF4801E06E0DFF81C0A0068000540
:10743800000D5FEA802EDFF8140ADFF80C1A0968DD
:107448004FF6FF72914202D15FF4801205E0DFF837
:10745800F81909680905090D8A02DFF8F01905927B
:10746800DFF8E42912684FF6FF739A4202D15FF4FD
:10747800801205E0DFF8D02912681205120D920279
:10748800DFF8C4391B684FF6FF7C634502D15FF40F
:10749800801305E0DFF8B0391B681B051B0D9B0244
:1074A800DDF808C0CDF800C0B0FBFEFC0EFB1C0CDC
:1074B8000098B0EBDC2010F1030C5FF0040EBCFB6D
:1074C800FEF000FB1EC0DDF814C0B1FBFCFCDDF8CB
:1074D80014E00EFB1C1110EBD1204FF40061DFF813
:1074E8006CC9BCFBF2F25A4301FB002010F10060AA
:1074F80001F0C1FD042845D1DFF84C0900684FF6BA
:10750800FF71884202D15FF4801205E0DFF8380984
:1075180000680005000D8202DFF83009DFF828193D
:1075280009684FF6FF73994202D15FF4801305E0B2
:10753800DFF8141909680905090D8B02DFF80CC971
:10754800012100910399B0FBF2FE02FB1E00B1EB92
:10755800D020411C0422B1FBF2F000FB1210BCFB4E
:10756800F3F103FB11C110EBD120009901F097FC56
:10757800002807D0022000F065BD002000F065FD5E
:1075880000F060BDDFF8C00800684FF6FF71884260
:1075980002D15FF4801005E0DFF8AC080068000550
:1075A800000D8002DFF8A418B1FBF0F200FB121006
:1075B800C40ADFF8940800684FF6FF71884202D1C8
:1075C8005FF4801005E0DFF8800800680005000D12
:1075D8008002DFF87818B1FBF0F200FB1210C00A45
:1075E800001D844280F06581DFF85C0800684FF672
:1075F800FF71884202D15FF4801005E0DFF8480887
:1076080000680005000D8002DFF83C1809684FF695
:10761800FF72914202D15FF4801105E0DFF828186B
:1076280009680905090D89024FF40062DFF81C3862
:10763800B3FBF0F0484302FB040010F1006528009A
:1076480001F019FD80465FFA88F8B8F1010F40F0A3
:107658002E81DFF8F40700684FF6FF71884202D1E7
:107668005FF4801005E0DFF8E00700680005000D12
:107678008002DFF8D817B1FBF0F200FB1210B4EB70
:10768800D02F00F08D80DFF8C00700684FF6FF713B
:10769800884202D15FF4801005E0DFF8AC0700688B
:1076A8000005000D8002DFF8A417B1FBF0F200FB23
:1076B8001210C00A801C844272D0DFF88C07006860
:1076C8004FF6FF71884202D15FF4801E06E0DFF8B2
:1076D800780700680005000D5FEA802EDFF86C3738
:1076E800DFF8640700684FF6FF71884202D15FF443
:1076F800801105E0DFF8500700680005000D8102E1
:10770800DFF848070091DFF8401709684FF6FF7265
:10771800914202D15FF4801105E0DFF82C17096867
:107728000905090D8902DFF8202712684FF6FF7C4A
:10773800624502D15FF4801205E0DFF80C27126879
:107748001205120D9202B3FBFEFC0EFB1C33B4EBC8
:10775800D32313F1030C5FF0040EBCFBFEF303FB11
:107768001EC3DDF800C0B0FBFCFCDDF800E00EFB3A
:107778001C0013EBD0204FF40063DFF8D0C6BCFB2D
:10778800F1F1514303FB001010F1006001F073FCAC
:10779800032802D10020814674E00120814671E06F
:1077A800DFF8A40600684FF6FF71884202D15FF443
:1077B800801E06E0DFF8900600680005000D5FEA0D
:1077C800802EDFF88836DFF8800600684FF6FF71F4
:1077D800884202D15FF4801105E0DFF86C0600688A
:1077E8000005000D8102DFF864060091DFF85816E5
:1077F80009684FF6FF72914202D15FF4801105E0EB
:10780800DFF8441609680905090D8902DFF83826EA
:1078180012684FF6FF7C624502D15FF4801205E0E2
:10782800DFF8242612681205120D9202B3FBFEFC43
:107838000EFB1C33B4EBD32313F1010C5FF0040EE1
:10784800BCFBFEF303FB1EC3DDF800C0B0FBFCFC71
:10785800DDF800E00EFB1C0013EBD0204FF40063B2
:10786800DFF8E8C5BCFBF1F1514303FB001010F150
:10787800006001F000FC002802D10020814601E0F0
:10788800012081465FFA89F9B9F1000F0FD1DFF8BD
:10789800EC0A047001220021002000F0CDFFB0F5B1
:1078A800807F01D00C20CDE30120049001E0641C0E
:1078B8007FE600200700DFF8900500684FF6FF71AB
:1078C800884202D15FF4801005E0DFF87C0500688B
:1078D8000005000D8002DFF87415B1FBF0F200FB23
:1078E8001210C40ADFF8600500684FF6FF7188427D
:1078F80002D15FF4801005E0DFF84C050068000550
:10790800000D8002DFF84415B1FBF0F200FB121005
:10791800C00A001D844280F05E81DFF82C050068F3
:107928004FF6FF71884202D15FF4801005E0DFF85E
:10793800180500680005000D8002DFF80C150968BD
:107948004FF6FF72914202D15FF4801105E0DFF833
:10795800F81409680905090D89024FF40062DFF877
:10796800EC34B3FBF0F0484302FB040010F100656F
:10797800280001F080FB80465FFA88F8B8F1020F12
:1079880040F02181DFF8C00400684FF6FF7188429B
:1079980002D15FF4801005E0DFF8AC040068000550
:1079A800000D8002DFF8A414B1FBF0F200FB121006
:1079B800B4EBD02F00F08D80DFF88C0400684FF610
:1079C800FF71884202D15FF4801005E0DFF8780487
:1079D80000680005000D8002DFF87014B1FBF0F2BA
:1079E80000FB1210C00A801C844272D0DFF85804D1
:1079F80000684FF6FF71884202D15FF4801E06E0EE
:107A0800DFF8440400680005000D5FEA802EDFF807
:107A18003C34DFF8340400684FF6FF71884202D125
:107A28005FF4801105E0DFF8200400680005000D10
:107A38008102DFF818040091DFF80C1409684FF68A
:107A4800FF72914202D15FF4801105E0DFF8F8136C
:107A580009680905090D8902DFF8EC2312684FF659
:107A6800FF7C624502D15FF4801205E0DFF8D8237D
:107A780012681205120D9202B3FBFEFC0EFB1C33BA
:107A8800B4EBD32313F1030C5FF0040EBCFBFEF33D
:107A980003FB1EC3DDF800C0B0FBFCFCDDF800E012
:107AA8000EFB1C0013EBD0204FF40063DFF89CC3DF
:107AB800BCFBF1F1514303FB001010F1006001F031
:107AC800DAFA032802D1002081466EE001208146BF
